:020000040800F2
:10000000F007002005010008D50300087903000867
:10001000D1030008F3010008F70E000800000000FB
:10002000000000000000000000000000850800083B
:10003000F7010008000000008D070008AD09000866
:100040001F0100081F0100081F0100081F01000810
:100050001F0100081F0100081F0100081F01000800
:100060001F0100081F0100081F0100081F010008F0
:100070001F0100081F0100081F0100081F010008E0
:100080001F0100081F0100081F0100081F010008D0
:100090001F0100081F0100081F0100081F010008C0
:1000A0001F010008110A00081F0100081F010008B5
:1000B0001F0100081F0100081F0100081F010008A0
:1000C0001F0100081F0100081F0100081F01000890
:1000D0001F010008110C00081F0100081F01000883
:1000E0001F0100081F0100081F010008DFF810D0E1
:1000F00000F03EF800480047A50F0008AFF300806D
:10010000F00700200648804706480047FEE7FEE764
:10011000FEE7FEE7FEE7FEE7FEE7FEE7FEE7FEE7B7
:10012000B1090008ED000008D2B201E000F8012B8F
:10013000491EFBD270470022F6E710B513460A4667
:1001400004461946FFF7F0FF204610BD30B50546BE
:100150002A460B4612F8010B13F8014B08B1A042D6
:10016000F8D01CB1002802D06D1CF1E7284630BD44
:10017000064C074D06E0E06840F0010394E80700F4
:1001800098471034AC42F6D3FFF7B4FFD0150008FF
:10019000F015000870B58D1810F8014B14F003022B
:1001A00001D110F8012B231106D110F8013B03E017
:1001B00010F8016B01F8016B521EF9D1ABB110F8C8
:1001C000012B04F00C048A1A0C2C03D0A2EB84122D
:1001D0009B1C08E010F8014BA2EB0422F8E712F890
:1001E000014B01F8014B5B1EF9D5A942D4D3002085
:1001F00070BD00BFFEE7704700B5034603E04FF453
:100200007A7000F005F8181EA3F10103F7D100BDC4
:1002100000EBC001C9004FF0E02251610021916163
:100220000521116100BF4FF0E021096901F480311F
:100230000029F8D004214FF0E022116170472DE928
:10024000F04102460025002600200023002400275C
:1002500091F803C00CF00F0591F803C00CF0100CDE
:10026000BCF1000F03D091F802C04CEA050591F8EB
:1002700000C0BCF1000F31D0146800202BE04FF01B
:10028000010C0CFA00F3B1F800C00CEA03069E4220
:1002900020D183004FF00F0C0CFA03F7BC4305FA92
:1002A00003FC4CEA040491F803C0BCF1280F06D10A
:1002B0004FF0010C0CFA00FCC2F814C00AE091F8EF
:1002C00003C0BCF1480F05D14FF0010C0CFA00FC43
:1002D000C2F810C0401C0828D1D31460B1F800C087
:1002E000BCF1FF0F34DD546800202EE000F1080C53
:1002F0004FF0010808FA0CF3B1F800C00CEA03064D
:100300009E4221D183004FF00F0C0CFA03F7BC433F
:1003100005FA03FC4CEA040491F803C0BCF1280F71
:1003200005D100F1080C08FA0CF8C2F8148091F815
:1003300003C0BCF1480F07D100F1080C4FF00108D1
:1003400008FA0CF8C2F81080401C0828CED354607C
:10035000BDE8F08102460020D3680B400BB10120BC
:1003600000E00020704741617047016170470AB1A9
:10037000016100E04161704700BFFEE710B5012157
:100380000648FFF7E7FF20B901210448FFF7EDFF1A
:1003900003E001210148FFF7E6FF10BD000801401E
:1003A00008B50121042000F0F3F910208DF80300B6
:1003B0000320ADF800008DF8020069460348FFF7FE
:1003C0003EFF03210148FFF7CEFF08BD00080140B2
:1003D00000BFFEE77047000070B5002100230F2228
:1003E000C47804B3154C246804F4E064C4F5E064F4
:1003F000210AC1F10403CA40447804FA03F1847865
:100400001440214309010E4C0678A155047804F0EC
:100410001F050124AC4005786D11AD0005F1E02504
:10042000C5F8004109E0047804F01F050124AC4040
:10043000044D0678761145F8264070BD0CED00E0BD
:1004400000E400E080E100E002490143024A11605B
:10045000704700000000FA050CED00E070B50024C4
:100460000EE00021204600F0F0F8002504E0002016
:1004700000F07CF9681CC5B2802DF8DB601CC4B2AA
:10048000082CEEDB70BD000008B50121082000F04B
:100490007FF914208DF8030003208DF802004FF43B
:1004A0008070ADF8000069460A48FFF7C8FE4FF4B7
:1004B0000070ADF8000069460648FFF7C0FE012253
:1004C00011020448FFF753FF012251020148FFF7D0
:1004D0004EFF08BD000C014070B50546002415E034
:1004E0008020204100EA05024FF400710E48FFF71A
:1004F0003EFF012211020C48FFF739FF00224FF4A2
:1005000080710948FFF733FF601CC4B2082CE7DB99
:10051000012211020448FFF72AFF00224FF48071E4
:100520000148FFF724FF70BD000C014010B5012207
:1005300051020A48FFF71BFF012211020748FFF78B
:1005400016FF00224FF400710448FFF710FF00224D
:100550004FF480710148FFF70AFF10BD000C014005
:1005600010B500224FF400710648FFF700FF01228A
:1005700011020448FFF7FBFE012251020148FFF778
:10058000F6FE10BD000C014070B5002406E0002509
:1005900000E06D1CB5F57A7FFBD3641CB4F57A7F5F
:1005A000F5D3FFF771FFAE2000F0D0F8D52000F0B2
:1005B000CDF8802000F0CAF8A82000F0C7F83F204E
:1005C00000F0C4F8D32000F0C1F8002000F0BEF81D
:1005D000402000F0BBF8A12000F0B8F8C82000F0DF
:1005E000B5F8DA2000F0B2F8122000F0AFF8812060
:1005F00000F0ACF8CF2000F0A9F8D92000F0A6F860
:10060000F12000F0A3F8DB2000F0A0F8302000F08B
:100610009DF8A42000F09AF8A62000F097F88D200D
:1006200000F094F8142000F091F8AF2000F08EF85C
:10063000FFF714FF70BD10B50246012000E05043E3
:100640000B1EA1F10101FAD110BD70B505460C4693
:1006500045F0B00000F07AF8102141EA141000F0E3
:1006600075F804F00F0000F071F870BD2DE9F0414D
:1006700005460E461746721ED206110E6A1E520617
:10068000100EFFF7E2FF002409E0A7F12001134A52
:1006900002EB0111085D00F069F8601CC4B2082C7F
:1006A000F3DB721ED206110E6A1E012303EB420217
:1006B000D0B2FFF7CAFF00240BE0A7F12001074AE0
:1006C00002EB011204F10801505C00F04FF8601CCD
:1006D000C4B2082CF1DBBDE8F0810000E00F000897
:1006E0002DE9F04780460E4617461D46002415E0CA
:1006F000281B411E0A20FFF79EFFB7FBF0F00A21DE
:10070000B0FBF1F201FB120000F130093019C1B267
:100710004A464046FFF7AAFF601CC4B2AC42E7DB82
:10072000BDE8F0872DE9F04107460E461546002446
:1007300007E02A5D3019C1B23846FFF797FF601C09
:10074000C4B2285D0028F4D1BDE8F08110B504469C
:10075000FFF7ECFE7820FFF7BFFE0020FFF7BCFE9E
:100760002046FFF7B9FEFFF7FBFE10BD10B50446AB
:10077000FFF7DCFE7820FFF7AFFE4020FFF7ACFE6E
:100780002046FFF7A9FEFFF7EBFE10BD7047000003
:1007900029B1064A92690243044B9A6104E0034A74
:1007A00092698243014B9A61704700000010024039
:1007B00030B500210022002400232D4D6D6805F086
:1007C0000C0121B1042905D0082923D105E0294DC8
:1007D000056022E0274D05601FE0254D6D6805F49A
:1007E0007012234D6D6805F48034022505EB9242AA
:1007F0001CB9214D554305600BE01D4D6D6805F496
:1008000000351DB11C4D5543056002E0194D55439F
:10081000056002E0174D056000BF00BF144D6D6814
:1008200005F0F0010909154D6B5C0568DD40456078
:100830000F4D6D6805F4E061090A104D6B5C456869
:10084000DD4085600A4D6D6805F46051C90A0B4DA5
:100850006B5C4568DD40C560054D6D6805F4404141
:10086000890B074D6B5CC568B5FBF3F5056130BDC1
:100870000010024000127A0000093D00D50100205E
:10088000E50100207047000010B5044621460548E8
:1008900000F02DFB00BF8021024800F05AFA00282A
:1008A000F9D010BD0038014070B50446002504E0C1
:1008B000605DFFF7E9FF681CC5B2605D0028F7D1F5
:1008C00070BD10B500F002F810BD00000CB500209E
:1008D000019000903348006840F48030314908604E
:1008E00000BF3048006800F4003000900198401CC0
:1008F0000190009818B90198B0F5A06FF1D129487E
:10090000006800F4003010B10120009001E00020E8
:1009100000900098012843D12348006840F010005F
:10092000214908600846006820F003000860084676
:10093000006840F0020008601A48406819494860A1
:100940000846406848600846406840F48060486057
:100950000846406820F47C1048600846406840F42F
:10096000E81048600846006840F08070086000BFEA
:100970000C48006800F000700028F9D00948406871
:1009800020F00300074948600846406840F0020034
:10099000486000BF0348406800F00C000828F9D107
:1009A0000CBD000000100240002002407047000013
:1009B00010B51348006840F001001149086008466E
:1009C0004068104908400E494860084600680E49D2
:1009D00008400B4908600846006820F48020086041
:1009E0000846406820F4FE0048604FF41F0088600D
:1009F000FFF767FF4FF000600449086010BD00007A
:100A0000001002400000FFF8FFFFF6FE08ED00E0D6
:100A100010B50121054800F01AF8012805D101217F
:100A2000024800F005F8FFF7A9FC10BD002C0140BA
:100A3000CA430282704721B1028842F0010202805B
:100A400004E002884FF6FE731A400280704730B50A
:100A50000246002000230024158A05EA0103958937
:100A600005EA010413B10CB1012000E0002030BD03
:100A70001AB183890B43838102E083898B4383818D
:100A800070470000002202881D4B98420ED01D4B7B
:100A900098420BD0B0F1804F08D01B4B984205D044
:100AA0001A4B984202D01A4B984204D14FF68F73DA
:100AB0001A404B881A43174B984207D0164B98425E
:100AC00004D04FF6FF431A40CB881A4302808B882C
:100AD00083850B8803850A4B98420BD0094B9842BB
:100AE00008D00E4B984205D00D4B984202D00D4BCA
:100AF000984201D10B7A038601238382704700005C
:100B0000002C014000340140000400400008004077
:100B1000000C004000100040001400400040014064
:100B200000440140004801407FB505460C460121C4
:100B3000C802FFF72DFE681E80B2ADF80400002049
:100B4000ADF80600601E80B2ADF808000020ADF8D8
:100B50000A008DF80C0001A90D48FFF793FF012250
:100B600011460B48FFF784FF19208DF80000002084
:100B70008DF8010001208DF802008DF80300684611
:100B8000FFF72AFC01210248FFF755FF7FBD000057
:100B9000002C014070B504460D46002625E014489F
:100BA000008860B9701C86B24FF47A70FFF724FB9E
:100BB000A64204DB0FA202210420FFF7B3FD11A11E
:100BC0001148FFF7C3FA80B101232A46042102200D
:100BD000FFF786FD4FF400710B48FFF7ACFA0020D9
:100BE0000A4908800249088000E0D8E700BF70BDCC
:100BF0000200002054696D656F7574204552524F94
:100C0000520000004F4B0000EC01002004000020C7
:100C100010B540F225510E4800F0A8F8012816D171
:100C20000B4800F05FF90B490870084601780A4844
:100C300002880088401C084B188008488154012015
:100C40000749087040F22551014800F067F810BDCF
:100C5000003801400000002004000020EC010020CA
:100C60000200002000B587B001218803FFF790FD46
:100C700001210420FFF78CFD18208DF81B004FF494
:100C80000070ADF8180003208DF81A0006A921485D
:100C9000FFF7D5FA48208DF81B004FF48060ADF8BF
:100CA000180003208DF81A0006A91A48FFF7C7FAA2
:100CB0004FF4E13002900020ADF814000C20ADF8A4
:100CC00012000020ADF81000ADF80E00ADF80C00D9
:100CD00002A9114800F09AF8012240F225510E486D
:100CE00000F06EF84FF4A060FFF7AEFB25208DF802
:100CF000040001208DF807008DF805008DF806002E
:100D000001A8FFF769FB0121034800F016F807B0BE
:100D100000BD0000000801400038014010B500226D
:100D2000002340F66A14A14200D100BF0A12012438
:100D30009440A3B2DC43048010BD21B1828942F407
:100D40000052828104E082894DF6FF731A4082814D
:100D5000704702460020B1F5007F00D100BF138824
:100D60000B400BB1012000E00020704770B5024637
:100D7000002400230025002040F66A16B14200D16D
:100D800000BFC1F3421501F01F03012606FA03F369
:100D9000012D02D19689334006E0022D02D1168A38
:100DA000334001E0968A33400C12012606FA04F41F
:100DB0001688344013B10CB1012000E0002070BD52
:100DC000F0B50346002400260025002040F66A17EF
:100DD000B94200D100BF1846C1F3421401F01F060A
:100DE000012707FA06F5012C01D10C3004E0022C92
:100DF00001D1103000E014301AB107682F430760AA
:100E000002E00768AF430760F0BD00002DE9F0473E
:100E100086B005460E460024A24600BFA146002724
:100E2000B08900B100BF2F462C8A4CF6FF700440F9
:100E3000F08804432C82AC894EF6F3100440B0884D
:100E400031890843718908430443AC81AC8A4FF669
:100E5000FF400440B0890443AC8201A8FFF7A8FC1E
:100E60001F48874202D1DDF810A001E0DDF80CA098
:100E7000A88900F4004040B10AEBCA0000EB0A1058
:100E800031684900B0FBF1F807E00AEBCA0000EB5B
:100E90000A1031688900B0FBF1F86420B8FBF0F06B
:100EA00004012009642101FB1089A88900F4004095
:100EB00040B1322000EBC900B0FBF1F000F00700B8
:100EC000044308E0322000EB09106421B0FBF1F08C
:100ED00000F00F0004432C8106B0BDE8F08700004D
:100EE0000038014001468888C0F308007047C1F30C
:100EF00008028280704700BFFEE702E008C8121FA8
:100F000008C1002AFAD170477047002001E001C1F2
:100F1000121F002AFBD1704710B51A48FFF7C4FC16
:100F200001210220FFF736FE1748FFF7BDFC022122
:100F30000846FFF72FFE1548FFF7B6FC03210220F5
:100F4000FFF728FE1248FFF7AFFC04210220FFF74D
:100F500021FE1048FFF7A8FC05210846FFF71AFEFE
:100F60000D48FFF7A1FC06210520FFF713FE0B48F3
:100F7000FFF79AFC07210520FFF70CFE0848FFF752
:100F800093FC10BD08000020150000202300002065
:100F90004900002064000020E000002048010020FB
:100FA0008E0100204FF4A060FFF74EFA4FF4E1519C
:100FB00042F21070FFF7B8FDFFF7F2F9FFF7E4FA1D
:100FC000FFF750FEFFF7A8FF03A201210846FFF735
:100FD000A9FB00BFFEE700005278446174613A004B
:100FE0000000000000000000000000000000000001
:100FF000000000F800000000000000333000000096
:1010000000100C06100C060000000000000000009C
:1010100040C07840C0784000043F04043F0404000E
:10102000007088FC08300000001820FF211E00001E
:10103000F008F000E018000000211C031E211E0033
:1010400000F00888700000001E21232419272110B9
:1010500010160E000000000000000000000000005C
:10106000000000E018040200000000071820400003
:1010700000020418E00000000040201807000000F3
:10108000404080F0804040000202010F0102020057
:10109000000000F0000000000101011F010101003B
:1010A000000000000000000080B0700000000000A0
:1010B0000000000000000000000101010101010129
:1010C00000000000000000000030300000000000C0
:1010D0000000000080601804006018060100000095
:1010E00000E010080810E000000F102020100F0092
:1010F000001010F8000000000020203F2020000019
:101100000070080808887000003028242221300070
:1011100000300888884830000018202020110E0078
:101120000000C02010F8000000070424243F240021
:1011300000F80888880808000019212020110E00F6
:1011400000E0108888180000000F112020110E0008
:1011500000380808C83808000000003F0000000000
:101160000070880808887000001C222121221C00C1
:1011700000E010080810E0000000312222110F00EA
:10118000000000C0C000000000000030300000007F
:1011900000000080000000000000806000000000EF
:1011A0000000804020100800000102040810200008
:1011B0004040404040404000040404040404040053
:1011C00000081020408000000020100804020100E8
:1011D000007048080808F0000000003036010000E8
:1011E000C030C828E810E0000718272423140B009B
:1011F0000000C038E0000000203C23020227382015
:1012000008F8888888700000203F202020110E00F8
:10121000C0300808080838000718202020100800EF
:1012200008F808080810E000203F202020100F00D8
:1012300008F88888E8081000203F202023201800A4
:1012400008F88888E8081000203F2000030000000C
:10125000C03008080838000007182020221E0200AD
:1012600008F808000008F808203F210101213F206C
:10127000000808F8080800000020203F2020000097
:1012800000000808F8080800C08080807F00000087
:1012900008F888C028180800203F200126382000C0
:1012A00008F8080000000000203F20202020300027
:1012B00008F8F800F8F80800203F003F003F200041
:1012C00008F830C00008F808203F200007183F0049
:1012D000E01008080810E0000F10202020100F0078
:1012E00008F808080808F000203F2101010100006B
:1012F000E01008080810E0000F18242438504F00B0
:1013000008F8888888887000203F2000030C30206F
:1013100000708808080838000038202121221C00AD
:10132000180808F8080818000000203F20000000F6
:1013300008F808000008F808001F202020201F00DF
:101340000878880000C83808000007380E0100003F
:10135000F80800F80008F800033C0700073C030009
:10136000081868808068180820302C03032C30206F
:101370000838C800C83808000000203F20000000DE
:1013800010080808C8380800203826212020180036
:10139000000000FE020202000000007F404040000A
:1013A000000C30C000000000000000010638C00042
:1013B00000020202FE000000004040407F000000EA
:1013C000000004020202040000000000000000000F
:1013D000000000000000000080808080808080800D
:1013E00000020204000000000000000000000000F5
:1013F00000008080808000000019242222223F20EB
:1014000008F8008080000000003F112020110E002D
:101410000000008080800000000E112020201100BC
:10142000000000808088F800000E112020103F206E
:101430000000808080800000001F222222221300F2
:10144000008080F0888888180020203F202000003D
:101450000000808080808000006B949494936000F2
:1014600008F8008080800000203F210000203F20FD
:1014700000809898000000000020203F20200000FD
:10148000000000809898000000C08080807F0000ED
:1014900008F8000080808000203F24022D302000CA
:1014A000000808F8000000000020203F2020000075
:1014B0008080808080808000203F20003F20003F8F
:1014C0008080008080800000203F210000203F209D
:1014D0000000808080800000001F202020201F004E
:1014E000808000808000000080FFA12020110E007D
:1014F0000000008080808000000E112020A0FF806E
:10150000808080008080800020203F21200001001A
:10151000000080808080800000332424242419006F
:10152000008080E0808000000000001F202000007C
:101530008080000000808000001F202020103F20BD
:10154000808080000080808000010E30080601004D
:1015500080800080008080800F300C030C300F00F2
:1015600000808000808080000020312E0E3120001D
:10157000808080000080808080818E70180601004D
:1015800000808080808080000021302C222130006B
:1015900000000000807C020200000000003F40408C
:1015A00000000000FF00000000000000FF0000003D
:1015B0000002027C800000000040403F000000006C
:1015C0000006010102020404000000000000000007
:1015D000F015000800000020EC0100009401000854
:1015E00084170008EC010020040600000A0F000820
:1015F000520001200D41542B524553544F52450D7A
:101600000A0D500943574D4F44453D310E60204966
:1016100050534E54504346473D312C382C226E7463
:1016200070312E616C6979756E2E636F6D22341086
:101630000A4A41503D223131222C054101511B20E3
:10164000094D5154545553455242100A302C312CF7
:10165000224E554C4C27101465737038323636269E
:101660006B30796774786650626351161044646514
:1016700065613262653934653534396238623938CA
:101680003431653939353637653063366230346325
:10169000303861643233353363303733396532344F
:1016A0006334666664356438323562333264222CC2
:1016B000300292227C1009434C49454E5449447DE6
:1016C00092226C522E80A03F7C7365637572656DAB
:1016D0006F64653D325C2C7369676E6D6574686F0D
:1016E000643D686D61637368613235365C2C746982
:1016F0006D657374616D703D313731323134333221
:1017000036393131377C6820044F4E4E64101A69E7
:101710006F742D30367A3030656463713173746F55
:1017200037752E6D7174742E1954046875623C37C8
:1017300063733E84082C313838332C312A2004530B
:1017400055424590062F7379732FAE522FAE101865
:101750002F7468696E672F736572766963652F7081
:10176000726F7065727479113374224725D1200528
:101770000102030404000C0006070809020406081D
:041780000000000065
:04000005080000ED02
:00000001FF
