:020000040800F2
:10000000480D002005010008FF050008390300081D
:10001000FD050008C7010008D91000080000000015
:10002000000000000000000000000000190A0008A5
:10003000C90100080000000057090008310C000841
:100040001F0100081F0100081F0100081F01000810
:100050001F0100081F0100081F0100081F01000800
:100060001F0100081F0100081F0100081F010008F0
:100070001F0100081F0100081F0100081F010008E0
:100080001F0100081F0100081F0100081F010008D0
:100090001F0100081F0100081F0100081F010008C0
:1000A0001F010008850C00081F0100081F0100083F
:1000B0001F0100081F0100081F0100081F010008A0
:1000C0001F0100081F0100081F0100081F01000890
:1000D0001F010008F10D0008F90E0008490F000883
:1000E000010200081F0100081F010008DFF810D0FE
:1000F00000F02CF800480047F9100008AFF300802A
:10010000480D00200648804706480047FEE7FEE706
:10011000FEE7FEE7FEE7FEE7FEE7FEE7FEE7FEE7B7
:10012000350C0008ED000008D2B201E000F8012B08
:10013000491EFBD270470022F6E710B513460A4667
:1001400004461946FFF7F0FF204610BD064C074D48
:1001500006E0E06840F0010394E807009847103497
:10016000AC42F6D3FFF7C6FFC4110108E411010841
:1001700070B58C1810F8015B15F0070301D110F869
:10018000013B2A1106D110F8012B03E010F8016B96
:1001900001F8016B5B1EF9D12B0705D40023521E19
:1001A0000DD401F8013BFAE710F8013BCB1A921C81
:1001B00003E013F8015B01F8015B521EF9D5A1427F
:1001C000D8D3002070BDFEE7704700B502464FF45B
:1001D0007A7302E0184600F003F8521EFAD200BD0E
:1001E00000EBC000C1004FF0E020416100218161BF
:1001F000052101610169C903FCD504210161704732
:1002000010B54FF40054204600F01EF800280CD022
:100210000649012006A288700146092000F066FB0D
:100220002046BDE8104000F009B810BDD8010020FC
:100230005363616E53746174757300000149086003
:100240007047000014040140064A0146002012686D
:10025000044B0A4014331B680B4202D0002A00D022
:100260000120704700040140F0B5CA78002502F073
:100270000F03D20601D58A7813430A784FF00F0E88
:1002800012F0FF0F4FF001021CD004680F8802FA31
:1002900005F63740B74211D14FEA850C0EFA0CF73C
:1002A00024EA070703FA0CF43C43CF78282F02D046
:1002B000482F02D002E0466100E006616D1C082D67
:1002C000E4D304600C88FF2C1ED944685FF000065C
:1002D00006F1080702FA07F50F882F40AF420FD149
:1002E0004FEA860C0EFA0CF7BC4303FA0CF73C43BA
:1002F000CF78282F00D14561CF78482F00D10561F4
:10030000761C082EE4D34460F0BD024600209268BB
:100310000A4200D00120704702460020D2680A42FB
:1003200000D00120704741617047016170470AB1F8
:100330000161704741617047FEE702460020938AE1
:10034000128B43EA024323F07F42914300D1012004
:1003500070470029018802D041F0010101E021F03D
:100360000101018070470000F8B50121480500F047
:10037000FFFA0121082000F0FBFA4020ADF8000050
:100380001C240B4E8DF8034003258DF8025069465E
:100390003046FFF769FF8020ADF800008DF803407C
:1003A0008DF8025069463046FFF75EFFF8BD000049
:1003B000000C01400029018802D041F4807101E065
:1003C00021F48071018070470029018802D041F436
:1003D000007101E021F40071018070470CB5024604
:1003E000002000920A0F21F07F41019202D0009A72
:1003F000143202E0009A090C1832009212680A4284
:1004000000D001200CBD000070B50446808886B085
:100410000D4620F03F06684600F0B6FA27490298DC
:10042000B0FBF1F189B20E43A680228822F00102CE
:100430002280234B2A689A421CD85200B0FBF2F06B
:1004400080B2042800D20420491C2184A083208883
:1004500040F00100208021884FF6F5300140A88847
:100460006A89104308432080A8892989084320818C
:1004700006B070BDEB88A3F53F46FF3E0BD002EB04
:10048000C20303EB0212B0FBF2F080B240F48040F2
:10049000020506D007E002EB4202B0FBF2F080B2A8
:1004A000F6E740F001004FF4967251434FF47A7230
:1004B000B1FBF2F140F40040C6E7000040420F00FB
:1004C000A086010012B141F0010101E001F0FE013E
:1004D000018270470182704770B5244D00240221CB
:1004E0002846FFF712FF012809D11420FFF76DFEFF
:1004F00002212846FFF709FF0128F6D001244FF416
:10050000006631462846FFF700FF012809D1142074
:10051000FFF75BFE31462846FFF7F7FE0128F6D0CD
:10052000022420212846FFF7F0FE012809D11420DB
:10053000FFF74BFE20212846FFF7E7FE0128F6D003
:1005400003244FF4807631462846FFF7DEFE01286B
:1005500009D11420FFF739FE31462846FFF7D5FEB2
:100560000128F6D00424204670BD0000000C014094
:1005700008B50121082000F0FBF928208DF80300C0
:1005800040F62210ADF8000003208DF80200694605
:100590000148FFF769FE08BD000C014010B5094C89
:1005A00001212046FFF7B8FE00284FF00101204648
:1005B00003D0BDE81040FFF7B6BEBDE81040FFF71E
:1005C000B4BE00000008014038B50121042000F04D
:1005D000CFF910208DF803000320ADF80000064C81
:1005E0008DF8020069462046FFF73EFE03212046B3
:1005F000FFF799FE38BD000000080140FEE7704794
:1006000070B50F23C47801780122F4B1144C24682A
:10061000457804F4E064C4F5E064240AC4F10406F7
:10062000E3408478B5401C402C4301F1E0212301D4
:1006300081F80034007800F01F018A4040098000F2
:1006400000F1E020C0F8002170BD01F01F008240E1
:100650004809800000F1E020C0F8802170BD000052
:100660000CED00E0024908430249086070470000B1
:100670000000FA050CED00E070B5002400212046D2
:1006800000F0EEF80025002000F054F96D1CEDB2EA
:10069000802DF8D3641CE4B2082CEFD370BD0000A9
:1006A000F8B50121082000F063F914208DF803004B
:1006B00003208DF802000D4E4FF48074ADF8004019
:1006C00069463046FFF7D0FD6500ADF80050694639
:1006D0003046FFF7C9FD012221463046FFF727FECD
:1006E000012229463046FFF722FEF8BD000C0140EA
:1006F0002DE9F047144E002407464FF080084FF4D0
:100700000079B51528FA04F23A4049463046FFF719
:100710000EFE012229463046FFF709FE0022294637
:100720003046FFF704FE641CE4B2082CEAD3012231
:1007300029463046FFF7FBFD29463046BDE8F04725
:100740000022FFF7F4BD0000000C014070B501224B
:100750000B4D540221462846FFF7E9FD01221602FF
:1007600031462846FFF7E3FD002221462846FFF7E1
:10077000DEFD31462846BDE870400022FFF7D7BDB8
:10078000000C014070B50A4D4FF400740022214660
:100790002846FFF7CCFD012211022846FFF7C7FDCE
:1007A00021462846BDE870400122FFF7C0BD000089
:1007B000000C014010B500204FF47A720021491C52
:1007C0009142FCD3401C9042F8D3FFF769FFAE2062
:1007D00000F09FF8D52000F09CF8802000F099F8F8
:1007E000A82000F096F83F2000F093F8D32000F006
:1007F00090F8002000F08DF8402000F08AF8A12049
:1008000000F087F8C82000F084F8DA2000F081F8C2
:10081000122000F07EF8812000F07BF8CF2000F05D
:1008200078F8D92000F075F8F12000F072F8DB209C
:1008300000F06FF8302000F06CF8A42000F069F8A8
:10084000A62000F066F88D2000F063F8142000F078
:1008500060F8AF2000F05DF8BDE81040FFF70CBF76
:1008600010B50C4640F0B00000F053F8102040EAFC
:10087000141000F04EF804F00F00BDE8104000F036
:1008800048B800002DE9F0410746CE004000083E80
:10089000801E15464FF0FF38F1B2C0B2FFF7E0FFFF
:1008A0001148002400EB05152819A0F5805090F898
:1008B000000E00F03FF8641CE4B2082CF4D308EBFF
:1008C0004700F1B2C0B2FFF7CBFF00242819A0F512
:1008D000805090F8080E00F02DF8641CE4B2082C4B
:1008E000F4D3BDE8F0810000F41C00082DE9F041CC
:1008F00015460E460746002406E03019C1B23846B8
:10090000FFF7C0FF641CE4B22A5D002AF5D1BDE800
:10091000F08110B50446FFF719FF7820FFF7E8FED5
:100920000020FFF7E5FE2046FFF7E2FEBDE810409D
:10093000FFF728BF10B50446FFF708FF7820FFF740
:10094000D7FE4020FFF7D4FE2046FFF7D1FEBDE8DA
:100950001040FFF717BF7047044A0029D16901D042
:10096000014300E08143D161704700000010024064
:10097000044A0029916901D0014300E0814391615B
:10098000704700000010024030B51F494A6812F05D
:100990000C031E4A03D0042B01D0082B21D0026087
:1009A0004A680F231A4C03EA1212A35C0268DA4069
:1009B00042604B68072505EA1323E35C22FA03F340
:1009C00083604B6805EAD323E35CDA40C260496880
:1009D000032303EA9131231F595CB2FBF1F101615A
:1009E00030BD4A684B6802F470124FF0020413F4F1
:1009F000803F04EB924202D04B689B0301D5054B2C
:100A000000E0024B5A43CAE70010024000127A008D
:100A10008A02002000093D00704700000CB500214B
:100A2000264801910091026842F4803202604FF43E
:100A3000A063026802F400320092019A521C0192F3
:100A4000009A12B9019A9A42F3D10268920333D5FF
:100A5000012100911A490A6842F010020A600A68EE
:100A600022F003020A600A6842F002020A6041684A
:100A7000416041684160416841F480614160416882
:100A800021F47C114160416841F4E8114160016842
:100A900041F08071016001688901FCD5416821F055
:100AA00003014160416841F0020141604168C1F3C6
:100AB00081010229FAD10CBD00910CBD0010024049
:100AC000002002402DE9FC413D4C0546002600BFB8
:100AD000FFF702FD207331463A4800F0CBFC761C4C
:100AE000F6B20E2E00D300260A20FFF76EFB207B05
:100AF000012803D0022801D00328E9D100272021B2
:100B0000314A4026607001280DD0022836D1B4F950
:100B10000E00202832DA20789046401E2070B1FB6B
:100B2000F5F0E07248E0B4F90E0010F1200F25DD79
:100B300020789046401C2070B1FBF5F0E07219E07F
:100B4000204800F0F5FAE0890121401BE0811D48B2
:100B500000F01DFCCDE90068E0894023403081B2FF
:100B60000022184800F0CCFB164800F007FCE07AA1
:100B7000401EE07210F0FF0FE2D12773BDE8FC8148
:100B8000104800F0D5FA0E4829460E3001F0AEF8B4
:100B900001210C4800F0FBFBCDE90068E08940230F
:100BA000603081B20022074800F0AAFB054800F03F
:100BB000E5FBE07A401EE07210F0FF0FE0D1DCE7C9
:100BC00076020020A0020020642300081CB5012149
:100BD000124800F0F7FB0021104800F0F0FB10492C
:100BE0000E4800F0DCFB0F482024CDE900402346EE
:100BF00010220021094800F083FB0B482023CDE997
:100C000000400A481022C089403081B2034800F0F9
:100C100077FBBDE81C40014800F0B0BBA0020020FB
:100C2000E4050108E422000864250008760200209B
:100C3000704700000F4810B5016841F001010160E4
:100C400041680D4A1140416001680C4A1140016041
:100C5000016821F480210160416821F4FE014160B6
:100C60004FF41F018160FFF7D9FE05494FF0006086
:100C7000086010BD001002400000FFF8FFFFF6FE04
:100C800008ED00E010B5084C0121204600F01BF8EB
:100C9000012807D10121204600F008F8BDE81040E6
:100CA000FFF77CBC10BD0000002C0140C94301824D
:100CB00070470029018802D041F0010101E021F0D4
:100CC00001010180704702460020138A92890B427D
:100CD00002EA010202D0002A00D001207047002A57
:100CE000828901D00A4300E08A4382817047000074
:100CF00030B502881B4B1C4C98420DD0A0420BD043
:100D0000B0F1804F08D0194DA84205D0184DA84227
:100D100002D0184DA84203D122F070054A882A4318
:100D2000154DA84206D0154DA84203D022F44075B7
:100D3000CA882A4302808A8882850A880285984266
:100D40000AD0A04208D00E4A904205D00D4A9042E7
:100D500002D00D4A904201D1097A01860121818297
:100D600030BD0000002C0140003401400004004070
:100D700000080040000C004000100040001400403B
:100D80000040014000440140004801407FB50C464E
:100D900005460121C802FFF7EBFD6D1EADF80050BE
:100DA000641E0025ADF80440104CADF80250ADF8BB
:100DB00006508DF8085069462046FFF799FF01223A
:100DC00011462046FFF78BFF19208DF80C008DF897
:100DD0000D5001218DF80E108DF80F1003A8FFF7AC
:100DE0000FFC01212046FFF764FF7FBD002C01406E
:100DF00070B50F4C40F225552946204600F0DAF830
:100E0000012813D1204600F063F90A490A4B087003
:100E10000A490A889854521C0A800949012008701E
:100E200029462046BDE8704000F0B4B870BD00000F
:100E3000003801400000002034030020080000209A
:100E40000600002030B5012187B08803FFF790FD30
:100E500001210420FFF78CFD18208DF813004FF4BA
:100E60000070ADF81000224D03248DF8124004A943
:100E70002846FFF7F9F948208DF813002815ADF83A
:100E800010008DF8124004A92846FFF7EDF94FF441
:100E9000E130009000200C21ADF80A10ADF80600FA
:100EA000144CADF80C00ADF80800ADF8040069462C
:100EB000204600F0B7F8012240F22551204600F00C
:100EC00098F84FF4A060FFF7CDFB25208DF81400B3
:100ED00001218DF817108DF815108DF8161005A842
:100EE000FFF78EFB0121204600F05AF807B030BD15
:100EF000000801400038014070B5104D40F2255403
:100F00002146284600F056F888B1284600F0E0F85F
:100F10000B4BC0B21A78110609D4142A04D209491D
:100F20008854521C1A7002E042F08000187021466A
:100F30002846BDE8704000F02DB800000044004095
:100F4000D80100203405002070B5104D40F2255422
:100F50002146284600F02EF890B1284600F0B8F857
:100F60000B4BC0B25A7811060AD4062A05D203F1F7
:100F700008018854521C5A7002E042F080005870F8
:100F800021462846BDE8704000F004B80048004003
:100F9000D80100200A0A01219140C943018070470D
:100FA0000029818902D041F4005101E021F400516F
:100FB0008181704730B501F01F0201240025C1F383
:100FC000421304FA02F2012B0FD0022B0FD0838AB6
:100FD0004FEA11210088134204FA01F400EA0400E8
:100FE00001D000B10125284630BD8389F0E7038A8E
:100FF000EEE710B5C1F3421301F01F040121A14037
:10100000012B07D0022B07D01430002A026805D02C
:101010000A4304E00C30F8E71030F6E78A43026038
:1010200010BD000030B50446008A85B00D464CF670
:10103000FF710840E98801432182A1894EF6F3102F
:101040000140A8882A8910436A890A431043A08175
:10105000A08A4FF6FF410840A9890143A182684652
:10106000FFF792FC1948844201D1039800E00298EE
:10107000A189090400EBC00101EB0010296801D52A
:10108000490000E08900B0FBF1F06422B0FBF2F10E
:1010900009010B096FF018056B4300EB8300A3896E
:1010A0001D044FF0320306D503EBC000B0FBF2F095
:1010B00000F0070005E003EB0010B0FBF2F000F0D9
:1010C0000F000843208105B030BD0000003801400A
:1010D0008088C0F308007047FEE702E008C8121FCE
:1010E00008C1002AFAD170477047002001E001C111
:1010F000121F002AFBD170474FF4A060FFF7B2FA2D
:101100004FF4E15142F21070FFF740FEFFF75CFA36
:10111000FFF750FBFFF796FEFFF72AFAFFF724F9D7
:1011200000F010F8FFF752FD0620FFF7CBFCFBE7BD
:1011300001680A7C90F83810406B5143C900FEF7F3
:10114000FABF000010B5094B094A0A490A4800F0E5
:1011500075F9094800F069FB0021074800F075FBAC
:10116000BDE810400448FFF7E3BF0000F315000896
:10117000E118000860100108A00200202DE9F843E2
:101180008146089C1E46101980B20090881983B2CF
:1011900015468846484600F0D9F800280ED00027AA
:1011A000002C0BD033462A4641464846009700F0B3
:1011B00007F86D1C641EADB2A4B2F1E7BDE8F88378
:1011C0003FB581B0044690F88C00089900283AD0C9
:1011D000BDF81000002836D0012811D9022902D00C
:1011E000032907D00CE0BDF80820101A401CADF808
:1011F000080005E0BDF80C20101A401CADF80C00EA
:1012000011F0010521D0B4F84810BDF80800814262
:1012100019D8B4F84A10814215D9B4F84E30B4F850
:101220004C2004A90DF10C0000F0AAF900280AD006
:101230000095206BBDF81030BDF80C208568BDF816
:1012400008102046A84705B030BDB4F84C10BDF8D2
:101250000C008142F7D8B4F84E108142F3D9B4F8AB
:101260004A30B4F8482004A902A8DDE72DE9FF4F71
:1012700081B090F89270DDF838901D468846064699
:101280009FB10020834603984146401C80B20090E5
:1012900008EB050083B23046039A00F057F80028A7
:1012A0002BD001244FF0000A23E00120EAE700BF21
:1012B00099F80000204202D086F8927004E096F877
:1012C000910048B986F892B00123CDF800A04146BC
:1012D0003046039AFFF774FF08F101001FFA80F807
:1012E000600010F0FF0402D1012409F101096D1E14
:1012F000ADB2002DDCD186F8927005B0BDE8F08F5C
:101300002DE9F84F8246DDE90A57D81DC0F3CC0815
:10131000501980B21C460090081983B216468946BF
:10132000504600F013F800280ED00BE0234632465A
:10133000494650460097FFF799FF761C6D1E4744BB
:10134000B6B2ADB2002DF1D1BDE8F88F70B50D4643
:101350001E460446B0F84E10B0F84C00049B00F056
:1013600069F9002809D0B4F84A10B4F848003346A7
:101370002A46BDE8704000F05DB970BD10B5044666
:1013800000F0E7F92046BDE8104000F056BA80F8BA
:101390009210032902D3012180F89210704710B5F2
:1013A0000446806D884209D004F17400A16500F004
:1013B0009BF92046BDE8104000F082B810BD80F8CF
:1013C0007010704780F86D10704700000149C165CA
:1013D00070470000DB1500080021A0F85010A0F8AD
:1013E00054104FF6FF71A0F85210A0F85610016B80
:1013F0004968084770B5044600250498A565E3626E
:10140000616384F8382084F8395084F86D5084F88A
:10141000915084F88D50012184F8921084F8931033
:1014200020630168204688472046FFF7D5FF204605
:10143000FFF7CCFF84F8705070BD00007CB50C46FF
:10144000009313460546084A084900F006FA01A829
:1014500000F044F90146064B00949DF8042028460C
:10146000FFF7C8FF7CBD0000851A0008AD1B00080F
:101470004D1600082DE9FC410E4607460021FFF7F6
:1014800086FF0D4D40240094E889234681B2002256
:101490003846FFF773FE0948402300EB0630CDE9DC
:1014A0000040E889002281B23846FFF729FF38461C
:1014B000BDE8FC41FFF762BF76020020E42500088A
:1014C00010B5816D00291AD090F9813080F88E30E6
:1014D00090F9822080F88F2090F88D1000290ED08E
:1014E00001290DD090F97E4090F980100C449C4267
:1014F00001DD80F88E408A4201DD80F88F1010BD3A
:1015000090F983108B4201DA80F88E1090F98410E4
:10151000F1E738B50446B0F856000090B4F8523000
:10152000B4F85420B4F850102046FFF70FFF18B35A
:10153000012084F88C00B4F84810B4F850008142BF
:1015400001D2A4F84800B4F84A10B4F8520081421D
:1015500001D9A4F84A00B4F84C10B4F85400814200
:1015600001D2A4F84C00B4F84E10B4F856008142F1
:1015700001D9A4F84E0038BD002084F88C0038BD95
:1015800030B504880D882544ADB2AC4205D99C42E3
:1015900002D25D1EADB200E014469C4201D29542DB
:1015A00001D8002030BD944200D214469D4200D99B
:1015B0001D460480281B0880012030BD38B5C58F2A
:1015C000049C0094521BC46A92B2A04738BD38B53F
:1015D000049C0094FFF7F2FF38BD002070470844D8
:1015E0004FF6FF720178407802EA0121084480B288
:1015F00070474D2919D00CDC2B2916D004DC292981
:1016000013D02A290ED110E02D290ED04C2909D152
:101610000BE0002250290AD0512908D0522906D0C7
:10162000532904D0012180F827100120704780F849
:101630002720FAE78A4205D2834201D89A4203D989
:10164000012070478342F9D800207047F0B502F0BE
:1016500007060124B440002590F892E0E7B2DDF8D7
:1016600014C02C46BEF1010F01D83D4600D03C46C7
:10167000076822F00702BCF1000F3F7C07FB02F76E
:10168000BAB2476B3A44114409D108785B1E28432B
:1016900060401B0401F8010B1B0CF6D1F0BD0A7869
:1016A000761C2A436240A3F101030A7016F0070674
:1016B0009BB206D06A06150E6206140E002BEED100
:1016C000F0BD428F114490F89220012A03D800BF48
:1016D0004FF00105F2D04FF00104EFE7082101704F
:1016E000004870474805002070B505460878287006
:1016F000487868708878A870C878E8700879287188
:101700004879687188790C46A871E079E871207A87
:101710002872607A6872A07AA872E07AE872207BF8
:101720002873607B6873A07BA873E07BE873207CE0
:10173000287411212046FFF752FF688213212046AA
:10174000FFF74DFFA88215212046FFF748FFE882EA
:1017500070BD2DE9F843064690F8387090F839507E
:10176000006800244FF6FF7890F8119031683046F9
:101770002A460B7C716B04FB03FC1FFA8CFC08EA05
:10178000CC0C61440091002100F040F8641C6D1CF9
:10179000E4B2EDB2BC4201D24D45E7D3BDE8F883D7
:1017A000F0B590F838204FF6FF75036805EAC201DE
:1017B0008187197C05EAC101418790F8394005EA23
:1017C000C401C1875E7CA718B74201D9321B92B20F
:1017D00005EAC20220F8401F11444180998A8180A5
:1017E000D98AC180F0BDFFF7DBBF0021A0F8481007
:1017F000B0F84410A0F84A10B0F84010A0F84C100F
:10180000B0F84210A0F84E10FFF783BE1CB58DF85B
:1018100005108DF80620049C8DF8043000940122F8
:1018200084686B460F21A0471CBD30B48468002338
:10183000A44630BC1A460A21604730B484680023AD
:10184000A44630BC1A461021604730B48468002397
:10185000A4460A4630BC0B2160472DE9F0411546ED
:101860000E460446069F00F009F86761A660C4E9C9
:1018700003532046BDE8F04100F012B8002140F8C3
:10188000081B064A026042608260C260C1768177AE
:101890000161FF21017780F820107047B11C00081A
:1018A00030B484680023A44630BC1A46092160473E
:1018B00030B404690023A44630BC1A46192160479D
:1018C00013B50122046901AB1721A0471CBD30B438
:1018D00004690023A44630BC1A4618216047000062
:1018E0002DE9FF41354C1D46164618293ED004DC33
:1018F00014291CD0172904D114E0192957D0202904
:1019000059D0002004B0BDE8F08100BF15F8011BDC
:101910002046FEF7DFFD39462046FEF70EFD002883
:10192000F9D000E0264F761EF6B2EFD243E0012157
:101930004805FFF711F80020ADF804004BF6FF70E2
:10194000ADF806001020ADF808008001ADF80A00DF
:101950000001ADF80C001B48009069462046FEF7D8
:1019600053FD01212046FEF7F4FC24E04FF400353E
:1019700029462046FEF732FD0028F9D101212046F4
:10198000FEF718FD104D20462946FEF7D6FC00282C
:10199000F9D0002278212046FEF794FD084DAD1EB7
:1019A00029462046FEF7C9FC0028F9D003E00121B2
:1019B0002046FEF709FD0120A4E700000054004086
:1019C00084000700801A06000100030030B4C468D8
:1019D0000023A44630BC1A461921604730B4C468BD
:1019E0000023A4460A4630BC1621604730B4C468C0
:1019F0000023A4460A4630BC1521604730B4C468B1
:101A00001346A4460A4630BC17216047F8B50C4679
:101A10004FEA000514F8011B182924D00EDC152903
:101A200019D0162917D0172923D120788DF8000056
:101A30006A4601212846FFF7E1FF0AE0192912D082
:101A4000FE2916D122788DF800202921284600F0A1
:101A500031F9641CDEE722788DF80020EE6800235F
:101A60002846B047F5E70023EE681A462846B047F7
:101A7000D0E7F8BD30B4C4680023A44630BC1A4691
:101A8000182160472DE9F041DFF8B0801446064682
:101A9000A1F11402002798F800001D46062A4AD238
:101AA000DFE802F02F03161B3E4310B13046FFF76C
:101AB000FFFE3046FFF70BFF00213046FFF700FF27
:101AC00021463046FFF7FCFE012088F8000029E09F
:101AD00021463046FFF7F4FE24E050B13046FFF7D0
:101AE000E7FE06E01821304600F0EAF8183CE4B2C0
:101AF0001835182C2A46F5D82146304600F0E0F873
:101B00000EE096F82400FF2802D1782086F8240001
:101B100037692B4622463046BC46BDE8F041604757
:101B200088F800700120BDE8F0810028F8D0304628
:101B3000FFF7BEFEF4E70020F5E700009A02002060
:101B400070B50023456904461A462821A84700239A
:101B5000E5681A4614212046A84701224B21204659
:101B600000F0A8F8206829210279204600F0A2F8A8
:101B700000224B21204600F09DF82068292102799F
:101B8000204600F097F801224B21204600F092F801
:101B90002068292142792046BDE8704000F08AB8CB
:101BA0000160897C80F822107047000070B50C46F7
:101BB000054600F019F888B9092C0BD00A2C01D081
:101BC000002070BD2846FFF7BBFF05492846FFF7F8
:101BD0001DFF03E003492846FFF7E2FF012070BD27
:101BE00092100108941101082DE9F0411E46144697
:101BF00005460B2908D00D290ED00E291ED00F291D
:101C000027D00020BDE8F0811AB12849FFF7FEFE79
:101C10004AE02649491FF9E74AB124490C31FFF748
:101C2000F5FE286890F8130085F822003CE01F4973
:101C3000491DFFF7EBFE2868807CF5E7FFF71AFFE8
:101C400081212846FFF7D2FE21462846FFF7C6FE2F
:101C500027E0FFF70FFF707995F8221001EBC00025
:101C6000C7B240212846FFF7C1FE102040EA1711F5
:101C70002846FFF7BBFE07F00F012846FFF7AEFE30
:101C8000B07940F0B0012846FFF7A8FE30793268FD
:101C9000C006010E2846FFF7B1FE641E14F0FF04D3
:101CA000F4D12846FFF792FE0120ABE7711001083E
:101CB0000020704730B444690023A44630BC60471C
:101CC0002DE9F04115460E460446FFF700FE40217F
:101CD0002046FFF7F5FD27692B463246172120469F
:101CE000B8472046BDE8F041FFF7E2BD0288114445
:101CF00001807047000000000000000000000000AC
:101D000000000000000000F80000000000000033A8
:101D10003000000000100C06100C0600000000004F
:101D20000000000040C07840C0784000043F040438
:101D30003F040400007088FC08300000001820FFF9
:101D4000211E0000F008F000E018000000211C0334
:101D50001E211E0000F00888700000001E212324B0
:101D60001927211010160E000000000000000000CE
:101D700000000000000000E018040200000000075E
:101D80001820400000020418E00000000040201865
:101D900007000000404080F0804040000202010F38
:101DA00001020200000000F0000000000101011F1C
:101DB00001010100000000000000000080B0700080
:101DC0000000000000000000000000000001010110
:101DD000010101010000000000000000003030009F
:101DE0000000000000000000806018040060180679
:101DF0000100000000E010080810E000000F1020B3
:101E000020100F00001010F8000000000020203FFC
:101E10002020000000700808088870000030282486
:101E20002221300000300888884830000018202027
:101E300020110E000000C02010F80000000704244C
:101E4000243F240000F80888880808000019212091
:101E500020110E0000E0108888180000000F1120EB
:101E600020110E0000380808C83808000000003FA4
:101E7000000000000070880808887000001C222103
:101E800021221C0000E010080810E00000003122B0
:101E900022110F00000000C0C00000000000003050
:101EA00030000000000000800000000000008060A2
:101EB0000000000000008040201008000001020423
:101EC000081020004040404040404000040404040A
:101ED00004040400000810204080000000201008C6
:101EE00004020100007048080808F00000000030FB
:101EF00036010000C030C828E810E0000718272489
:101F000023140B000000C038E0000000203C230236
:101F10000227382008F8888888700000203F202099
:101F200020110E00C03008080808380007182020CB
:101F30002010080008F808080810E000203F2020C2
:101F400020100F0008F88888E8081000203F2020A3
:101F50002320180008F88888E8081000203F200097
:101F600003000000C03008080838000007182020CF
:101F7000221E020008F808000008F808203F21018E
:101F800001213F20000808F8080800000020203F39
:101F90002020000000000808F8080800C0808080A9
:101FA0007F00000008F888C028180800203F2001A2
:101FB0002638200008F8080000000000203F2020FC
:101FC0002020300008F8F800F8F80800203F003F13
:101FD000003F200008F830C00008F808203F20002B
:101FE00007183F00E01008080810E0000F1020203C
:101FF00020100F0008F808080808F000203F210111
:1020000001010000E01008080810E0000F18242467
:1020100038504F0008F8888888887000203F2000DA
:10202000030C302000708808080838000038202190
:1020300021221C00180808F8080818000000203F9A
:102040002000000008F808000008F808001F202001
:1020500020201F000878880000C8380800000738D2
:102060000E010000F80800F80008F800033C070023
:10207000073C0300081868808068180820302C038B
:10208000032C30200838C800C83808000000203F62
:102090002000000010080808C83808002038262151
:1020A00020201800000000FE020202000000007F55
:1020B00040404000000C30C0000000000000000163
:1020C0000638C00000020202FE000000004040404E
:1020D0007F00000000000402020204000000000073
:1020E00000000000000000000000000080808080F0
:1020F00080808080000202040000000000000000D8
:102100000000000000008080808000000019242270
:1021100022223F2008F8008080000000003F1120AC
:1021200020110E000000008080800000000E1120B1
:1021300020201100000000808088F800000E11208F
:1021400020103F200000808080800000001F22229D
:1021500022221300008080F0888888180020203F09
:10216000202000000000808080808000006B94941C
:102170009493600008F8008080800000203F2100D8
:1021800000203F2000809898000000000020203FA1
:1021900020200000000000809898000000C080808F
:1021A000807F000008F8000080808000203F24022B
:1021B0002D302000000808F8000000000020203F1B
:1021C000202000008080808080808000203F2000D0
:1021D0003F20003F8080008080800000203F210061
:1021E00000203F200000808080800000001F202011
:1021F00020201F00808000808000000080FFA12040
:1022000020110E000000008080808000000E112050
:1022100020A0FF80808080008080800020203F21DF
:102220002000010000008080808080000033242492
:1022300024241900008080E0808000000000001F3E
:10224000202000008080000000808000001F2020EF
:1022500020103F20808080000080808000010E30B0
:102260000806010080800080008080800F300C0311
:102270000C300F0000808000808080000020312E14
:102280000E312000808080000080808080818E70F0
:102290001806010000808080808080000021302CA2
:1022A0002221300000000000807C020200000000BB
:1022B000003F404000000000FF0000000000000060
:1022C000FF0000000002027C800000000040403F50
:1022D00000000000000601010202040400000000EA
:1022E00000000000000000000000000000FC0100F1
:1022F00000FF0300809F0700C0030E00E0010E00F6
:10230000701C0C0038360C0038230C0018210E000D
:102310001C310E001C1F07001C000E001CC01C00FE
:1023200038807D0078307B00F07FE601E0FFEC0133
:1023300000C399070080B3070000670700004E0E36
:1023400000009C1C0000B8390000703B0000E01E3B
:102350000000C01F0000801F0000801F0000000060
:10236000000000000000000000000000000000006D
:10237000000000000000000000000000000000005D
:10238000000000000000000000000000000000C08D
:1023900007000000000000C007000000000010E07F
:1023A0000700000000003CE00738000000007EE06D
:1023B00007FC00000000FEF00FFE00000000FEFF22
:1023C000FF7F00000000FCFFFF7F00000000FCFF1B
:1023D000FF3F00000000FC3FFC3F00000000FC034A
:1023E000C03F00000006FE00007F0000001E3F000E
:1023F00000FC700000FF1F0000F8FF0000FF070056
:1024000000E0FF0000FF078003E0FF0100FE038EF5
:1024100073C0FF0000FC01FE7F807F0000F801FE1A
:102420007F803F0000F8003C7C001F000078E00F38
:10243000F0071E000078E007E0071E000078E003C8
:10244000C0071E00003CC00180033C00E03FC0010B
:102450008003FC03E03FF0010003FC07E03FF001D4
:10246000000FFC07E03FF001000FFC07E03FC00158
:10247000000FFC07803FC0018003FC07003CC00147
:1024800080033C000078E003C0071E000078E007EE
:10249000E0071E000078E01FF0071E0000F800FEB5
:1024A0007F041F0000FC00FE7F001F0000FE01FEF5
:1024B0007F803F0000FF01CF71807F0080FF03C05D
:1024C00001C0FF0000FF070000E0FF0000FF0F0059
:1024D00000F0FF00000E1F0000F8780000007E00F2
:1024E000007E60000000FC01803F00000000FC074F
:1024F000E03F00000000FCFFFF3F00000000FEFF87
:10250000FF3F00000000FEFFFF7F000000007FF0A3
:102510000F7F000000003FE0077E000000001CE08D
:10252000073C0000000000E007080000000000E099
:1025300007000000000000E00300000000000000B1
:10254000000000000000000000000000000000008B
:10255000000000000000000000000000000000007B
:10256000000000000000000000000000000000006B
:102570000000000000E00700002004000027E40045
:10258000803DBC01C0100803C000000380000001B2
:102590008001800180E18701F0300C0F10100808E5
:1025A000101008081010080810100808F0300C0F60
:1025B00080E087018001800180000003C0000002EC
:1025C000C0000003803DBC010027E400002004009F
:1025D00000E0070000000000000000000000000014
:1025E00000000000FFFFFFFFFFFFFFFFFFFFFFFFF7
:1025F000FFFFFFFFFFFFFFFFFFFFFFFFFFFFFFFFEB
:10260000FFFDFFFFFFFFFF00FFFCFFFFFFFF7FFF5E
:10261000FCFBFFFFFFFFFFFFF3FFFFFFFFFFFFFFDD
:10262000E7FFFFFFFFFF7FC0CFFFFFFFFFFF1F1F81
:102630009EFFFFFFFFFF070FBCFFFFFFFFFFC3036E
:1026400078FFFFFFFFFFF101F0FFFFFFFFFFF80141
:10265000E0FFFFFFFFFFFE00E0EFFFFFFF7FFE0058
:10266000C0EFFFFFFF7F7F00C0FFFFFFFF3F7F0046
:1026700080FFFFFFFFBF7F0080FFFFFFFFBF7F00E6
:1026800080FFFFFFFFBF7F0080FFFFFFFFBF7F00D6
:1026900080FFFFFFFFBF7F0080FFFFFFFFBFFF0046
:1026A00080FFFFFFFFBFFF0080FFFBFFFF3FFF0139
:1026B00080FFFBFFFF7FFF01C0FFFFFFFF7FFE03E7
:1026C000C0FFFFFFFFFFFE0F00FFFFFFFFFFFC3F0C
:1026D000E4FEFFFFFFFFF9FFF7FCFFFDFFFFF3FF45
:1026E000FBFAFFF3FFFFE7FCFCF5FFFBFFFF1F38E2
:1026F000FECBFFF7FFFF7FC0FFD7FFFFFFFFFFEF1E
:10270000FFB7FFFFFFFFFF6FFFF7FFFFFFFFFDEFCB
:10271000FF87FFFFFFFFFBEF3EDFFEFFFFFFFBEF4B
:10272000DEDEFDFFFFFFF7EFDE8EFDFFFFFFEFFFB9
:102730009DB6FFFFFFFFEFDF3D7FFF9FFFFFDFDF66
:10274000F97FFFFFFFFF9F3FFA7FFFFFFFFFBFBF44
:102750009777FFDFFFFF7FBFE76FFF9FFFFF7F7E62
:10276000E98FFEBFFFFFFFFEDECFFD7FFFFFFEFD17
:102770009FC7FEFFFF7FFBF93F3BFFFFFFFFFBFB18
:10278000FF9CFFFFFFFFFDF7FFCDFFFFFFFFFFE710
:10279000FFF1FFFFFFFFFFFFEFFFFFFBFFFFFFFF6B
:1027A000DFFFFFFBFFFFFFFFDFFFFFFFFFFFFFFF7D
:1027B000BFFFFFFFFFFFFFFFFF7FFFFFFFFFFFFFE9
:1027C000FFFFFEFFFFFFFFFFFFFFFEFFFFFFFFFF1B
:1027D000FFFFFFFFFFFFFFFFFFFFFFFFFFFFFF7F89
:1027E000FFFFFFFF000000000000000000000000ED
:1027F00000000000000000000000000000000000D9
:1028000000000000000000000000000000000000C8
:1028100000000000000000000000000000000000B8
:1028200000000000000000000000000000000000A8
:1035E00000000000FFFFFFFFFFFFFFFFFFFFFFFFE7
:1035F000FFFFFFFFFFFFFFFFFFFFFFFFFFFFFFFFDB
:10360000FFFFFFFFFFFFFFFFFFFFFFFFFFFFFFFFCA
:103610003FFFFFFFFFFFFFFF3FFFFFFFFFFFFFFF3A
:10362000FFFFFFFFFFFF7F80FFFFFFFFFFFF9F3FC9
:10363000BEFFFFFFFFFFE7FFBCFFFFFFFFFFF3073A
:1036400078FFFFFFFFFFF101703EFFFFFFFFF1007A
:10365000E03EFFFFFFFF7800E0DDFFFFFF7F3C0063
:10366000C0F9FFFFFF7F3C00C0FBFFFFFF7F1E0094
:1036700080F7FFFFFF3F1F0080E7FFFFFFBF1F0036
:1036800080EFFFFFFFBF1F0080DFFFFFFFBF1F00B6
:1036900080DFFFFFFFBF1F0080BFFFFFFFBF1F00D6
:1036A000807FFBFFFFBF1F00807FFBFFFF7F1F00AE
:1036B00080FFFFFFFF7F3F00C0FFFFFFFF7F3E0057
:1036C00080FFFFFFFFFF7E0060FFFFFFFFFFFC00AA
:1036D000E0FCFFFFFFFFF90370FBFFFFFFFFF39F1D
:1036E000FBF6FFFFFFFFE7FFFCEDFFFFFFFF1F3FC4
:1036F000FEDBFFFEFFFF7FC0FF97FFFEFFFFFFF730
:10370000FFA3FFFFFFFFFFF7FFEDFFFFFFFFFF77C7
:10371000FF8EFFFFFFFDFF77FFCDFFFFFFFFFF776E
:10372000FFDBFFFFFFFFFFEFC6CFFFFFFFFFFFEF56
:10373000B6B7FBFFFFFFFFEFB7BFF7FFFFFFFFDFEE
:10374000CCBFE7FFFFFDFF1FFBFFFFFFFFFFFFBF3A
:10375000BBFFFFFFFFFFFFBFD777FFFFFFFFFF3E6E
:10376000E327FEFFFFFFFF7EECCFFDFFFFFFFFFD26
:103770009FC7FEFFFFFFFFF97F5BFFFFFFFFFFFB20
:10378000FF9CFFFFFFFFFFF7FFCFFFFFFFFFFFE7FC
:10379000FFE5BFFFFFFFFFEFFFFBFFFFFFFFFFDFC7
:1037A000FFFFFFFFFFFFFF9FFFFFFFFFFFFFFFBFC9
:1037B000FFFFFFFFFFFF3F7FFFFFFFFFFFFFFF7EDA
:1037C000FFFFFFFFFFFFFFFFFEFFFFFFFFFFFFFF0A
:1037D000FFFFFDFFFFFFFFFFFFFDFBFFFFFFFFFF01
:1037E000FFFBFFFF000000000000000000000000E1
:1037F00000000000000000000000000000000000C9
:1038000000000000000000000000000000000000B8
:1038100000000000000000000000000000000000A8
:103820000000000000000000000000000000000098
:1045E00000000000FFFFFFFFFFFFFFFFFFFFFFFFD7
:1045F000FFFFFFFFFFFFFFFFDFFFFFFFFFFFFFFFEB
:104600006FFFFFFFFFFFFFFF1FFFFFFFFFFFFFFF2A
:10461000FFEFFFFFFFFFFFFFFFFFFFFFFFFFFFFFBA
:10462000FFFFFFFFFFFF7F80FFFFFFFFFFFF0F0088
:10463000FEFFFFFFFFFF278EFCFFFBFFFFFFF3FFE7
:10464000FBFFFFFFFFFFF9FFF7FFFFFFFFFFFC800E
:10465000EFFFFFFFFFFF3E00CEFFFFFFFF7F1E00CB
:10466000DCFFFFFFFF770F00D8FFFFFFFF370F00D2
:10467000B0FFFFFFFFB30700B0FFFFFFFFBB070066
:10468000A0FFFEFFFFBB0300A0FFFFFFFFBB030077
:10469000A0FFFFFFFFBB0300A0FFFFFFFFBB030066
:1046A000A0FFBFFFFFBB0300A0FFBFFFFF7703001A
:1046B00080FFFFFFFF77070080FFFFF7FF6706001F
:1046C00040FEFFFFFFEF0E00E0FDFFFFFFDF0C00ED
:1046D000E0F3FFFFFF9F19007067FFFFFFBF33008C
:1046E000F84CFFFFFF7FE700FC99FEFFFF7F9E0F66
:1046F000FF9BFDFFFFFF7EC0FF67FDFFFFFFFDF794
:10470000FFEFFBFFFFFFFDF7FF69F3FFFFFFFBB7C5
:10471000FF16F7FFFFFFF7B7FFB6EFFFFFF1F7BF99
:10472000FF98CFFFFFEDFF6FE78FDFFFFFEDFF6F1C
:10473000DB67BFFFFFF3FFEFDA7FFFBFFFFFFFDFA6
:10474000DEFFFDFFFFFFFF1FE57FF9FFFFFFFFBF5C
:10475000BB7FFBFFFFFFFFBFC373F6FFFFFFFF7FC2
:10476000EC37E5FFFFFFFFFFDECFFDFFFFFFFFFFA1
:10477000B3C7FCFFFFFBFFFF7710FEFFFFFFFFFF4C
:10478000EF9DFBFFFFFFFFFFCFCDF7FFFFFFFFFF19
:10479000DFE5F7FFFFFFFFFFFFFBFFFFFFFFFFFF6F
:1047A000FFFFFFFFFFFFFFFFFFFFFFFFFFFFFFFF19
:1047B000FFFFFFFFFFFFFFFFFFFFFFFFFFFFBFFF49
:1047C000FFFFFFFFFFFFFFFFFFFFFFFFFFFF7FFF79
:1047D000FFFFFFFFFFFFFFFFFFFFFFFFFFFFFFFFE9
:1047E000FFFFFFFF000000000000000000000000CD
:1047F00000000000000000000000000000000000B9
:1048000000000000000000000000000000000000A8
:104810000000000000000000000000000000000098
:104820000000000000000000000000000000000088
:1055E00000000000FFFFFFFF3FFFFFFFFFFFFFFF87
:1055F000FFFFFFFFFFFFFFFFFFFFFFFFFFFFFFFFBB
:10560000FFFFFFFFFFFFFFFFFFFFFFFFFFFFFFFFAA
:10561000FFFFFFFFFFFFFFFFFFFFFFFFFFFFFFFF9A
:10562000FFFFFFFFFFFF7F80FFF9FFFFFFFF0F205E
:10563000FEF6FFFFFFFF27EEFCF5FFFFFFFFF3FF86
:10564000FBFBFEFFFFFFF9FFF7FFFCFFFFFFFCF393
:10565000EFFFFFFFFFFF7E80CFFFFFFFFF7F1E00FA
:10566000DFFFFFFFFF7F0F00DCFFBFFFFF3F0700F3
:10567000BCFFFFFFFFBF0300B8FFFFFFFFBF03003A
:10568000B8FFFFFFFFBF0300B0FFFFFFFFBF010038
:10569000B0FFFFFFFFBB0100B0FFFFFFFFBB01003A
:1056A000B0FFFFFFFFBB0100B0FFFFFFFF370100AE
:1056B000B0FFFFFFFF77030090FFEFFFFF670300DE
:1056C00058FEFFFFFFEF0200C8FDFFFFFFDF0400F1
:1056D000ECF3FFFFFF9F0900F0E7FFFBFFBF0300B4
:1056E00078CEFFFFFF7F0700FC9DFFFFFF7F1E00BE
:1056F000FF1BFFFFFFFF7EC0FF67FDFFFFFFFDF702
:10570000FFE7FAFFFFFFFDFFFFE8F2FFFFFFFBBF30
:10571000FF5AF7FFFFFFF7AF7F97EFFFFFFFF7AFEE
:10572000FF9ACFFFFFFFEF6FF78DDFFFFFFFFF5FF8
:10573000E367BFFFFFFFFFDFDE7F3FFFFFFFFFDF0E
:10574000DC7FFFFFFFFFFF3FE17FFFFFFF3FFFBF6A
:10575000BB7FFBFFFFDFFE7FC373F6FFFFDFFEFFB4
:10576000EC37F5FFFF3FFFFFDFCFEDFFFEFFFFFF51
:10577000BFC7FCFFFDFFFFFF7F10FEFFFFFFFFFF26
:10578000FF9DFFFFFFFFFFFFCFCDFFFFFFFFFFFFED
:10579000DFE5E7FFFFFFFFFFBFFBEFFFFFFFFFFFBF
:1057A000BFFFFFFFFFFFFFFFFFFFFFFFFFFFFFFF49
:1057B000FFFFFFFFFFFFFFFFFFFFFFFFFFFFFFFFF9
:1057C000FFFFFFFFFFFFFFFFFFFFFFFFFFFFFFFFE9
:1057D000FFFFFFFFFFFFFFFFF7FFFFFFFFFFFFFFE1
:1057E000FFFFFFFF000000000000000000000000BD
:1057F00000000000000000000000000000000000A9
:105800000000000000000000000000000000000098
:105810000000000000000000000000000000000088
:105820000000000000000000000000000000000078
:1065E00000000000FFFFFFFFFFFFFFFFFFFFFFFFB7
:1065F000FFFFFFFFFFFFFFFFFFFFFFFFFFFFFFFFAB
:10660000FFFFFFFFFFFFFF00FFFFFFFFFFFF7FFF19
:10661000FCFFFFFFFFFFFFFFF3FFFFFFFFFFFFFF99
:10662000E7FFFFFFFFFF7F80CFEFFFFFFFFF1F3C74
:106630009ECFFFFFFFFF07FEBCFFFFFFFFFFC3FF73
:106640007BFFFFFFFFFFE1FFF7FFFFFFFFFFFCFF07
:10665000EFFFFFFFFFFFFEFFCFFFFFFFFF7F3EFCCF
:10666000DFFFFFFFFF7F0FE0DFFFFFFFFF3F03C004
:10667000BF7FFEFFFFBF0180BFBFFDFFFFBF010067
:10668000BFFFFDFFFFBF0000BE7FBEFFFF3F00005A
:10669000BEFFBFFFFF3F0000BEFFFFFFFF3F000048
:1066A000BCFFFFFFFF3F00008CFFFFFFFF7F0000EC
:1066B0008CFFFFEFFF7F00009CFFFFFFFF7F0000CC
:1066C0001CFFFFFFFFFF0000CEFCFFFFFFFF0000ED
:1066D000EEFBFFFFFFFF0100F6F7FFFFFFFF0300E8
:1066E0003BCFFFFFFFFF07007C9EFFFFFFFF1F0068
:1066F000FE9DFFFFFFFF7FC0FF6BFFFBFFFFFFEF74
:10670000FFF3FEFBFFFFFFEFFF77FFFFFFFFFBDF66
:106710007F2EFFFFFFFFF79FBFDCEFFFFFFFF79F1D
:10672000BFDDCFFFFFFFEF3FBFADDFFFFFFFDF7F2D
:106730007FB6BFFFFFFFDFBFF87F3FFFFFFFBFBF99
:10674000F67F7FFFFFFF3F7FFD7FFFFFFFFF7F7F24
:10675000BB7FFFFFFFFFFFFEC27DFEFFFFFFFFFCD1
:10676000EDBBFDFFFFFFFFFDDFC7EDFFFFFFFFFB01
:10677000BFE7DEFFFFFFFFFF7F60FFFFFFFFFFFFC1
:10678000FF9DFFFFFFFFFFFFFFEDFFFFFFFFFFFF8D
:10679000FFF3FFFFFFFFCFFFBFFFEFFFFFFEFFFF96
:1067A0003FFFDFFFFFFDBFFFFFFFFFFFFFFFDFFF3B
:1067B000FFFFFFFFFFFFFFFFFFFFFFFFFFFFFFFFE9
:1067C000FFFFFFFFFFFFFFFFFFFFFFFFFFFFFFFFD9
:1067D000FFFFFFFFFFFFFFFFFFFFFFFFFFFFFFFFC9
:1067E000FFFFFFFF000000000000000000000000AD
:1067F0000000000000000000000000000000000099
:106800000000000000000000000000000000000088
:106810000000000000000000000000000000000078
:106820000000000000000000000000000000000068
:1075E00000000000FFFFFFFFFFFFFFFFFFFFFFFFA7
:1075F000FFFFFFFFFFFFFFFFFFFBFFFFFFFFFFFF9F
:10760000FFFFFFFFFFFFFF03FFFFFFFFFFFFFFFF86
:10761000FCFFFFFFFFFFFFFFF3FFFFFFFFFFFFFF89
:10762000E7FFFFFFFFFF7F80CFFFFFFFFFFF1F3F51
:107630009EFFFBFFFFFF87FFBCFFFFFFFFFFC3FFB6
:107640007BFFFFFFFFFFF1FF77FEFFFFFFFFF8FF6C
:10765000EFFEFFFFFFFFFCFFCFFDFFFFFF7FFEFF01
:10766000DFF9FCFFFF7F1FFEDFFFFCFFFF3F03F0A2
:10767000BFFFFFFFFFBF01E0BFFFFFFFFFBF00C075
:10768000BFFFFFFFFF3F0080BFFFFFFFFF3F008006
:10769000BFFFFFFFFF3F00009FFFFFFFFF3F000016
:1076A0009FFFEFFFFF3F00008FFFD7FFFF7F00002E
:1076B0009EFFDFFFFF7F0000DEFFC7FFFF7F0000B0
:1076C0009EFFFFF3FFFF00004FFEFFFFFFFF0000E4
:1076D000EFFDFFFFFFFF0100F7F3FFFFFFFF038058
:1076E000FBE7FFFFFFFF07803CDFFFFFFFFF1F00FF
:1076F000FE9EFFFFFFFF7FC0FF6DFFFFFFFFFFEF5D
:10770000FF73FFFFFFFFFFEFFF77FFFFFFFFFFDFCD
:10771000FF37FFFFFFFFFF9F3F8FFFFFFFFFFF9F31
:10772000DFCEFFFFFFFFFF3FFFAEDFFFFFFFFF7F6B
:107730005FB6BFFFFFFFFFBF3C7B3FFFFFFFBFBF49
:10774000F87F7FFFFFFF3F7FFB7FFFFEFFFF7F7F15
:10775000BBFFFFFFFFFFFFFEC27DFEFFFFFFFFFC41
:10776000EDB9FDFFFFFFFFFDCFC3EDFFFFFFFFFB07
:107770009FE3DEFFFFFFFFF37F63DFFFFFFFFFF706
:10778000FF9CBFFFFFFFFFEFFFEDFFFFFFFFFFFFCE
:10779000FFF3FFFFFFFFFFFFFFFFFFFFFFFFFFFF05
:1077A000FFFFDFFFFFFFFFFF7FFFFFFFFFFFFFFF89
:1077B000FFFFFFFFFFFFFFFFFFFFFFFFFFFFFFFFD9
:1077C000FFFFFFFFFFFFFFFFFFFFFFFFFFFFFFFFC9
:1077D000FFFFFFFFFFFFFFFFFFFFFFFFFFBFFFFFF9
:1077E000FFFFFFFF0000000000000000000000009D
:1077F0000000000000000000000000000000000089
:107800000000000000000000000000000000000078
:107810000000000000000000000000000000000068
:107820000000000000000000000000000000000058
:1085E00000000000FFFFFFFFFFFFFFFFFFFFFFFF97
:1085F000FFFFFFFFFFFFFFFFFFFFFFFFFFFFFFFF8B
:10860000FFFFFFFFFFFFFFFFFFFFFFFFFFFFFFFF7A
:10861000FFFFFFFFFFFFFFFFFFFFFFFFFFFFFFFF6A
:10862000FFFFFFFFFFFF7F80FFFFFFFFFFFF9F3F79
:108630009E7FFFFFFFFFE7FFBCFFFCFFFFFFF3FF95
:108640007B7FFEFFFFFFF1FF77FEFDFFFFFFF8FFDF
:10865000EFFEFFFFFFFFFCFFCFFDFFFFFF77FCFFFB
:10866000DFF9FFFFFF77FEFFDFFBFFFFFF3BFFFFB1
:10867000BFF7FFFFFFBBFFFFBFF7FFFEFF3B80FF22
:10868000BFEFFFFFFF3B00FE9FDFFFFFFF3B00FC54
:108690009FDFFFFFFF3B00F89FBFFFFFFF3B00F0A6
:1086A0009F7FFFFFFF3B00F0BF7F3FFFFF7300E0B6
:1086B000BFFFBFFFFF7F00E01FFFFFFFFF7F00E066
:1086C0009FFCFFFFFFFF00E0CFFDFFFFFFFF00E08B
:1086D0002FFBFFFFFFFF01E0F7F6FFFFFFFF03E0C7
:1086E000FBF1FFFFFFFF07E0FCE7FFF9BFFF1F20E3
:1086F000CEEFFFF7FFFF7FC0BFCFFFF6FFFFFFEF1B
:108700007FB7FFF9FFFFFFDFFFB4FFFFFFFFFFDFD2
:10871000FFB9FFFFFFFFFF9FFFDBFFFFFFFFFFBF73
:10872000FFC7FFFFFFFFFF3F87CFFFFFFFFFFF3FB9
:10873000B7B7FFFFFFFFFF7FB67BFFFFFFFFFF7FA6
:10874000CE7DFFFFFFFFFFFFFC7FFFFFFFFFFFFF6F
:10875000F9FFFFFFFFFFFFFFE17EFEFDFFFFFFFFD1
:10876000E73CFDFBFFFFFFFFDFC9FDFBFFFFFFFF56
:108770009FE3FCFFFFFFFFF37F72FEFFFFFFFFF7AA
:10878000FF8DFFFFFFFFFFEFFFED7FFFFFFFFFCF3D
:10879000FFF37FFFFFFFFFDFFFFFFFFEFFFFFFBFD6
:1087A000FFFFFFFFFFFFFFBFFFFFFFFFFFFFFF7F99
:1087B000FFFFFFFFFFFFFFFFFFFFFFFFFFFFFFFFC9
:1087C000FFFDFFFFFFFFFFFFFFFFFFFFFFFFFFFFBB
:1087D000FFFFFFFFFFFFFFFFFFFFFFFFFFFFFFFFA9
:1087E000FFFFFFFF0000000000000000000000008D
:1087F0000000000000000000000000000000000079
:108800000000000000000000000000000000000068
:108810000000000000000000000000000000000058
:108820000000000000000000000000000000000048
:1095E00000000000FFFFFFFFFFFFFFFFFFFFFFFF87
:1095F000FFFFFFFFFFFFFFFFFFFFFFFFFFFFFFFF7B
:10960000FFFFFFFFFFFFFFFFFFFCFFFFFFFFFFFF6D
:10961000FFFFFFFFFFFFFFFFFFFFFFFFFFFFFFFF5A
:10962000FFFFFFFFFFFF7F80FFFFFFFFFFFF9F3F69
:10963000FEFFFFFFFFFFE7FFFCFFFFFFFFFFF3FF62
:10964000FBF7FFFFFFFFF9FFF7FFFFFFFFFFFCFF47
:10965000E9FFDFFFFFFFFEFFCBFFFFFFFF7FFEFF06
:10966000D7FFFFFFFF7FFCFFC7FBFFFFFF7FFEFF72
:109670008FF7FFFFFF3FFEFF8FF7FFFFFFBFFFFFEB
:10968000BFEFFFFFFF3FF8FFBFDFFFFFFF3FE0FF40
:10969000BFDFFFFFFF3FC0FFBFBF7FFFFF3F80FF78
:1096A000BF7FFFFCFF3F00FFBF7FFFFEFF7F00FE8D
:1096B000BFFEFEFDFF7700FE9FFDFDFFFF7700FC74
:1096C000DFFBFDFFFFE700FCEFF7FBFFFFEF01FC17
:1096D000EFF7F3FFFFCF01F8D7EFF7FFFFDF03F856
:1096E000BBDFEFFFFFBF07F874BFFFFFFF3F1F386F
:1096F0006EBFFFFFFF7C7F80DF7EFFFF7FFBFEDF13
:109700009F7DFFFFFFFBFEFFBB79FFFFFFFCFDBF5F
:109710007B9BFF7FFFFFFBBFF7C6FFFFFFFFFBBF8A
:10972000E7EEFFFFFFFFF77F2FCDFFFFFFFFE77F94
:10973000C3CDFFFFFFFFEFFFCCDBFFFFFFFFDFFF2E
:10974000BC9DFFFFFFCF9FFF6DBEFFFFFFBFBFFFB1
:10975000F3BFFFFFFFFFFFFFC73FFEFFFFBFFFFF9E
:109760009F1FFDFFFFFFFFFF3FCFFCFFFFFFFFFF3E
:10977000FFE4FEF7FFFFFFFFFF79FFE7FFFFFFFFBB
:10978000FFBBFFFFFFFFFFFFFFCBFFFFFFFFFFFF61
:10979000FFF7FFFF3FFFFFFFFFFFFFFFDFFEFFFFC2
:1097A000FFFFFFFCDFFEFFFFFFFFFFFF3FFFFF7F2D
:1097B000FFFFFFFFFFFFFFFFFEFFFFFFFFFFFFFFBA
:1097C000FEFFFFFFFFFFFFFFFDFFFFFFFFFFFFFFAC
:1097D000FFFFFFFFFFFFFFFFFFFFFFFFFFFFFFFF99
:1097E000FFFFFFFF0000000000000000000000007D
:1097F0000000000000000000000000000000000069
:109800000000000000000000000000000000000058
:109810000000000000000000000000000000000048
:109820000000000000000000000000000000000038
:10A5E00000000000FFFFFFFFFFFFFFFFFFFFFFFF77
:10A5F000FFFFFFFFFFFFFFFFFFFFFFFFFFFFFFFF6B
:10A60000FFFFFFFFFFFFFF00FFEFFFFFFFFF7FFFE9
:10A61000FCDFFFFFFFFFFFFFF3FFFFFFFFFFFFFF79
:10A62000E7FFFFFFFFFF3F80CFFFFFFFFFFF9F3FE1
:10A630009EFFFFFFFFFFE7FFFCDFFFFFFFFFF3FFD2
:10A64000FBDFFFFFFFFFF9FFF7FFFFFFFFFFFCFF4F
:10A65000E9FFFFFFFFFFFEFFD3FFFFFFFF7FFEFFCE
:10A66000D7FFFFFFFF7FFEFF87FFFFFFFF7FFEFF9C
:10A67000BFFFFFFFFF3FFEFFBF7FFFFFFF3FFFFF6B
:10A68000BFFFFFFDFFBFFFFFBFFFFFFFFFBFFFFFDC
:10A69000BFFFFFFFFF3FFFFFBFFFFFFFFF3FFCFFCD
:10A6A000BFFFFFFFFF7FF0FFBFFFFFFFFF7FE0FF68
:10A6B000BFFFFFFFFF7FC0FFDFFFFFFFFFFFC0FF08
:10A6C0001FFEFFFFFFFF80FF8FFCFFFFFFFF81FFEB
:10A6D000EFFDFFFFFFFF01FFF7FBFFCFFFFF03FFD2
:10A6E000FBF7FFF7FFFF0FFFFCEFFFFFFFFF1F3E32
:10A6F000FCCFDFFFFFFFFFC0F9DFBFFFFFFFFFDF82
:10A70000F3BFBFFFFFFFFFBFF37F7FFFFFFFFF3FF1
:10A71000E73FFFFEFFFFFF3FCF9FFFFEFFFFFB7FF7
:10A720008ECFFFFDFFFFF77F1EE7FFFBFFCFEF7F21
:10A730001DD8FFFBFFB7EFFF6CD7FFFFFFBFDFFFA9
:10A7400070B7FFFFFFDF9FFF71BFFFFFFFFFBFFF7E
:10A7500073AFFFFFFFFF7FFF87AFFFFFFFFF7FFEAE
:10A76000DF0FFCFFFFFFFFFE3F8FFDFFFFFFFFFD41
:10A770007FE6FEFFFFFFFFF9FF79FFFFFFFFFAFB18
:10A78000FFBDFFFFFFFFFFF7FFCDFFFFFFFFFBE771
:10A79000FFE3FEFFFFFFFFFFFFFFFDFFFFFFFFFFE8
:10A7A000FFFFFFFFFFFFFFFFFFFFFFFFFFFFFFFFB9
:10A7B000FFFFFFFFFFF3FFFFFFFFFFFFFFEDFFFFC7
:10A7C000FFFFFFFFFFEDFFFFFFFFFFFFFFF3FFFFB7
:10A7D000FFFFFFFFFFFFFFFFFFFFFFFFFFFFFFFF89
:10A7E000FFFFFFFF0000000000000000000000006D
:10A7F0000000000000000000000000000000000059
:10A800000000000000000000000000000000000048
:10A810000000000000000000000000000000000038
:10A820000000000000000000000000000000000028
:10B5E00000000000FFFFFFFFFFFFFFFFFFFFFFFF67
:10B5F000FFFFFFFFFFFFFFFFFFFFFFFFFFFFFFFF5B
:10B60000FFFFFFFFFFFFFF7FFFFFFFFFFFFFFFFFCA
:10B610009CE7FFFFFFFFFFFFF3E7FFFFFFFFFFFFD9
:10B62000E7FFFFFFFFFF3F80CFFFFFFFFFFF9F3FD1
:10B630009EFFFFFFFFFFE7FFBCFFFFFFFFFFF33FA2
:10B640007BFFF3FFFFFFFDFF74FEFDFFFFFFFCFF2D
:10B65000E9FEEBFFFFFFF8FFC3FDF7FFFF7FFCFFF5
:10B66000DFF9FFFFFF7FFCFFDFFBFFFFFF3FFFFF77
:10B67000BEF7FFFFFFBFFFFFBFF7FFFFEFBFFFFFFB
:10B68000BFFFF3FFDFBFFFFFBFFFF3FFBFBFFFFF42
:10B69000BFFFFFFFFFBFFFFFBFFFFFFFFFBFFFFFBA
:10B6A000BFFFFFFFFFBFFFFFBFFFFFFFFF3FFFFF2A
:10B6B000BFFFFFFFFF7FFFFF9FFFFFFFFF7FFEFF3B
:10B6C0005FFEDFFFFFFFFEFFCFFDFFFFFFFFFCFF81
:10B6D000B7F3FFFFFFFFF9FF79E7FFFFFFFFF3FF7E
:10B6E0007CCEFFFFFFFFE77FFF9CFFFFFFFF1F9F59
:10B6F000FF99FFFFFFFF7FC0FF61FFFFFFFFFFD745
:10B70000FFE3FEFFFFFFFFD7FF67FFFFFFFFFFB76E
:10B71000FF0FFFFFFFFFFF37FFBFFFFFFFFFFF7FB1
:10B72000FF97FFFFFFFFFF6FFE89FFFFFFFFFFEFA8
:10B73000FC64FFFFFFFFFFEF7C7FFFF7FFFFFFDFF2
:10B74000987FFFEFFFF3FF1FC17FFFEFFFFFFFBFFA
:10B75000BB7FFFDFFFFF7FBFC373FEFFFFFF7F7E67
:10B76000EC37CDFFFFFFFFFEDFCFDDFFFFFFFBFD6F
:10B77000BFC7FCFFFFFFF5F97F12FEFFFFFFEDFBE8
:10B78000FF9DFFFFFFFFFFF7FFCDFFFFFFFFFFF76D
:10B79000FFE5FFFFFFFFFFEFFFFBFFFFFFFFFFDF07
:10B7A000FFFFFFFFFFFFFFDF7FFFFBFFFFFFFFBF8D
:10B7B000FFFEF7FFFFFFFF7FFFFDE7FFFBFFFF7FC0
:10B7C000FFFDFFFFF7FFFFFFFEFFFFFFFFFFFFFF94
:10B7D000FCFFFFFFFF3FFFFFFDFFFFFFFFDFFEFF5F
:10B7E000FFFFFFFF0000000000000000000000005D
:10B7F0000000000000000000000000000000000049
:10B800000000000000000000000000000000000038
:10B810000000000000000000000000000000000028
:10B820000000000000000000000000000000000018
:10C5E00000000000FFFFFFFFFFFFFFFFFFFFFFFF57
:10C5F000FFFFFFFFFFFFFFFFFFFFFFFFFFFFFFFF4B
:10C60000FFFEFFFFFFFFFFFF7FFEFFFFFFFFFFFFBC
:10C61000FFFDFFFFFFFFFFFFFFFFFFFFFFFFFFFF2C
:10C62000FFFFFFFFFFFF3F80FFFFFFFFFFFF8F6761
:10C63000BEFFFFFFFFFFE7CFBDFFFFFFFFFFF3FFE1
:10C6400079FFFFFFFFFFF9FFF1FEFFFFFFFFFCFF98
:10C65000E3F6FFFFFFFFFEFFC3E5F9FFFF7FFEFFED
:10C66000C3F9F9FFFF7FFFFF87FBFFFFFF7FFFFF9E
:10C6700087F7FFFFFF3FFFFF8FF7FFFFFFBFFFFFC2
:10C680009FEFFFFFFFBFFFFFBFDFFFFEFFBFFFFF0B
:10C69000BFDF7FFFFFBFFFFFBFBFFFFEFF3FFEFF0C
:10C6A000BF7FFFFDFF7FFEFFBF7FFFFFFF7FFCFF20
:10C6B000BFFFFFFFFF7FFCFF9FFFFFFFFFFFF8FFB4
:10C6C000DFFFFFFFFFFFF8FF8FFFFFFEFFFFFDFF14
:10C6D0006FFEFFFCFFFFF9FFF7FDFFFFFFFFF3FF1A
:10C6E000D3FBFFFFFFFFCFFFBCF7FFFFFFFF1F3FA5
:10C6F0006EE7FFFFFFFF7F805FEFFFFFFFFFFFCFD2
:10C70000DFCEFFFFFFFFFFEFBFB6FFF3FFFFFFEF3F
:10C71000BFB9FFFFFFFFFFEF7FB9FFFFFFFFFFDFA5
:10C720007FBBFFFFFFFFFFDFFF96FDFFFFFFFFBFA8
:10C73000FFCEFDFFFFFFFFBFFFBEFFFFFFFFFF7F3D
:10C740007FBFFFFFFFFFFF7F3FBFFFFFFFFFFFFF39
:10C750004EBFFFFFFFF7FFFFE43EFFFFFFFFFFFFBE
:10C76000D939FEFFFFFFFFFFBFC7FDFFFFFFFFFF40
:10C770007FE6BEFFFFFFFFF9FF70BEFFFFFFFFFB7D
:10C78000FF2D7FFFFFFFFFF7FFCDFFFFFFFFFEE75E
:10C79000FFF3FFFFFFFFFFEFFFFFFFFFFFFFFFDFE5
:10C7A000FFFFFFFFFFFFFFDFFFFFFFFFFFFFFFBFF9
:10C7B000FFFFF7FFFFFFFF7FFFFFF7FFFFFFFF7D9B
:10C7C000FFFDEFFFFFFFFFFFFEFBFFFFFFFFFF3F50
:10C7D000FCFFFFFFFFFFFFDFFCFFFFFFFFFFFFDFAF
:10C7E000FAFFFFFF00000000000000000000000052
:10C7F0000000000000000000000000000000000039
:10C800000000000000000000000000000000000028
:10C810000000000000000000000000000000000018
:10C820000000000000000000000000000000000008
:10D5E00000000000FFFFFFFFFFFFFFFFFFFFFFFF47
:10D5F000FFFFFFFFFFFFFFFFFFFFFFFFFFFFFFFF3B
:10D60000FFFFFFFFFFFFFFFFFFFFFFFFFFFFFFFF2A
:10D610009FFFFFFFFFFFFFFFFFFFFFFFFFFFFFFF7A
:10D62000FFFFFFFFFFFF7FC0FFFFFFFFFFFF9F1117
:10D63000FEFFFFFFFFFFE715FCFFFFFFFFFFF31FEC
:10D64000F8DFFFFFFFFFF91FF09FFFFFFFFFFC1F49
:10D65000E09FFFFFFFFFFE1FE07FFFFFFF77FE1F42
:10D66000C0FFFFFFFF77FF1FC0FFFFFFFF7BFF1F14
:10D6700080FFFFFFFFBBFF1F80FFFFFFFFBBFF3FE0
:10D6800080FFFFFFFFBBFF3F80DFFFFFFFBBFF7F90
:10D6900080DFFFFFFFBBFFFF80BFFDFFFFBBFFFF82
:10D6A000817F79FFFFBBFFFF877F7FFEFF33FFFF97
:10D6B0009FFFFEFFFF7FFCFFDFFFFDFFFF7FFCFF03
:10D6C000DFFFFDFFFFFFFAFFCFFFFBFFFFFFF4FFD0
:10D6D0008FFFF3FFDFFFE9FF37FFF7FFBFFFF3FF28
:10D6E000FBFEEFFFFFFFE7FFFCFDCFFFFFFF1F3F4C
:10D6F000FEFBDFFFFFFF7F80DDF7BFFFFFFFFFB314
:10D700009DF33FFFFFFFFF7DBBEDFFFFBFFFFF7DF1
:10D710007BEFFFBF1FFFFFFDF6ECFFFFBFFFFFFB2F
:10D72000EEECFFFFFFFFFFF72DEDFFFFFFFEFFF722
:10D73000DBDBFFFFFFFEFFEFDBDBFBFFFFFFFFEFAE
:10D74000B7D9F3FFFFFFFFDF77BCF7FFFFFFFF9FB6
:10D75000F7BFFFFFFFFFFFBF81BFFFFFFFFFFF7F9F
:10D760001C3FFFFFFFFFFFFF3FCEFEFFFFFFFFFF5E
:10D770007FE0FEFFFFFFFFFFFF79FFFFFFFFFFFFDF
:10D78000FFB9FFFFFFFFFFFFFFCEFFFFFFFFFFFF20
:10D79000FFF1FFFEFFFFFFFFFFFFFFFFFFFFFFFFA8
:10D7A000FFFFFFFFFFFFFFFFFFFFFFFFFFFFFFFF89
:10D7B000FFFFFFFFFFFFFFFFFFFFFFFFFFFFFF7FF9
:10D7C000FFFFFFFFFFFFFFFFFEFFDFFFFFFFFFFF8A
:10D7D000FCF7FFFFFFFFFFFFFDF7FFFFFFFFFFFF6E
:10D7E000FBFFFFFF00000000000000000000000041
:10D7F0000000000000000000000000000000000029
:10D800000000000000000000000000000000000018
:10D810000000000000000000000000000000000008
:10D8200000000000000000000000000000000000F8
:10E5E00000000000FFFFFFFFFFFFFFFFFFFFFFFF37
:10E5F000EFFFFFFFFFFFFFFFEFFFFFFFFFFFFFFF4B
:10E60000FFFFFFFFFFFFFFFFFFFFFFFFFFFFFFFF1A
:10E61000FFFFFFFFFFFFFFFFFFFFFFFFFFFFFFFF0A
:10E62000FFFFFFFFFFFF7FC0FFFFFFFFFFFF1F1880
:10E63000FEFFFFFFFFFF671EFCFFFFFFFFFFF30F63
:10E64000F8FBFFFFFFFFF90FF0FBFFFFFFFFFC07E9
:10E65000E0FFFFFFFFFFFE07E0FFFFFFFF7FFE077A
:10E66000C0FFFFFFFF7FFF07C0FFFFFFFF7FFF0728
:10E6700080FFFDFFFFBFFF0780FFF3FFFFBFFF0726
:10E6800080FFF9FFFFBBFF0F80FFF7FFFFBBFF0F0E
:10E6900080FFFFFFFFBBFF1F80FFFFFFFFBBFF3FB0
:10E6A00080FFFFFFFFBBFF7F80FFFFFFFF7BFFFFC0
:10E6B00080FFFEFFFF77FFFFC7FFFDFFFF77FEFF35
:10E6C000DFFFFDFFFFE7FEFFCFFFFBFFFFEFFCFFDC
:10E6D0008FFF97FFFFCFE9FF37FF97E7FFDF93FF3C
:10E6E000FBFEEFFFFFBF07FFFCFDCFFFFF3F1F3F1C
:10E6F000FEFBDFFFFF7F7FC0FFF7BFFFFFFFFEE3F3
:10E70000FFEF3FFFFFFCFF9BF7E97FFFFFFBFF3DB4
:10E71000F7DEFFFEFFFBFF7B6FD7FFFCFFFCFF7BFD
:10E72000DEDAFFFDFFFFFFF79CDDFFFBFFFFFFE7EA
:10E730009CDFFFFFFFFFFFEF69DFFFFFFFFFFFDF52
:10E74000F3FFFFFFFFFFFFDFF3BEF7FFFFFFFFBF9A
:10E7500067BFEFFFFFFFFF3FB3BFDFFFFFFFFE7F9E
:10E76000EC3FFFFFFF6FFCFF9FCFFEFFFFFFFEFFB1
:10E770007FE6FEFFFFFFFFFFFF71FFFFFFFFFFFFD1
:10E78000FFBBFFFFFFFFFFFFFFCBFFFFFEFFFFFF12
:10E79000FFE7FFFFFDFFFFFFFFFFFFFFFFFFFFFFA3
:10E7A000FFFFFFFFFFFFFFFFFFFFFFFFFFFFFFFF79
:10E7B000FFFFFFFFFFFFFFFFFFFFFFFFFFFFFFFF69
:10E7C000FFFFFFFFFFFFFFFFFFFFDFFFFFFFFFFF79
:10E7D000FFFFFFFFFFFFFFFFFFE7FFFFFFFFFFFF61
:10E7E000FBFFFFFF00000000000000000000000031
:10E7F0000000000000000000000000000000000019
:10E800000000000000000000000000000000000008
:10E8100000000000000000000000000000000000F8
:10E8200000000000000000000000000000000000E8
:10F5E00000000000FFFFFFFFBFFFFFFFFFFFFFFF67
:10F5F0005FFFFFFFFFFFFFFFFFFFFFFFFFFFFFFFBB
:10F60000FFFFFFFFFFFFFF00FFFFFFFFFFFF7FFF89
:10F61000FCFFFFFFFFFFFFFFF3FFFFFFFFFFFFFF09
:10F62000E7FFFFFFFFFF7FC0CFFFFFFFFFFF1F1CB4
:10F630009EFFFFFFFFFF070FFCF9FFFFFFFFC30760
:10F64000F8F9FFFFFFFFFD03F0FFFFFFFFFFFC03E3
:10F65000E0FFFFFFFFFFFE01E0FFFFFFFF7FFE0176
:10F66000C0FFFFFFFF7FFF01C0FFFFFFFF3FFF0164
:10F6700080FFFFFFFFBFFF0180FFFFFFFFBFFF0114
:10F6800080FFFFFFFFBFFF01807FFFFFFFBFFF0184
:10F69000807FFEFFFFBFFF0380FFFFFFFFBFFF0371
:10F6A00080FFFFFFFFBFFF0780FFFFFFFF3FFF0F50
:10F6B00080FFFFFFFF7FFF1FC0FFFFFFFF7FFE7F79
:10F6C000C0FFFFFEFFFFFEFF8FFF7FFEFFFFFCFF7F
:10F6D0006FFFFFFFFFFFF9FF77FEFFFFFFFFF3FF65
:10F6E000FBFCFFFFFFBF27FEFCF1FFFFFF3F1F3CBE
:10F6F000FEE3FFFFFF7F7FC0FFC7FFFFFFFFFEEFBF
:10F70000FFD7FFFFFFFFFEFFFDA7FFFFFFFFFDFF8E
:10F710007D8EFFFFFFFFFBFFBDDDFFF7FFFFFBDF80
:10F72000BDDDFFF7FFFFF7DFBB8DFFFFFFFFEFDF63
:10F730007BAEFFFBFFFFEFBFFB7FFFF7FFFFDFBFEE
:10F74000F17FFFEFFFFF9F3F767EFFEFFF1FBF7F41
:10F750008777FFDFFFFF7E7FE36FFFBFFFFF7FFE47
:10F76000EC8FFEFFFF3FFFFEDFCFFDFFFFFFFFFF40
:10F770009FC7FEFFFFFFFFFF3F3BFFFFFFFFFFFFB6
:10F78000FFDCFFFEFFF7FFFFF7CDFFFEFFFFFFFFF0
:10F79000F7F1FFFDFFFFFFFFEFFFFFFFFFFFFFFFA1
:10F7A000FFFFFFFFFFFFFFFFFFFFFFFFFFFFFFFB6D
:10F7B000FF3FFFFFFFFFFFF1FF7FFFFFFFFFFFFBAB
:10F7C000FFFFFFFFFFFFFFFFFFFFFFFFFFFFFFFF49
:10F7D000FFFFFFFFFFFEFFFFFFFFFFFFFFFDFFFF3C
:10F7E000FFFFFFFF0000000000000000000000001D
:10F7F0000000000000000000000000000000000009
:10F8000000000000000000000000000000000000F8
:10F8100000000000000000000000000000000000E8
:10F8200000000000000000000000000000000000D8
:020000040801F1
:1005E00000000000C00203020304010304060C0023
:1005F000FD08FE09FF018C034B0A5E2007E6F1F3BC
:100600009F00210AE6F12369EF60CE00220BE6F19C
:100610002759922539BF002311E6F1C349344849CF
:100620009664493448494E062412E6718543524B7C
:10063000C231C9922C498630A700250DE6F16351DD
:100640004B1AA649D4CE02260FE6F1235AD4668B64
:10065000122D5A7222002709E6F123699D9F002876
:100660000BE6F16961DA73ACC300290AE6F1C8D57B
:100670001E339D022A0DE6F153A34C1A262DCA19EA
:10068000012B0BE6F193D36CD0D29C192C0AE6F126
:10069000F3290D7312002D09E6F1731A749E002ED2
:1006A00008E6F1F34BCE002F0DE671A6611AA661A4
:1006B0001AA6390D3010E6F14F5912292D52922504
:1006C00059B49301310AE6F123A1DAE34E06320D63
:1006D000E6F14F595A9AD274D0A900330DE6F14F82
:1006E000599AC96992453B19340CE671A7A59E0633
:1006F00031CDC900350EE6710F4A9A0E715A197242
:100700003200360FE6F14F693A4459922559B493B5
:1007100001370BE6710F4A9686D576063810E6F15A
:100720004F5992455396644916ED6400390EE6F12F
:100730004F5992255934A4A59D0C3A09E6F1B3E628
:100740004C39033B0BE6F1B3E6B434CC49003C0A28
:10075000E6F163616BDC4E053D0AE6F1B30DFAA0EC
:1007600073033E0AE6F1C7AD613B0B003F0BE6F1B8
:100770004F591A567330674010E6F14F599225C908
:10078000922CC9120F39154111E6F14F5992255992
:100790003228599225594E054212E6710F5196643E
:1007A000C91065499664C9909301430BE6F10F495E
:1007B000DAF39053014412E6710F5196644996643E
:1007C000499664C9909301450EE6F10F499A0E517E
:1007D0005A1E722A00460CE6F10F499A0E51DACEE3
:1007E000044710E6F10F495A59B2244BB268C8A920
:1007F000004812E67167499664C9A0644996644945
:100800009653014909E6F18F698F3B194A0AE6F1CF
:100810008F696F3A0B004B11E67167499644D11608
:10082000D5922CC9722A004C0AE671A77D1E722A45
:10083000004D10E67167896550BA25599225594EC9
:10084000054E10E67167899448493F299192E55415
:10085000004F10E6F14F5992255992255992453B88
:1008600019500FE6710F51966449960C515A670260
:100870005111E6F14F599225599225599245AB0EE7
:10088000035212E6710F51966449960C51966449D1
:10089000965301530DE6F10F491ACF6965C8C90097
:1008A0005409E6710F5ADA77065512E671674996D0
:1008B00064499664499664D19053015610E6716775
:1008C00049966449966449166D3B195711E671675C
:1008D0004996644996B40C8A25CBA9005811E67153
:1008E000674916256125CA922CC9722A005910E65B
:1008F000716749966449160D6965C8C9005A0CE6C6
:10090000710F6AD8351D742A005B0BE6F10C51DAC1
:10091000AF430E035C0DE671A4711AA7711AA739D3
:100920000C5D0AE6F10C697F1A72185E0AE6F12383
:10093000611265393F5F09E6F1F3EBA0C30060087F
:10094000E6F1C7757E01610EE6F153E76848B2240F
:100950008B869C0A6210E671A7E910654996644986
:10096000960C3919630CE6F15387246D1E722A0028
:100970006411E6F163693424599225599245434E36
:1009800005650FE6F15387244BB26450E221A702BC
:10099000660CE6F123531A0E59DACE026711E6F11E
:1009A0005387244BB2244BB2684E861C016810E674
:1009B00071A7E910654996644996643915690BE693
:1009C000F12339A676D5C9006A0BE6F1433998F6CA
:1009D000A653006B0EE671A7A54A26265954CBA94B
:1009E000006C09E6F1A77DD6C9006D0DE6F113870D
:1009F00028E9DF922CA7026E10E6F11387284BB28C
:100A0000244BB224CBA9006F0EE6F153A72CC99258
:100A10002CC9A29D0C7011E6F11387284BB2244B10
:100A2000B26488D22A007110E6F15387244BB224B5
:100A30004BB268485B00720CE6F15387244BD276C8
:100A40002600730DE6F15387249ED364C8C9007451
:100A50000BE6F1A7E19836EB64007510E6F113B3ED
:100A6000244BB2244BB268C8A900760EE6F113B34A
:100A7000244BB2248B923067770FE6F113B3244BEB
:100A80005A06C592E55400780EE6F113B3248BB6EE
:100A9000294BB29C0A7911E6F113B3244BB2244BD3
:100AA000B268482B43047A0CE6F11307356C1C74CA
:100AB0002A007B0CE6F169694D94D3B20E037C08E1
:100AC000E671A5FD3B057D0CE6F1C86959D4D29AC3
:100AD0004E017E0AE6F1738B9244E7087F07E6F148
:100AE000F39F00A007E6F1F39F00A10AE6F1233986
:100AF00098F6CE00A211E6F1E3E190D4922CC992CF
:100B000070C8720A00A30EE6F1235A540D872C4CCC
:100B1000079D0AA40DE6F153A34C8BDAB428A70273
:100B2000A50DE671675112866338A63903A60AE659
:100B300071A5EDB4B49D02A70FE6F1235A94A55A0E
:100B4000D49B9A459904A808E6F127397F06A91194
:100B5000E6F10F4928254AA4448A3119722A00AACD
:100B60000DE6F1237236D57664C81901AB0FE6F1B4
:100B700093A3244AA2B6288B722200AC0AE6F17332
:100B80001AD43A2300AD08E6F173DB7903AE10E620
:100B9000F10F49A85892C5928CC9905301AF07E64E
:100BA000F1EFFC19B00AE6F1235AD4A6F309B10D0E
:100BB000E6F1E3693668690E0D3A15B20CE6F123E9
:100BC0005A9486C521E706B30CE6F1235A14C651A0
:100BD0004DE708B409E6F143619DDF00B50CE6F18D
:100BE00013A3FE69A9E62000B610E6F10F499F9411
:100BF0002CC9922CC9929C0AB708E6F173CC7904EF
:100C0000B809E6F1F37B1A8600B90AE6F123A1DA06
:100C1000B87304BA0DE6F1235AD49B0E0D392300A4
:100C2000BB0FE6F113A32CCAA2962889723200BC2E
:100C300010E6F1846A2D89C2A296D486304D00BD9B
:100C40000FE6F1846A2D89C216A514168700BE111D
:100C5000E6F1685118279234865A521BC23401BFFC
:100C60000DE6F123399886D52CDAC900C011E6F1DA
:100C7000C4E19425593228599225594E05C111E6EF
:100C8000F185E19425593228599225594E05C21211
:100C9000E6718549366549960C4A96644996530132
:100CA000C313E6F14449A24D5992258392255992E6
:100CB000E55400C411E6F1D4A1294BB26450B2242A
:100CC0004BB29C0AC512E6718549366549960C4AB5
:100CD000966449965301C611E6F10F492DC9926CED
:100CE000506A4996EC5400C70CE6F10F49DAF390CC
:100CF000A56108C80FE6F1C4E190A4E910A5F19040
:100D00005301C90FE6F185E190A4E910A5F19053D4
:100D100001CA10E67185493624693A44693CE454B5
:100D200000CB0FE6F1D4A12149D3214AE321A70248
:100D3000CC0BE6F1C4E19876DCC900CD0BE6F18579
:100D4000E19876DCC900CE0CE671854936A61D77A0
:100D50003200CF0BE6F1D4A131EDB89301D00CE60F
:100D6000F16F51CB12F5692703D111E6F144492205
:100D700065899448493F29914E05D210E6F1C4E1B6
:100D800094255992255992453B19D310E6F185E1F6
:100D900094255992255992453B19D411E6718549FC
:100DA0003665499664499664D14E06D512E6F144FB
:100DB00049A24D59922559922559B49301D611E66D
:100DC000F1D4A1294BB2244BB2248B763200D70C3C
:100DD000E6F153A34CD4A29C1B00D810E6714653F5
:100DE00096444A5FA4248BA69C06D911E6F1C45907
:100DF000254BB2244BB2248B869C0ADA11E6F1858E
:100E000059254BB2244BB2248B869C0ADB13E67126
:100E1000854994255992255992255934E45400DC8A
:100E200012E6F1D4912CC9922CC9922CC9A221A707
:100E300002DD0FE6F18559254BB268482B434E067B
:100E4000DE11E6F1A3E9106549966449960C514E0E
:100E500003DF0FE6F16B51972CAA255292E864004C
:100E6000E010E671C53934474392255934E4540003
:100E7000E110E6F1853936474392255934E45400B0
:100E8000E210E67185490ECDD1906449160D3915F1
:100E9000E311E6F14449A243733424599245434E89
:100EA00005E410E6F1273934474392255934E454D8
:100EB00000E510E671854918CED1906449160D39C8
:100EC00015E60FE6F113152D8994CA521C722A00FB
:100ED000E70DE6F15387246D1EB2340C01E810E6ED
:100EE00071C539342459922583120F3915E910E65A
:100EF000F18539362459922583120F3915EA11E606
:100F00007185490E0D499664C9A0C4434E05EB1086
:100F1000E6F12739342459922583120F3915EC0B49
:100F2000E671C539A476D5C900ED0BE6F18539A681
:100F300076D5C900EE0CE67185490EA95D753200C3
:100F4000EF0BE6F12739A476D5C900F011E671243C
:100F500061259CB2244BB2248B763200F113E6F16A
:100F60004449A2234394255992255992E55400F20D
:100F700010E671C53934654996644916ED6400F38D
:100F800010E6F1853936654996644916ED6400F43A
:100F900010E67185490E4D5992255992453B19F538
:100FA00011E6F14449A243539664499664D14E0632
:100FB000F610E6F1273934654996644916ED640068
:100FC000F70BE6F1937368D0A19C19F80FE6F19343
:100FD000A229525AA4248BA69C06F911E671C539A0
:100FE0009225599225599245434E05FA11E6F1850D
:100FF000399425599225599245434E05FB12E671C5
:1010000085498E64499664499664D1905301FC11D8
:10101000E6F127399225599225599245434E05FD0F
:1010200013E6F185399425599225599245435A1969
:101030002200FE12E671A7E9106549966449960CF4
:10104000519A8300FF13E6F12739922559922559C9
:101050009245435A19220000000004FFFF000000DF
:10106000E7170008EB170008CF1500081815AF198F
:10107000FF1815AE19FF1815A115C819FF1815A0EE
:1010800015C019FF1815A115C019FF1815A015C80E
:1010900019FF1815AE15D5168015A8163F15D316CD
:1010A000001540158D16141520160015A115C8152C
:1010B000DA1612158116CF15D916F115DB16401563
:1010C0002E15A415A619FF1815AE15D5168015A84E
:1010D000163F15D316001540158D16141520160051
:1010E00015A115C815DA1612158116EF15D916A116
:1010F00015DB1600152E15A415A619FF1815AE152B
:10110000D5168015A8163F15D316001540158D1657
:10111000141520160015A115C815DA16021581162A
:10112000CF15D916F115DB1640152E15A415A619E5
:10113000FF1815AE15A415D5165015A8163F15D3D2
:101140001600154015AD168B15D9162215DB163570
:101150001532158116FF15A615DA161219FF181586
:10116000AE15D5168015A8163F15D31600154015D7
:101170008D16141520160015A115C015DA161215B6
:101180008116CF15D916F115DB1640152E15A415AD
:10119000A619FF000001140A6464323200127A00BA
:1011A0000004289610080000800040000001140A86
:1011B0006464323200093D000004289610080202DF
:1011C00080004000E411010800000020A00200009F
:1011D00070010008C8130108A0020020A80A00003E
:1011E000EA10000831533C3C280D41542B52455322
:1011F000544F52450D0A0D580943574D4F44453D34
:10120000310E68204950534E54504346473D312CCF
:10121000382C226E7470312E616C6979756E2E6374
:101220006F6D2234580C4A41503D223232222C221A
:101230003101591B28094D515454555345524218F8
:101240000A302C312C224E554C4C271814657370E3
:1012500038323636266B307967747866506263515F
:101260001618446465656132626539346535343910
:10127000623862393834316539393536376530632B
:10128000366230346330386164323335336330373B
:1012900033396532346334666664356438323562B6
:1012A000333264222C30029A227C1809434C49457F
:1012B0004E5449447D9A226C5A2E80A83F7C736517
:1012C000637572656D6F64653D325C2C7369676E22
:1012D0006D6574686F643D686D6163736861323514
:1012E000365C2C74696D657374616D703D31373196
:1012F000323134333236393131377C682C4F4E4EEF
:1013000064181A696F742D30367A303065646371F1
:101310003173746F37752E6D7174742E1988196856
:1013200075622E616C6979756E63732E636F6D22C1
:101330002C313838332C31462C535542459E2F736F
:1013400079732FAE5A2FAE18182F7468696E672FF5
:10135000736572766963652F70726F7065727479E8
:10136000111A744C1947F11CEF01FF011201170704
:101370003C020404029A50101901116A4C10130324
:10138000337A370C120D7A110C12306A340C2308A0
:101390003112048A16551303016A050C1B0402213D
:1013A000792A2304017DFFFF020C6F320C191429E6
:1013B00006840E540D12203D02040608162C02036A
:0813C00004046506070809009A
:04000005080000ED02
:00000001FF
