:020000040800F2
:10000000380D002005010008FF050008390300082D
:10001000FD050008C7010008A1100008000000004D
:10002000000000000000000000000000190A0008A5
:10003000C90100080000000057090008F90B00087A
:100040001F0100081F0100081F0100081F01000810
:100050001F0100081F0100081F0100081F01000800
:100060001F0100081F0100081F0100081F010008F0
:100070001F0100081F0100081F0100081F010008E0
:100080001F0100081F0100081F0100081F010008D0
:100090001F0100081F0100081F0100081F010008C0
:1000A0001F0100084D0C00081F0100081F01000877
:1000B0001F0100081F0100081F0100081F010008A0
:1000C0001F0100081F0100081F0100081F01000890
:1000D0001F010008B90D0008C10E0008110F00082B
:1000E000010200081F0100081F010008DFF810D0FE
:1000F00000F02CF8004800476D110008AFF30080B5
:10010000380D00200648804706480047FEE7FEE716
:10011000FEE7FEE7FEE7FEE7FEE7FEE7FEE7FEE7B7
:10012000FD0B0008ED000008D2B201E000F8012B41
:10013000491EFBD270470022F6E710B513460A4667
:1001400004461946FFF7F0FF204610BD064C074D48
:1001500006E0E06840F0010394E807009847103497
:10016000AC42F6D3FFF7C6FFE413010804140108FC
:1001700070B58C1810F8015B15F0070301D110F869
:10018000013B2A1106D110F8012B03E010F8016B96
:1001900001F8016B5B1EF9D12B0705D40023521E19
:1001A0000DD401F8013BFAE710F8013BCB1A921C81
:1001B00003E013F8015B01F8015B521EF9D5A1427F
:1001C000D8D3002070BDFEE7704700B502464FF45B
:1001D0007A7302E0184600F003F8521EFAD200BD0E
:1001E00000EBC000C1004FF0E020416100218161BF
:1001F000052101610169C903FCD504210161704732
:1002000010B54FF40054204600F01EF800280CD022
:100210000649012006A288700146092000F066FB0D
:100220002046BDE8104000F009B810BDD8010020FC
:100230005363616E53746174757300000149086003
:100240007047000014040140064A0146002012686D
:10025000044B0A4014331B680B4202D0002A00D022
:100260000120704700040140F0B5CA78002502F073
:100270000F03D20601D58A7813430A784FF00F0E88
:1002800012F0FF0F4FF001021CD004680F8802FA31
:1002900005F63740B74211D14FEA850C0EFA0CF73C
:1002A00024EA070703FA0CF43C43CF78282F02D046
:1002B000482F02D002E0466100E006616D1C082D67
:1002C000E4D304600C88FF2C1ED944685FF000065C
:1002D00006F1080702FA07F50F882F40AF420FD149
:1002E0004FEA860C0EFA0CF7BC4303FA0CF73C43BA
:1002F000CF78282F00D14561CF78482F00D10561F4
:10030000761C082EE4D34460F0BD024600209268BB
:100310000A4200D00120704702460020D2680A42FB
:1003200000D00120704741617047016170470AB1F8
:100330000161704741617047FEE702460020938AE1
:10034000128B43EA024323F07F42914300D1012004
:1003500070470029018802D041F0010101E021F03D
:100360000101018070470000F8B50121480500F047
:10037000FFFA0121082000F0FBFA4020ADF8000050
:100380001C240B4E8DF8034003258DF8025069465E
:100390003046FFF769FF8020ADF800008DF803407C
:1003A0008DF8025069463046FFF75EFFF8BD000049
:1003B000000C01400029018802D041F4807101E065
:1003C00021F48071018070470029018802D041F436
:1003D000007101E021F40071018070470CB5024604
:1003E000002000920A0F21F07F41019202D0009A72
:1003F000143202E0009A090C1832009212680A4284
:1004000000D001200CBD000070B50446808886B085
:100410000D4620F03F06684600F0B6FA27490298DC
:10042000B0FBF1F189B20E43A680228822F00102CE
:100430002280234B2A689A421CD85200B0FBF2F06B
:1004400080B2042800D20420491C2184A083208883
:1004500040F00100208021884FF6F5300140A88847
:100460006A89104308432080A8892989084320818C
:1004700006B070BDEB88A3F53F46FF3E0BD002EB04
:10048000C20303EB0212B0FBF2F080B240F48040F2
:10049000020506D007E002EB4202B0FBF2F080B2A8
:1004A000F6E740F001004FF4967251434FF47A7230
:1004B000B1FBF2F140F40040C6E7000040420F00FB
:1004C000A086010012B141F0010101E001F0FE013E
:1004D000018270470182704770B5244D00240221CB
:1004E0002846FFF712FF012809D11420FFF76DFEFF
:1004F00002212846FFF709FF0128F6D001244FF416
:10050000006631462846FFF700FF012809D1142074
:10051000FFF75BFE31462846FFF7F7FE0128F6D0CD
:10052000022420212846FFF7F0FE012809D11420DB
:10053000FFF74BFE20212846FFF7E7FE0128F6D003
:1005400003244FF4807631462846FFF7DEFE01286B
:1005500009D11420FFF739FE31462846FFF7D5FEB2
:100560000128F6D00424204670BD0000000C014094
:1005700008B50121082000F0FBF928208DF80300C0
:1005800040F62210ADF8000003208DF80200694605
:100590000148FFF769FE08BD000C014010B5094C89
:1005A00001212046FFF7B8FE00284FF00101204648
:1005B00003D0BDE81040FFF7B6BEBDE81040FFF71E
:1005C000B4BE00000008014038B50121042000F04D
:1005D000CFF910208DF803000320ADF80000064C81
:1005E0008DF8020069462046FFF73EFE03212046B3
:1005F000FFF799FE38BD000000080140FEE7704794
:1006000070B50F23C47801780122F4B1144C24682A
:10061000457804F4E064C4F5E064240AC4F10406F7
:10062000E3408478B5401C402C4301F1E0212301D4
:1006300081F80034007800F01F018A4040098000F2
:1006400000F1E020C0F8002170BD01F01F008240E1
:100650004809800000F1E020C0F8802170BD000052
:100660000CED00E0024908430249086070470000B1
:100670000000FA050CED00E070B5002400212046D2
:1006800000F0EEF80025002000F054F96D1CEDB2EA
:10069000802DF8D3641CE4B2082CEFD370BD0000A9
:1006A000F8B50121082000F063F914208DF803004B
:1006B00003208DF802000D4E4FF48074ADF8004019
:1006C00069463046FFF7D0FD6500ADF80050694639
:1006D0003046FFF7C9FD012221463046FFF727FECD
:1006E000012229463046FFF722FEF8BD000C0140EA
:1006F0002DE9F047144E002407464FF080084FF4D0
:100700000079B51528FA04F23A4049463046FFF719
:100710000EFE012229463046FFF709FE0022294637
:100720003046FFF704FE641CE4B2082CEAD3012231
:1007300029463046FFF7FBFD29463046BDE8F04725
:100740000022FFF7F4BD0000000C014070B501224B
:100750000B4D540221462846FFF7E9FD01221602FF
:1007600031462846FFF7E3FD002221462846FFF7E1
:10077000DEFD31462846BDE870400022FFF7D7BDB8
:10078000000C014070B50A4D4FF400740022214660
:100790002846FFF7CCFD012211022846FFF7C7FDCE
:1007A00021462846BDE870400122FFF7C0BD000089
:1007B000000C014010B500204FF47A720021491C52
:1007C0009142FCD3401C9042F8D3FFF769FFAE2062
:1007D00000F09FF8D52000F09CF8802000F099F8F8
:1007E000A82000F096F83F2000F093F8D32000F006
:1007F00090F8002000F08DF8402000F08AF8A12049
:1008000000F087F8C82000F084F8DA2000F081F8C2
:10081000122000F07EF8812000F07BF8CF2000F05D
:1008200078F8D92000F075F8F12000F072F8DB209C
:1008300000F06FF8302000F06CF8A42000F069F8A8
:10084000A62000F066F88D2000F063F8142000F078
:1008500060F8AF2000F05DF8BDE81040FFF70CBF76
:1008600010B50C4640F0B00000F053F8102040EAFC
:10087000141000F04EF804F00F00BDE8104000F036
:1008800048B800002DE9F0410746CE004000083E80
:10089000801E15464FF0FF38F1B2C0B2FFF7E0FFFF
:1008A0001148002400EB05152819A0F5805090F898
:1008B000000E00F03FF8641CE4B2082CF4D308EBFF
:1008C0004700F1B2C0B2FFF7CBFF00242819A0F512
:1008D000805090F8080E00F02DF8641CE4B2082C4B
:1008E000F4D3BDE8F0810000141D00082DE9F041AB
:1008F00015460E460746002406E03019C1B23846B8
:10090000FFF7C0FF641CE4B22A5D002AF5D1BDE800
:10091000F08110B50446FFF719FF7820FFF7E8FED5
:100920000020FFF7E5FE2046FFF7E2FEBDE810409D
:10093000FFF728BF10B50446FFF708FF7820FFF740
:10094000D7FE4020FFF7D4FE2046FFF7D1FEBDE8DA
:100950001040FFF717BF7047044A0029D16901D042
:10096000014300E08143D161704700000010024064
:10097000044A0029916901D0014300E0814391615B
:10098000704700000010024030B51F494A6812F05D
:100990000C031E4A03D0042B01D0082B21D0026087
:1009A0004A680F231A4C03EA1212A35C0268DA4069
:1009B00042604B68072505EA1323E35C22FA03F340
:1009C00083604B6805EAD323E35CDA40C260496880
:1009D000032303EA9131231F595CB2FBF1F101615A
:1009E00030BD4A684B6802F470124FF0020413F4F1
:1009F000803F04EB924202D04B689B0301D5054B2C
:100A000000E0024B5A43CAE70010024000127A008D
:100A10007A02002000093D00704700000CB500215B
:100A2000264801910091026842F4803202604FF43E
:100A3000A063026802F400320092019A521C0192F3
:100A4000009A12B9019A9A42F3D10268920333D5FF
:100A5000012100911A490A6842F010020A600A68EE
:100A600022F003020A600A6842F002020A6041684A
:100A7000416041684160416841F480614160416882
:100A800021F47C114160416841F4E8114160016842
:100A900041F08071016001688901FCD5416821F055
:100AA00003014160416841F0020141604168C1F3C6
:100AB00081010229FAD10CBD00910CBD0010024049
:100AC000002002401CB50124A61E4025FFF704FDAE
:100AD000012802D002280AD011E024B1641E20218E
:100AE000E4B2012009E001242021304620E0022C5C
:100AF0001BD0641CE4B22021304600F0E1FA002C47
:100B000056D0012C16D0022CE0D12C4800F04AFB24
:100B10002B484023CDE9005000222021274800F037
:100B200029FC264800F064FCD0E70124202120465F
:100B300000F0C6FA23482027CDE900703B4610227A
:100B400000211E4800F016FC1F482023CDE900704C
:100B500010226021194800F00DFC184800F048FCF4
:100B60001A4F0E2240233878401CB0FBF2F102FBF2
:100B700011003870002220211048009500F038FB49
:100B800011483978803000EB0130CDE90050402326
:100B900000222021094800F0EDFB084800F028FC65
:100BA0000121064800F02DFC0A20FFF70EFB8DE71F
:100BB000024800F0F7FA03488030AAE790020020CC
:100BC00084250008042300088427000875020020FB
:100BD00010B50121064800F02FFC0021044800F068
:100BE00028FCBDE810400349014800F012BC000099
:100BF0009002002004080108704700000F4810B55B
:100C0000016841F00101016041680D4A11404160F5
:100C100001680C4A11400160016821F480210160E3
:100C2000416821F4FE0141604FF41F018160FFF72C
:100C3000F5FE05494FF00060086010BD001002404D
:100C40000000FFF8FFFFF6FE08ED00E010B5084CCD
:100C50000121204600F01BF8012807D10121204680
:100C600000F008F8BDE81040FFF798BC10BD000088
:100C7000002C0140C943018270470029018802D03D
:100C800041F0010101E021F00101018070470246BD
:100C90000020138A92890B4202EA010202D0002A44
:100CA00000D001207047002A828901D00A4300E069
:100CB0008A4382817047000030B502881B4B1C4C70
:100CC00098420DD0A0420BD0B0F1804F08D0194D02
:100CD000A84205D0184DA84202D0184DA84203D111
:100CE00022F070054A882A43154DA84206D0154DBA
:100CF000A84203D022F44075CA882A4302808A8819
:100D000082850A88028598420AD0A04208D00E4AFD
:100D1000904205D00D4A904202D00D4A904201D136
:100D2000097A01860121818230BD0000002C01403A
:100D3000003401400004004000080040000C004066
:100D400000100040001400400040014000440140F9
:100D5000004801407FB50C4605460121C802FFF757
:100D600007FE6D1EADF80050641E0025ADF804406E
:100D7000104CADF80250ADF806508DF80850694699
:100D80002046FFF799FF012211462046FFF78BFF0F
:100D900019208DF80C008DF80D5001218DF80E10E2
:100DA0008DF80F1003A8FFF72BFC01212046FFF759
:100DB00064FF7FBD002C014070B50F4C40F22555FB
:100DC0002946204600F0DAF8012813D1204600F029
:100DD00063F90A490A4B08700A490A889854521C58
:100DE0000A8009490120087029462046BDE8704064
:100DF00000F0B4B870BD00000038014000000020D1
:100E000024030020080000200600002030B5012146
:100E100087B08803FFF7ACFD01210420FFF7A8FD90
:100E200018208DF813004FF40070ADF81000224D1B
:100E300003248DF8124004A92846FFF715FA48202C
:100E40008DF813002815ADF810008DF8124004A994
:100E50002846FFF709FA4FF4E130009000200C21FA
:100E6000ADF80A10ADF80600144CADF80C00ADF862
:100E70000800ADF804006946204600F0B7F80122EA
:100E800040F22551204600F098F84FF4A060FFF79B
:100E9000E9FB25208DF8140001218DF817108DF83D
:100EA00015108DF8161005A8FFF7AAFB01212046A2
:100EB00000F05AF807B030BD00080140003801408A
:100EC00070B5104D40F225542146284600F056F8E2
:100ED00088B1284600F0E0F80B4BC0B21A78110632
:100EE00009D4142A04D209498854521C1A7002E009
:100EF00042F08000187021462846BDE8704000F09E
:100F00002DB8000000440040D80100202405002036
:100F100070B5104D40F225542146284600F02EF8B9
:100F200090B1284600F0B8F80B4BC0B25A781106C1
:100F30000AD4062A05D203F108018854521C5A70BB
:100F400002E042F08000587021462846BDE870401B
:100F500000F004B800480040D80100200A0A01212E
:100F60009140C943018070470029818902D041F432
:100F7000005101E021F400518181704730B501F04A
:100F80001F0201240025C1F3421304FA02F2012BCF
:100F90000FD0022B0FD0838A4FEA11210088134211
:100FA00004FA01F400EA040001D000B1012528464A
:100FB00030BD8389F0E7038AEEE710B5C1F3421331
:100FC00001F01F040121A140012B07D0022B07D003
:100FD0001430002A026805D00A4304E00C30F8E718
:100FE0001030F6E78A43026010BD000030B50446B9
:100FF000008A85B00D464CF6FF710840E988014330
:101000002182A1894EF6F3100140A8882A89104355
:101010006A890A431043A081A08A4FF6FF41084025
:10102000A9890143A1826846FFF7AEFC19488442B2
:1010300001D1039800E00298A189090400EBC001E6
:1010400001EB0010296801D5490000E08900B0FBE0
:10105000F1F06422B0FBF2F109010B096FF0180501
:101060006B4300EB8300A3891D044FF0320306D5C8
:1010700003EBC000B0FBF2F000F0070005E003EB6B
:101080000010B0FBF2F000F00F000843208105B023
:1010900030BD0000003801408088C0F30800704770
:1010A000FEE702E008C8121F08C1002AFAD1704703
:1010B0007047002001E001C1121F002AFBD17047D8
:1010C0002DE9FC470E460546002439E0234800F090
:1010D00069F823494FF02009CDE90091A1B24B46B0
:1010E00010221E4800F046F94FF0400804F1200796
:1010F000B9B2434600221948CDF8008000F078F8D4
:101100001949184840230978002200EB0130CDE945
:101110000080B9B2114800F02DF9124904F16000C5
:101120008039CDE9009181B2202310220B4800F0D4
:1011300021F90A4800F05CF905EB4500204444B26F
:10114000002D02DDB442C1DB03E002DA70428442CA
:10115000BCDCBDE8FC47014800F024B89002002048
:101160000423000804280008750200204FF4A06042
:10117000FFF778FA4FF4E15142F21070FFF7EAFD01
:10118000FFF722FAFFF716FBFFF740FEFFF7F0F933
:10119000FFF7EAF800F010F8FFF71AFD0620FFF756
:1011A00091FCFBE701680A7C90F83810406B5143D2
:1011B000C900FEF7C0BF000010B5094B094A0A4933
:1011C0000A4800F075F9094800F043FB0021074880
:1011D00000F04FFBBDE810400448FFF7E3BF0000FC
:1011E0001B1600080919000880120108900200204F
:1011F0002DE9F8438146089C1E46101980B20090E4
:10120000881983B215468846484600F0D9F8002868
:101210000ED00027002C0BD033462A4641464846C4
:10122000009700F007F86D1C641EADB2A4B2F1E7A0
:10123000BDE8F8833FB581B0044690F88C0008996A
:1012400000283AD0BDF81000002836D0012811D966
:10125000022902D0032907D00CE0BDF80820101A9B
:10126000401CADF8080005E0BDF80C20101A401C29
:10127000ADF80C0011F0010521D0B4F84810BDF80C
:101280000800814219D8B4F84A10814215D9B4F83F
:101290004E30B4F84C2004A90DF10C0000F084F994
:1012A00000280AD00095206BBDF81030BDF80C2046
:1012B0008568BDF808102046A84705B030BDB4F8D1
:1012C0004C10BDF80C008142F7D8B4F84E108142A2
:1012D000F3D9B4F84A30B4F8482004A902A8DDE7ED
:1012E0002DE9FF4F81B090F89270DDF838901D46DF
:1012F000884606469FB10020834603984146401C1D
:1013000080B2009008EB050083B23046039A00F0EB
:1013100057F800282BD001244FF0000A23E00120C9
:10132000EAE700BF99F80000204202D086F89270E8
:1013300004E096F8910048B986F892B00123CDF800
:1013400000A041463046039AFFF774FF08F1010000
:101350001FFA80F8600010F0FF0402D1012409F1A7
:1013600001096D1EADB2002DDCD186F8927005B07A
:10137000BDE8F08F2DE9F84F8246DDE90A57D81D08
:10138000C0F3CC08501980B21C460090081983B2F3
:1013900016468946504600F013F800280ED00BE0A0
:1013A00023463246494650460097FFF799FF761C80
:1013B0006D1E4744B6B2ADB2002DF1D1BDE8F88F35
:1013C00070B50D461E460446B0F84E10B0F84C00FD
:1013D000049B00F043F9002809D0B4F84A10B4F88F
:1013E000480033462A46BDE8704000F037B970BD6A
:1013F00010B5044600F0C1F92046BDE8104000F0E9
:1014000030BA80F89210032902D3012180F892109B
:10141000704710B50446806D884209D004F174000D
:10142000A16500F075F92046BDE8104000F05CB8F9
:1014300010BD80F87010704780F86D107047000084
:101440000149C16570470000031600080021A0F89B
:101450005010A0F854104FF6FF71A0F85210A0F8E9
:101460005610016B4968084770B50446002504987A
:10147000A565E362616384F8382084F8395084F804
:101480006D5084F8915084F88D50012184F89210A9
:1014900084F8931020630168204688472046FFF7B0
:1014A000D5FF2046FFF7CCFF84F8705070BD0000D8
:1014B0007CB50C46009313460546084A084900F0DF
:1014C000E0F901A800F01EF90146064B00949DF8D2
:1014D00004202846FFF7C8FF7CBD0000AD1A0008B5
:1014E000D51B00087516000810B5816D00291AD0AB
:1014F00090F9813080F88E3090F9822080F88F202A
:1015000090F88D1000290ED001290DD090F97E4061
:1015100090F980100C449C4201DD80F88E408A4294
:1015200001DD80F88F1010BD90F983108B4201DA35
:1015300080F88E1090F98410F1E738B50446B0F8C1
:1015400056000090B4F85230B4F85420B4F850105B
:101550002046FFF735FF18B3012084F88C00B4F85B
:101560004810B4F85000814201D2A4F84800B4F801
:101570004A10B4F85200814201D9A4F84A00B4F8E4
:101580004C10B4F85400814201D2A4F84C00B4F8D5
:101590004E10B4F85600814201D9A4F84E0038BD6F
:1015A000002084F88C0038BD30B504880D882544AF
:1015B000ADB2AC4205D99C4202D25D1EADB200E094
:1015C00014469C4201D2954201D8002030BD94427D
:1015D00000D214469D4200D91D460480281B088075
:1015E000012030BD38B5C58F049C0094521BC46ADD
:1015F00092B2A04738BD38B5049C0094FFF7F2FFC3
:1016000038BD0020704708444FF6FF7201784078DB
:1016100002EA0121084480B270474D2919D00CDC40
:101620002B2916D004DC292913D02A290ED110E049
:101630002D290ED04C2909D10BE0002250290AD0C7
:10164000512908D0522906D0532904D0012180F80D
:1016500027100120704780F82720FAE78A4205D238
:10166000834201D89A4203D9012070478342F9D8B6
:1016700000207047F0B502F007060124B4400025B1
:1016800090F892E0E7B2DDF814C02C46BEF1010FED
:1016900001D83D4600D03C46076822F00702BCF165
:1016A000000F3F7C07FB02F7BAB2476B3A44114484
:1016B00009D108785B1E284360401B0401F8010B28
:1016C0001B0CF6D1F0BD0A78761C2A436240A3F1C8
:1016D00001030A7016F007069BB206D06A06150EC3
:1016E0006206140E002BEED1F0BD428F114490F82B
:1016F0009220012A03D800BF4FF00105F2D04FF02D
:101700000104EFE708210170004870473805002008
:1017100070B5054608782870487868708878A87091
:10172000C878E870087928714879687188790C461A
:10173000A871E079E871207A2872607A6872A07ADC
:10174000A872E07AE872207B2873607B6873A07BC4
:10175000A873E07BE873207C287411212046FFF7F2
:1017600052FF688213212046FFF74DFFA882152102
:101770002046FFF748FFE88270BD2DE9F843064692
:1017800090F8387090F83950006800244FF6FF78D0
:1017900090F81190316830462A460B7C716B04FB3F
:1017A00003FC1FFA8CFC08EACC0C61440091002178
:1017B00000F040F8641C6D1CE4B2EDB2BC4201D2F2
:1017C0004D45E7D3BDE8F883F0B590F838204FF6E3
:1017D000FF75036805EAC2018187197C05EAC1012A
:1017E000418790F8394005EAC401C1875E7CA7189B
:1017F000B74201D9321B92B205EAC20220F8401F5B
:1018000011444180998A8180D98AC180F0BDFFF757
:10181000DBBF0021A0F84810B0F84410A0F84A102F
:10182000B0F84010A0F84C10B0F84210A0F84E10DC
:10183000FFF783BE1CB58DF805108DF80620049CBB
:101840008DF804300094012284686B460F21A04774
:101850001CBD30B484680023A44630BC1A460A215B
:10186000604730B484680023A44630BC1A46102177
:10187000604730B484680023A4460A4630BC0B217C
:1018800060472DE9F04115460E460446069F00F0DC
:1018900009F86761A660C4E903532046BDE8F0413A
:1018A00000F012B8002140F8081B064A02604260AE
:1018B0008260C260C17681770161FF21017780F883
:1018C00020107047D91C000830B484680023A44657
:1018D00030BC1A460921604730B404690023A4468D
:1018E00030BC1A461921604713B50122046901ABC7
:1018F0001721A0471CBD30B404690023A44630BCA6
:101900001A461821604700002DE9FF41354C1D465D
:10191000164618293ED004DC14291CD0172904D1FE
:1019200014E0192957D0202959D0002004B0BDE86F
:10193000F08100BF15F8011B2046FEF7CBFD3946AC
:101940002046FEF7FAFC0028F9D000E0264F761E6C
:10195000F6B2EFD243E001214805FEF7FDFF00207B
:10196000ADF804004BF6FF70ADF806001020ADF89E
:1019700008008001ADF80A000001ADF80C001B481A
:10198000009069462046FEF73FFD01212046FEF704
:10199000E0FC24E04FF4003529462046FEF71EFD0A
:1019A0000028F9D101212046FEF704FD104D204604
:1019B0002946FEF7C2FC0028F9D0002278212046F3
:1019C000FEF780FD084DAD1E29462046FEF7B5FC0A
:1019D0000028F9D003E001212046FEF7F5FC0120A4
:1019E000A4E700000054004084000700801A0600AD
:1019F0000100030030B4C4680023A44630BC1A467A
:101A00001921604730B4C4680023A4460A4630BC9C
:101A10001621604730B4C4680023A4460A4630BC8F
:101A20001521604730B4C4681346A4460A4630BC4A
:101A300017216047F8B50C464FEA000514F8011B62
:101A4000182924D00EDC152919D0162917D01729EA
:101A500023D120788DF800006A4601212846FFF73F
:101A6000E1FF0AE0192912D0FE2916D122788DF85B
:101A700000202921284600F031F9641CDEE7227895
:101A80008DF80020EE6800232846B047F5E70023D4
:101A9000EE681A462846B047D0E7F8BD30B4C468AF
:101AA0000023A44630BC1A46182160472DE9F041B6
:101AB000DFF8B08014460646A1F11402002798F81A
:101AC00000001D46062A4AD2DFE802F02F03161B4B
:101AD0003E4310B13046FFF7FFFE3046FFF70BFFE5
:101AE00000213046FFF700FF21463046FFF7FCFE9D
:101AF000012088F8000029E021463046FFF7F4FE77
:101B000024E050B13046FFF7E7FE06E018213046EA
:101B100000F0EAF8183CE4B21835182C2A46F5D83B
:101B20002146304600F0E0F80EE096F82400FF2849
:101B300002D1782086F8240037692B4622463046A9
:101B4000BC46BDE8F041604788F800700120BDE860
:101B5000F0810028F8D03046FFF7BEFEF4E7002001
:101B6000F5E700008A02002070B5002345690446AD
:101B70001A462821A8470023E5681A461421204662
:101B8000A84701224B21204600F0A8F8206829210F
:101B90000279204600F0A2F800224B21204600F0F6
:101BA0009DF8206829210279204600F097F801224B
:101BB0004B21204600F092F82068292142792046E6
:101BC000BDE8704000F08AB80160897C80F822107E
:101BD0007047000070B50C46054600F019F888B94A
:101BE000092C0BD00A2C01D0002070BD2846FFF72D
:101BF000BBFF05492846FFF71DFF03E003492846C0
:101C0000FFF7E2FF012070BDB2120108B413010812
:101C10002DE9F0411E46144605460B2908D00D2932
:101C20000ED00E291ED00F2927D00020BDE8F0814C
:101C30001AB12849FFF7FEFE4AE02649491FF9E795
:101C40004AB124490C31FFF7F5FE286890F81300DB
:101C500085F822003CE01F49491DFFF7EBFE28688C
:101C6000807CF5E7FFF71AFF81212846FFF7D2FEB7
:101C700021462846FFF7C6FE27E0FFF70FFF7079E1
:101C800095F8221001EBC000C7B240212846FFF7AB
:101C9000C1FE102040EA17112846FFF7BBFE07F0EF
:101CA0000F012846FFF7AEFEB07940F0B00128469C
:101CB000FFF7A8FE30793268C006010E2846FFF70C
:101CC000B1FE641E14F0FF04F4D12846FFF792FE23
:101CD0000120ABE7911201080020704730B444693D
:101CE0000023A44630BC60472DE9F04115460E465E
:101CF0000446FFF700FE40212046FFF7F5FD276967
:101D00002B46324617212046B8472046BDE8F04111
:101D1000FFF7E2BD0000000000000000000000002E
:101D200000000000000000F8000000000000003388
:101D30003000000000100C06100C0600000000002F
:101D40000000000040C07840C0784000043F040418
:101D50003F040400007088FC08300000001820FFD9
:101D6000211E0000F008F000E018000000211C0314
:101D70001E211E0000F00888700000001E21232490
:101D80001927211010160E000000000000000000AE
:101D900000000000000000E018040200000000073E
:101DA0001820400000020418E00000000040201845
:101DB00007000000404080F0804040000202010F18
:101DC00001020200000000F0000000000101011FFC
:101DD00001010100000000000000000080B0700060
:101DE00000000000000000000000000000010101F0
:101DF000010101010000000000000000003030007F
:101E00000000000000000000806018040060180658
:101E10000100000000E010080810E000000F102092
:101E200020100F00001010F8000000000020203FDC
:101E30002020000000700808088870000030282466
:101E40002221300000300888884830000018202007
:101E500020110E000000C02010F80000000704242C
:101E6000243F240000F80888880808000019212071
:101E700020110E0000E0108888180000000F1120CB
:101E800020110E0000380808C83808000000003F84
:101E9000000000000070880808887000001C2221E3
:101EA00021221C0000E010080810E0000000312290
:101EB00022110F00000000C0C00000000000003030
:101EC0003000000000000080000000000000806082
:101ED0000000000000008040201008000001020403
:101EE00008102000404040404040400004040404EA
:101EF00004040400000810204080000000201008A6
:101F000004020100007048080808F00000000030DA
:101F100036010000C030C828E810E0000718272468
:101F200023140B000000C038E0000000203C230216
:101F30000227382008F8888888700000203F202079
:101F400020110E00C03008080808380007182020AB
:101F50002010080008F808080810E000203F2020A2
:101F600020100F0008F88888E8081000203F202083
:101F70002320180008F88888E8081000203F200077
:101F800003000000C03008080838000007182020AF
:101F9000221E020008F808000008F808203F21016E
:101FA00001213F20000808F8080800000020203F19
:101FB0002020000000000808F8080800C080808089
:101FC0007F00000008F888C028180800203F200182
:101FD0002638200008F8080000000000203F2020DC
:101FE0002020300008F8F800F8F80800203F003FF3
:101FF000003F200008F830C00008F808203F20000B
:1020000007183F00E01008080810E0000F1020201B
:1020100020100F0008F808080808F000203F2101F0
:1020200001010000E01008080810E0000F18242447
:1020300038504F0008F8888888887000203F2000BA
:10204000030C302000708808080838000038202170
:1020500021221C00180808F8080818000000203F7A
:102060002000000008F808000008F808001F2020E1
:1020700020201F000878880000C8380800000738B2
:102080000E010000F80800F80008F800033C070003
:10209000073C0300081868808068180820302C036B
:1020A000032C30200838C800C83808000000203F42
:1020B0002000000010080808C83808002038262131
:1020C00020201800000000FE020202000000007F35
:1020D00040404000000C30C0000000000000000143
:1020E0000638C00000020202FE000000004040402E
:1020F0007F00000000000402020204000000000053
:1021000000000000000000000000000080808080CF
:1021100080808080000202040000000000000000B7
:102120000000000000008080808000000019242250
:1021300022223F2008F8008080000000003F11208C
:1021400020110E000000008080800000000E112091
:1021500020201100000000808088F800000E11206F
:1021600020103F200000808080800000001F22227D
:1021700022221300008080F0888888180020203FE9
:10218000202000000000808080808000006B9494FC
:102190009493600008F8008080800000203F2100B8
:1021A00000203F2000809898000000000020203F81
:1021B00020200000000000809898000000C080806F
:1021C000807F000008F8000080808000203F24020B
:1021D0002D302000000808F8000000000020203FFB
:1021E000202000008080808080808000203F2000B0
:1021F0003F20003F8080008080800000203F210041
:1022000000203F200000808080800000001F2020F0
:1022100020201F00808000808000000080FFA1201F
:1022200020110E000000008080808000000E112030
:1022300020A0FF80808080008080800020203F21BF
:102240002000010000008080808080000033242472
:1022500024241900008080E0808000000000001F1E
:10226000202000008080000000808000001F2020CF
:1022700020103F20808080000080808000010E3090
:102280000806010080800080008080800F300C03F1
:102290000C300F0000808000808080000020312EF4
:1022A0000E312000808080000080808080818E70D0
:1022B0001806010000808080808080000021302C82
:1022C0002221300000000000807C0202000000009B
:1022D000003F404000000000FF0000000000000040
:1022E000FF0000000002027C800000000040403F30
:1022F00000000000000601010202040400000000CA
:102300000000000000C00300004003000040030084
:1023100000407F0000407F000040030000400300B9
:1023200000400300004003000040030000400300A1
:1023300000400300004003000040030000600F0065
:1023400000783E00001C70000006C0000003800101
:1023500000038001000100038001000380010003ED
:10236000800100038081170380C11C0100438401A8
:102370000083C6010006C300000C7000007838001E
:1023800000F01F00000000F007000000000000F057
:1023900007000000000000300600000000000030D0
:1023A00006000000000000300600000000000030C1
:1023B0000600000000000030FE3F0000000000307A
:1023C0000630000000000030FE3F0000000000303A
:1023D0000600000000000030060000000000003091
:1023E0000600000000000030060000000000003081
:1023F0000600000000000030060000000000003071
:102400000600000000000030060000000000003060
:102410000600000000000030060000000000003050
:102420000600000000000030060000000000003040
:102430000600000000000030060000000000003030
:102440000600000000000030060000000000003020
:102450000600000000000030060000000000003010
:1024600006000000000000301E0000000000003CDC
:10247000FE0000000000003FF8030000000080079D
:10248000800F00000000E001001E00000000F000CE
:1024900000380000000038000070000000001C0040
:1024A00000E0000000001C000EE0000000000E0034
:1024B00038C0010000000700608001000000070034
:1024C00080800300000003000001030000000300FF
:1024D00000030300008003000006070000800100E5
:1024E00000060600008001000006060000800100D2
:1024F00000040600008001000004060000800100C6
:1025000000000600008001800F000600008003C06C
:102510001803060000800360A003070000000320EA
:10252000A003030000000720200003000000072094
:1025300020800300000006603080010000000EC013
:1025400018C0010000001C800FE0000000003800EF
:102550000070000000007000003800000000E00083
:10256000001C00000000C003000F00000000801FDE
:10257000C0070000000000FEFF010000000000F89E
:102580007F000000000000000000000000000000CC
:10259000000000000000000000000000000000003B
:1025A000000000000000000000000000000000C06B
:1025B00007000000000000C007000000000010E05D
:1025C0000700000000003CE00738000000007EE04B
:1025D00007FC00000000FEF00FFE00000000FEFF00
:1025E000FF7F00000000FCFFFF7F00000000FCFFF9
:1025F000FF3F00000000FC3FFC3F00000000FC0328
:10260000C03F00000006FE00007F0000001E3F00EB
:1026100000FC700000FF1F0000F8FF0000FF070033
:1026200000E0FF0000FF078003E0FF0100FE038ED3
:1026300073C0FF0000FC01FE7F807F0000F801FEF8
:102640007F803F0000F8003C7C001F000078E00F16
:10265000F0071E000078E007E0071E000078E003A6
:10266000C0071E00003CC00180033C00E03FC001E9
:102670008003FC03E03FF0010003FC07E03FF001B2
:10268000000FFC07E03FF001000FFC07E03FC00136
:10269000000FFC07803FC0018003FC07003CC00125
:1026A00080033C000078E003C0071E000078E007CC
:1026B000E0071E000078E01FF0071E0000F800FE93
:1026C0007F041F0000FC00FE7F001F0000FE01FED3
:1026D0007F803F0000FF01CF71807F0080FF03C03B
:1026E00001C0FF0000FF070000E0FF0000FF0F0037
:1026F00000F0FF00000E1F0000F8780000007E00D0
:10270000007E60000000FC01803F00000000FC072C
:10271000E03F00000000FCFFFF3F00000000FEFF64
:10272000FF3F00000000FEFFFF7F000000007FF081
:102730000F7F000000003FE0077E000000001CE06B
:10274000073C0000000000E007080000000000E077
:1027500007000000000000E003000000000000008F
:102760000000000000000000000000000000000069
:102770000000000000000000000000000000000059
:102780000000000000000000000000000000000049
:102790000000000000E00700002004000027E40023
:1027A000803DBC01C0100803C00000038000000190
:1027B0008001800180E18701F0300C0F10100808C3
:1027C000101008081010080810100808F0300C0F3E
:1027D00080E087018001800180000003C0000002CA
:1027E000C0000003803DBC010027E400002004007D
:1027F00000E00700000000000000000000000000F2
:1028000000000000000000000000000000000000C8
:1028100000000000000000000000000000000000B8
:1028200000020000000000FF000300000000800024
:1028300003040000000000000C0000000000000085
:10284000180000000000803F300000000000E0E0C1
:10285000610000000000F8F04300000000003CFCB4
:102860008700000000000EFE0F000000000007FEC1
:102870001F000000000001FF1F100000008001FF8A
:102880003F100000008080FF3F00000000C080FF7C
:102890007F000000004080FF7F000000004080FFBC
:1028A0007F000000004080FF7F000000004080FFAC
:1028B0007F000000004080FF7F000000004000FF1C
:1028C0007F000000004000FF7F00040000C000FE09
:1028D0007F000400008000FE3F000000008001FC3B
:1028E0003F000000000001F0FF000000000003C0F6
:1028F0001B010000000006000803000200000C009D
:102900000405000C00001803030A00040000E0C7DF
:10291000013400080000803F002800000000001083
:1029200000480000000000900008000000000210B5
:102930000078000000000410C12001000000041015
:102940002121020000000810217102000000100087
:102950006249000000001020C280006000002020BA
:1029600006800000000060C00580000000004040BC
:10297000688800200000804018900060000080817E
:1029800016700140000000012130028000000102A9
:102990006038010000800406C0C400000000040488
:1029A0000063000000000208003200000000001870
:1029B000000E0000000000001000000400000000F5
:1029C00020000004000000002000000000000000C3
:1029D0004000000000000000008000000000000037
:1029E00000000100000000000000010000000000E5
:1029F0000000000000000000000000000000008057
:102A000000000000000000000000000000000000C6
:102A100000000000000000000000000000000000B6
:102A200000000000000000000000000000000000A6
:102A30000000000000000000000000000000000096
:10383000C000000000000000C00000000000000008
:10384000000000000000807F00000000000060C059
:1038500041000000000018004300000000000CF8C8
:103860008700000000000EFE8FC1000000000EFF68
:103870001FC10000000087FF1F2200000080C3FF5F
:103880003F0600000080C3FF3F0400000080E1FF0E
:103890007F08000000C0E0FF7F1800000040E0FF4C
:1038A0007F1000000040E0FF7F2000000040E0FFAC
:1038B0007F2000000040E0FF7F4000000040E0FF6C
:1038C0007F8004000040E0FF7F8004000080E0FF74
:1038D0007F0000000080C0FF3F0000000080C1FFAB
:1038E0007F000000000081FF9F000000000003FF38
:1038F0001F030000000006FC8F04000000000C60A5
:103900000409000000001800031200000000E0C0DD
:10391000012400010000803F006800010000000851
:10392000005C000000000008001200000000008899
:1039300000710000000200880032000000000088D2
:1039400000240000000000103930000000000010CA
:103950004948040000000010484008000000002012
:1039600033401800000200E00400000000000040A6
:10397000440000000000004028880000000000C152
:103980001CD801000000008113300200000000027A
:10399000603801000000000680A400000000000460
:1039A0000063000000000008003000000000001864
:1039B000001A400000000010000400000000002079
:1039C0000000000000000060000000000000004057
:1039D000000000000000C080000000000000008126
:1039E00000000000000000000100000000000000D6
:1039F00000000200000000000002040000000000BF
:103A000000040000000000000000000000000000B2
:103A100000000000000000000000000000000000A6
:103A20000000000000000000000000000000000096
:103A30000000000000000000000000000000000086
:103A40000000000000000000000000000000000076
:104810000000000000000000200000000000000078
:104820009000000000000000E00000000000000018
:104830000010000000000000000000000000000068
:10484000000000000000807F000000000000F0FF7A
:10485000010000000000D8710300040000000C00FB
:104860000400000000000600080000000000037FB4
:10487000100000000000C1FF310000000080E1FFD7
:10488000230000000088F0FF2700000000C8F0FFB0
:104890004F000000004CF8FF4F0000000044F8FFFC
:1048A0005F0001000044FCFF5F0000000044FCFFCB
:1048B0005F0000000044FCFF5F0000000044FCFFBC
:1048C0005F0040000044FCFF5F0040000088FCFFE8
:1048D0007F0000000088F8FF7F0000080098F9FFC3
:1048E000BF0100000010F1FF1F0200000020F3FFD5
:1048F0001F0C00000060E6FF8F9800000040CCFF16
:1049000007B30000008018FF03660100008061F01B
:10491000006402000000813F0098020000000208CD
:10492000001004000000020800960C00000004487B
:1049300000E908000000084800491000000E084087
:1049400000673000001200901870200000120090E4
:1049500024984000000C001025800040000000203A
:1049600021000200000000E01A8006000000004064
:1049700044800400000000403C8C090000000080DE
:1049800013C81A00000000002130020000000000DF
:104990004C3803000004000088EF01000000000014
:1049A0001062040000000000303208000000000027
:1049B000201A0800000000000004000000000000B1
:1049C00000000000000000000000000000000000E7
:1049D0000000000000000000000000000000400097
:1049E0000000000000000000000000000000800047
:1049F00000000000000000000000000000000000B7
:104A000000000000000000000000000000000000A6
:104A10000000000000000000000000000000000096
:104A20000000000000000000000000000000000086
:105800000000000000000000C000000000000000D8
:105810000000000000000000000000000000000088
:105820000000000000000000000000000000000078
:105830000000000000000000000000000000000068
:10584000000000000000807F000600000000F0DF84
:10585000010900000000D811030A000000000C003C
:105860000404010000000600080003000000030C0F
:10587000100000000000817F300000000080E1FF88
:10588000200000000080F0FF2300400000C0F8FF6F
:10589000430000000040FCFF470000000040FCFF08
:1058A000470000000040FCFF4F0000000040FEFFEA
:1058B0004F0000000044FEFF4F0000000044FEFFC8
:1058C0004F0000000044FEFF4F00000000C8FEFF34
:1058D0004F0000000088FCFF6F0010000098FCFFE4
:1058E000A70100000010FDFF370200000020FBFFB1
:1058F000130C00000060F6FF0F1800040040FCFFCE
:10590000873100000080F8FF036200000080E1FFA3
:1059100000E400000000813F00980200000002083F
:10592000001805000000020000170D0000000440F0
:1059300000A5080000000850806810000000085012
:10594000006530000000109008722000000000A0E8
:105950001C984000000000202180C00000000020B2
:1059600023800000000000C01E80000000C0004036
:1059700044800400002001803C8C090000200100CC
:1059800013C80A0000C0000020301200010000000F
:10599000403803000200000080EF0100000000001A
:1059A0000062000000000000303200000000000033
:1059B000201A180000000000400410000000000041
:1059C0004000000000000000000000000000000097
:1059D00000000000000000000000000000000000C7
:1059E00000000000000000000000000000000000B7
:1059F000000000000000000008000000000000009F
:105A00000000000000000000000000000000000096
:105A10000000000000000000000000000000000086
:105A20000000000000000000000000000000000076
:105A30000000000000000000000000000000000066
:1068200000000000000000FF0000000000008000E9
:1068300003000000000000000C0000000000000049
:10684000180000000000807F301000000000E0C34E
:10685000613000000000F8014300000000003C002F
:106860008400000000001E0008000000000003007B
:106870001000000000000100300000000080C10393
:10688000200000000080F01F2000000000C0FC3F3E
:10689000408001000040FE7F404002000040FEFFBB
:1068A000400002000040FFFF4180410000C0FFFFA8
:1068B0004100400000C0FFFF4100000000C0FFFF9A
:1068C0004300000000C0FFFF730000000080FFFFD6
:1068D000730000100080FFFF630000000080FFFFD6
:1068E000E30000000000FFFF310300000000FFFF95
:1068F000110400000000FEFF090800000000FCFF7A
:10690000C43000000000F8FF836100000000E0FFD9
:10691000016200000000803F0094000400000010AD
:10692000000C01040000001000880000000004209A
:1069300080D10000000008604023100000000860C3
:1069400040223000000010C0405220000000208093
:1069500080494000000020400780C0000000404007
:10696000098080000000C08002800000000080805C
:1069700044800000000000013D820100000000038F
:10698000124402000000000220381200000000043F
:106990004018210000000000809F0000000000005F
:1069A0000062000000000000001200000000000073
:1069B000000C00000000300040001000000100004A
:1069C000C000200000024000000000000000200085
:1069D00000000000000000000000000000000000B7
:1069E00000000000000000000000000000000000A7
:1069F0000000000000000000000000000000000097
:106A00000000000000000000000000000000000086
:107810000000000000000000000400000000000064
:1078200000000000000000FC00000000000000005C
:1078300003000000000000000C0000000000000039
:10784000180000000000807F300000000000E0C051
:1078500061000400000078004300000000003C00CC
:107860008400000000000E008801000000000700F6
:107870001001000000000300300200000080010041
:10788000200603000080E0012000030000C0FC0F80
:10789000400000000040FE1F400000000040FF3F8D
:1078A0004000000000C0FF7F4000000000C0FF7FDC
:1078B0004000000000C0FFFF6000000000C0FFFFAC
:1078C0006000100000C0FFFF700028000080FFFF74
:1078D000610020000080FFFF210038000080FFFFD2
:1078E0006100000C0000FFFFB00100000000FFFF7E
:1078F000100200000000FEFF080C00000000FC7FEA
:10790000041800000000F87FC32000000000E0FF22
:10791000016100000000803F0092000000000010A4
:10792000008C000000000010008800000000002013
:1079300000C8000000000060C0700000000000608F
:1079400020310000000000C0005120000000008035
:10795000A049400000000040C384C0000000404037
:10796000078080000000C08004800001000080804B
:1079700044000000000000013D82010000000003FF
:107980001246020000000002303C12000000000419
:10799000601C21000000000C809C200000000008FA
:1079A0000063400000000010001200000000000012
:1079B000000C0000000000000000000000000000BB
:1079C0000000200000000000800000000000000017
:1079D00000000000000000000000000000000000A7
:1079E0000000000000000000000000000000000097
:1079F0000000000000000000000000000040000047
:107A00000000000000000000000000000000000076
:107A10000000000000000000000000000000000066
:107A20000000000000000000000000000000000056
:107A30000000000000000000000000000000000046
:10884000000000000000807F00000000000060C009
:1088500061800000000018004300030000000C00CD
:108860008480010000000E00880102000000070063
:108870001001000000000300300200000088030027
:1088800020060000008801002004000000C4000051
:1088900040080000004400004008000100C47F00C0
:1088A0004010000000C4FF016020000000C4FF036E
:1088B0006020000000C4FF076040000000C4FF0FFC
:1088C0006080000000C4FF0F4080C000008CFF1FCC
:1088D000400040000080FF1FE00000000080FF1FFC
:1088E000600300000000FF1F300200000000FF1FB7
:1088F000D00400000000FE1F080900000000FC1F5B
:10890000040E00000000F81F031800064000E0DF1E
:10891000311000080000803F4030000900000010C6
:108920008048000600000020004B000000000020EE
:10893000004600000000006000240000000000402D
:1089400000380000000000C078300000000000C0C7
:1089500048480000000000804984000000000080BA
:1089600031820000000000000380000000000000D1
:1089700006000000000000001E810102000000004F
:1089800018C30204000000002036020400000000AA
:10899000601C03000000000C808D01000000000836
:1089A0000072000000000010001280000000003083
:1089B000000C8000000000200000000100000040CA
:1089C00000000000000000400000000000000080E7
:1089D0000000000000000000000000000000000097
:1089E0000002000000000000000000000000000085
:1089F0000000000000000000000000000000000077
:108A00000000000000000000000000000000000066
:108A10000000000000000000000000000000000056
:108A20000000000000000000000000000000000046
:109820000000000000000000000300000000000035
:109830000000000000000000000000000000000028
:10984000000000000000807F00000000000060C0F9
:1098500001000000000018000300000000000C00E0
:1098600004080000000006000800000000000300DB
:1098700016002000000001003400000000800100FC
:109880002800000000800300380400000080010070
:109890007008000000C001007008000000400000D7
:1098A0004010000000C007004020000000C01F0062
:1098B0004020000000C03F004040800000C07F000A
:1098C0004080000300C0FF00408000010080FF01D5
:1098D000400101020088FF01600202000088FF03CE
:1098E000200402000018FF03100804000010FE030B
:1098F00010080C000030FE07281008000020FC07AC
:10990000442010000040F8078B40000000C0E0C772
:10991000914000000083807F2081000080040120AE
:109920006082000000040100448600000003024041
:1099300084640080000004400839000000000440F6
:109940001811000000000880D032000000001880CC
:109950003C32000000001000332400000000200012
:10996000436200000030600092410000004040006F
:109970000C4000000000000038C001000040000062
:1099800060E0020000000000C030030000000000A2
:10999000001B010800000000008600180000000005
:1099A000004400000000000000340000000000003F
:1099B00000080000C00000000000000020010000BE
:1099C000000000032001000000000000C000008033
:1099D0000000000000000000010000000000000086
:1099E0000100000000000000020000000000000074
:1099F0000000000000000000000000000000000067
:109A00000000000000000000000000000000000056
:109A10000000000000000000000000000000000046
:109A20000000000000000000000000000000000036
:10A8200000000000000000FF001000000000800099
:10A8300003200000000000000C00000000000000E9
:10A84000180000000000C07F30000000000060C061
:10A8500061000000000018000320000000000C0050
:10A8600004200000000006000800000000000300B3
:10A8700016000000000001002C0000000080010014
:10A880002800000000800100780000000080010026
:10A890004000000000C001004080000000C0000037
:10A8A00040000002004000004000000000400000A6
:10A8B0004000000000C000004000000000C0030095
:10A8C0004000000000800F004000000000801F00DA
:10A8D0004000000000803F002000000000003F001A
:10A8E000E001000000007F007003000000007E0017
:10A8F000100200000000FE00080400300000FC0010
:10A90000040800080000F000031000000000E0C18F
:10A91000033020000000003F06204000000000201F
:10A920000C404000000000400C808000000000C08F
:10A9300018C00001000000C0306000010000048069
:10A940007130000200000880E1180004003010801F
:10A95000E227000400481000932800000040200077
:10A960008F480000002060008E4000000000400082
:10A970008C50000000008000785000000000800132
:10A9800020F0030000000001C0700200000000027F
:10A990008019010000000006008600000000050488
:10A9A000004200000000000800320000000004180F
:10A9B000001C010000000000000002000000000078
:10A9C0000000000000000000000000000000000087
:10A9D00000000000000C0000000000000012000059
:10A9E000000000000012000000000000000C000049
:10A9F0000000000000000000000000000000000057
:10AA00000000000000000000000000000000000046
:10AA10000000000000000000000000000000000036
:10AA20000000000000000000000000000000000026
:10B820000000000000000080000000000000000098
:10B8300063180000000000000C1800000000000069
:10B84000180000000000C07F30000000000060C051
:10B8500061000000000018004300000000000CC060
:10B8600084000C00000002008B01020000000300B5
:10B8700016011400000007003C02080000800300CD
:10B8800020060000008003002004000000C000002B
:10B890004108000000400000400800001040000087
:10B8A00040000C002040000040000C004040000020
:10B8B0004000000000400000400000000040000088
:10B8C00040000000004000004000000000C00000F8
:10B8D00040000000008000006000000000800100C7
:10B8E000A001200000000100300200000000030061
:10B8F000480C0000000006008618000000000C0044
:10B900008331000000001880006300000000E06048
:10B91000006600000000803F009E0000000000283C
:10B92000001C0100000000280098000000000048F2
:10B9300000F00000000000C800400000000000808F
:10B940000068000000000090017600000000001078
:10B95000039B00000000001083800008000000200E
:10B9600067800010000C00E03E80001000000040E6
:10B9700044800020000080403C8C01000000808159
:10B9800013C8320000000001203022000000040231
:10B990004038030000000A0680ED01000000120498
:10B9A00000620000000000080032000000000008F3
:10B9B000001A000000000010000400000000002039
:10B9C0000000000000000020800004000000004093
:10B9D0000001080000000080000218000400008040
:10B9E000000200000800000001000000000000004C
:10B9F0000300000000C00000020000000020010061
:10BA00000000000000000000000000000000000036
:10BA10000000000000000000000000000000000026
:10BA20000000000000000000000000000000000016
:10BA30000000000000000000000000000000000006
:10C820000001000000000000800100000000000086
:10C8300000020000000000000000000000000000F6
:10C84000000000000000C07F0000000000007098A1
:10C8500041000000000018304200000000000C0001
:10C8600086000000000006000E010000000003002A
:10C870001C090000000001003C1A060000800100B5
:10C880003C060600008000007804000000800000E4
:10C890007808000000C000007008000000400000A0
:10C8A0006010000000400000402000010040000037
:10C8B00040208000004000004040000100C0010016
:10C8C00040800002008001004080000000800300E2
:10C8D000400000000080030060000000000007002E
:10C8E00020000000000007007000000100000200AE
:10C8F00090010003000006000802000000000C0088
:10C900002C04000000003000430800000000E0C0DC
:10C91000911800000000807FA0100000000000308F
:10C9200020310000000000104049000C0000001001
:10C93000404600000000001080460000000000207B
:10C940008044000000000020006902000000004058
:10C9500000310200000000400041000000000080A3
:10C960008040000000000080C04000000000000087
:10C97000B1400000000800001BC1000000000000E2
:10C9800026C6010000000000403802000000000040
:10C990008019410000000006008F410000000004E3
:10C9A00000D28000000000080032000000000118E2
:10C9B000000C00000000001000000000000000203B
:10C9C0000000000000000020000000000000004007
:10C9D0000000080000000080000008000000008245
:10C9E000000210000000000001040000000000C070
:10C9F00003000000000000200300000000000020F1
:10CA00000500000000000000000000000000000021
:10CA10000000000000000000000000000000000016
:10CA20000000000000000000000000000000000006
:10CA300000000000000000000000000000000000F6
:10CA400000000000000000000000000000000000E6
:10D830006000000000000000000000000000000088
:10D84000000000000000803F00000000000060EECB
:10D8500001000000000018EA0300000000000CE0D6
:10D8600007200000000006E00F600000000003E059
:10D870001F600000000001E01F800000008801E040
:10D880003F000000008800E03F000000008400E04E
:10D890007F000000004400E07F000000004400C062
:10D8A0007F000000004400C07F2000000044008092
:10D8B0007F200000004400007F4002000044000080
:10D8C0007E808600004400007880800100CC00004B
:10D8D00060000100008003002000020000800300BF
:10D8E00020000200000005003000040000000B00D2
:10D8F00070000C0020001600C800080040000C005A
:10D900000401100000001800030230000000E0C015
:10D91000010420000000807F220840000000004C2D
:10D92000620CC0000000008244120000400000822F
:10D9300084100040E00000020913000040000004D1
:10D940001113000000000008D212000000010008BE
:10D950002424000000010010242404000000001012
:10D9600048260C00000000208843080000000060EA
:10D9700008400000000000407E40000000000080E1
:10D98000E3C0000000000000C03101000000000002
:10D99000801F010000000000008600000000000061
:10D9A0000046000000000000003100000000000000
:10D9B000000E000100000000000000000000000058
:10D9C0000000000000000000000000000000000057
:10D9D00000000000000000000000000000000080C7
:10D9E0000000000000000000010020000000000016
:10D9F0000308000000000000020800000000000012
:10DA00000400000000000000000000000000000012
:10DA10000000000000000000000000000000000006
:10DA200000000000000000000000000000000000F6
:10DA300000000000000000000000000000000000E6
:10DA400000000000000000000000000000000000D6
:10E8100010000000000000001000000000000000D8
:10E8200000000000000000000000000000000000E8
:10E8300000000000000000000000000000000000D8
:10E84000000000000000803F000000000000E0E742
:10E8500001000000000098E10300000000000CF03F
:10E8600007040000000006F00F040000000003F899
:10E870001F000000000001F81F000000008001F8E8
:10E880003F000000008000F83F000000008000F81A
:10E890007F000200004000F87F000C00004000F8FC
:10E8A0007F000600004400F07F000800004400F0F4
:10E8B0007F000000004400E07F000000004400C032
:10E8C0007F000000004400807F0000000084000002
:10E8D0007F0001000088000038000200008801006D
:10E8E00020000200001801003000040000100300A6
:10E8F0007000680000301600C800681800206C0026
:10E90000040110000040F8000302300000C0E0C025
:10E91000010420000080803F000840000000011C2E
:10E920000010C0000003006408168000000400C24C
:10E9300008210001000400849028000300030084E3
:10E9400021250002000000086322000400000018D6
:10E95000632000000000001096200000000000204E
:10E960000C000000000000200C41080000000040E6
:10E9700098401000000000C04C40200000000180C2
:10E9800013C000000090030060300100000001008F
:10E990008019010000000000008E0000000000004F
:10E9A00000440000000000000034000001000000EE
:10E9B000001800000200000000000000000000003D
:10E9C0000000000000000000000000000000000047
:10E9D0000000000000000000000000000000000037
:10E9E0000000000000000000000020000000000007
:10E9F00000000000000000000018000000000000FF
:10EA00000400000000000000000000000000000002
:10EA100000000000000000000000000000000000F6
:10EA200000000000000000000000000000000000E6
:10EA300000000000000000000000000000000000D6
:10EA400000000000000000000000000000000000C6
:10F8000000000000000000004000000000000000B8
:10F81000A000000000000000000000000000000048
:10F8200000000000000000FF000000000000800059
:10F8300003000000000000000C00000000000000B9
:10F84000180000000000803F300000000000E0E3EE
:10F85000610000000000F8F00306000000003CF822
:10F8600007060000000002FC0F000000000003FC7F
:10F870001F000000000001FE1F000000008001FECC
:10F880003F000000008000FE3F00000000C000FEBE
:10F890007F000000004000FE7F000000004000FEEE
:10F8A0007F000000004000FE7F800000004000FE5E
:10F8B0007F800100004000FC7F000000004000FC51
:10F8C0007F000000004000F87F00000000C000F052
:10F8D0007F000000008000E03F0000000080018009
:10F8E0003F000001000001007000800100000300E3
:10F8F00090000000000006008801000000000C00DD
:10F90000040300000040D801030E000000C0E0C363
:10F91000011C00000080803F003800000000011042
:10F920000028000000000100025800000000020052
:10F930008271000000000400422200080000042040
:10F94000422200080000082044720000000010203D
:10F950008451000400001040048000080000204092
:10F960000E800010000060C08981001000E040801F
:10F9700078880020000081801C90004000008001F9
:10F980001370010000C000012030020000000000E0
:10F990006038010000000000C0C40000000000004A
:10F9A00000230001000800000832000100000000F0
:10F9B000080E00020000000010000000000000001F
:10F9C0000000000000000000000000000000000433
:10F9D00000C000000000000E0080000000000004D5
:10F9E0000000000000000000000000000000000017
:10F9F0000000000000010000000000000002000004
:10FA000000000000000000000000000000000000F6
:10FA100000000000000000000000000000000000E6
:10FA200000000000000000000000000000000000D6
:10FA300000000000000000000000000000000000C6
:020000040801F1
:1008000000000000C00203020304010304060C0000
:10081000FD08FE09FF018C034B0A5E2007E6F1F399
:100820009F00210AE6F12369EF60CE00220BE6F17A
:100830002759922539BF002311E6F1C349344849AD
:100840009664493448494E062412E6718543524B5A
:10085000C231C9922C498630A700250DE6F16351BB
:100860004B1AA649D4CE02260FE6F1235AD4668B42
:10087000122D5A7222002709E6F123699D9F002854
:100880000BE6F16961DA73ACC300290AE6F1C8D559
:100890001E339D022A0DE6F153A34C1A262DCA19C8
:1008A000012B0BE6F193D36CD0D29C192C0AE6F104
:1008B000F3290D7312002D09E6F1731A749E002EB0
:1008C00008E6F1F34BCE002F0DE671A6611AA66182
:1008D0001AA6390D3010E6F14F5912292D529225E2
:1008E00059B49301310AE6F123A1DAE34E06320D41
:1008F000E6F14F595A9AD274D0A900330DE6F14F60
:10090000599AC96992453B19340CE671A7A59E0610
:1009100031CDC900350EE6710F4A9A0E715A19721F
:100920003200360FE6F14F693A4459922559B49393
:1009300001370BE6710F4A9686D576063810E6F138
:100940004F5992455396644916ED6400390EE6F10D
:100950004F5992255934A4A59D0C3A09E6F1B3E606
:100960004C39033B0BE6F1B3E6B434CC49003C0A06
:10097000E6F163616BDC4E053D0AE6F1B30DFAA0CA
:1009800073033E0AE6F1C7AD613B0B003F0BE6F196
:100990004F591A567330674010E6F14F599225C9E6
:1009A000922CC9120F39154111E6F14F5992255970
:1009B0003228599225594E054212E6710F5196641C
:1009C000C91065499664C9909301430BE6F10F493C
:1009D000DAF39053014412E6710F5196644996641C
:1009E000499664C9909301450EE6F10F499A0E515C
:1009F0005A1E722A00460CE6F10F499A0E51DACEC1
:100A0000044710E6F10F495A59B2244BB268C8A9FD
:100A1000004812E67167499664C9A0644996644922
:100A20009653014909E6F18F698F3B194A0AE6F1AD
:100A30008F696F3A0B004B11E67167499644D116E6
:100A4000D5922CC9722A004C0AE671A77D1E722A23
:100A5000004D10E67167896550BA25599225594EA7
:100A6000054E10E67167899448493F299192E554F3
:100A7000004F10E6F14F5992255992255992453B66
:100A800019500FE6710F51966449960C515A67023E
:100A90005111E6F14F599225599225599245AB0EC5
:100AA000035212E6710F51966449960C51966449AF
:100AB000965301530DE6F10F491ACF6965C8C90075
:100AC0005409E6710F5ADA77065512E671674996AE
:100AD00064499664499664D19053015610E6716753
:100AE00049966449966449166D3B195711E671673A
:100AF0004996644996B40C8A25CBA9005811E67131
:100B0000674916256125CA922CC9722A005910E638
:100B1000716749966449160D6965C8C9005A0CE6A3
:100B2000710F6AD8351D742A005B0BE6F10C51DA9F
:100B3000AF430E035C0DE671A4711AA7711AA739B1
:100B40000C5D0AE6F10C697F1A72185E0AE6F12361
:100B5000611265393F5F09E6F1F3EBA0C30060085D
:100B6000E6F1C7757E01610EE6F153E76848B224ED
:100B70008B869C0A6210E671A7E910654996644964
:100B8000960C3919630CE6F15387246D1E722A0006
:100B90006411E6F163693424599225599245434E14
:100BA00005650FE6F15387244BB26450E221A7029A
:100BB000660CE6F123531A0E59DACE026711E6F1FC
:100BC0005387244BB2244BB2684E861C016810E652
:100BD00071A7E910654996644996643915690BE671
:100BE000F12339A676D5C9006A0BE6F1433998F6A8
:100BF000A653006B0EE671A7A54A26265954CBA929
:100C0000006C09E6F1A77DD6C9006D0DE6F11387EA
:100C100028E9DF922CA7026E10E6F11387284BB269
:100C2000244BB224CBA9006F0EE6F153A72CC99236
:100C30002CC9A29D0C7011E6F11387284BB2244BEE
:100C4000B26488D22A007110E6F15387244BB22493
:100C50004BB268485B00720CE6F15387244BD276A6
:100C60002600730DE6F15387249ED364C8C900742F
:100C70000BE6F1A7E19836EB64007510E6F113B3CB
:100C8000244BB2244BB268C8A900760EE6F113B328
:100C9000244BB2248B923067770FE6F113B3244BC9
:100CA0005A06C592E55400780EE6F113B3248BB6CC
:100CB000294BB29C0A7911E6F113B3244BB2244BB1
:100CC000B268482B43047A0CE6F11307356C1C74A8
:100CD0002A007B0CE6F169694D94D3B20E037C08BF
:100CE000E671A5FD3B057D0CE6F1C86959D4D29AA1
:100CF0004E017E0AE6F1738B9244E7087F07E6F126
:100D0000F39F00A007E6F1F39F00A10AE6F1233963
:100D100098F6CE00A211E6F1E3E190D4922CC992AC
:100D200070C8720A00A30EE6F1235A540D872C4CAA
:100D3000079D0AA40DE6F153A34C8BDAB428A70251
:100D4000A50DE671675112866338A63903A60AE637
:100D500071A5EDB4B49D02A70FE6F1235A94A55AEC
:100D6000D49B9A459904A808E6F127397F06A91172
:100D7000E6F10F4928254AA4448A3119722A00AAAB
:100D80000DE6F1237236D57664C81901AB0FE6F192
:100D900093A3244AA2B6288B722200AC0AE6F17310
:100DA0001AD43A2300AD08E6F173DB7903AE10E6FE
:100DB000F10F49A85892C5928CC9905301AF07E62C
:100DC000F1EFFC19B00AE6F1235AD4A6F309B10DEC
:100DD000E6F1E3693668690E0D3A15B20CE6F123C7
:100DE0005A9486C521E706B30CE6F1235A14C6517E
:100DF0004DE708B409E6F143619DDF00B50CE6F16B
:100E000013A3FE69A9E62000B610E6F10F499F94EE
:100E10002CC9922CC9929C0AB708E6F173CC7904CC
:100E2000B809E6F1F37B1A8600B90AE6F123A1DAE4
:100E3000B87304BA0DE6F1235AD49B0E0D39230082
:100E4000BB0FE6F113A32CCAA2962889723200BC0C
:100E500010E6F1846A2D89C2A296D486304D00BD79
:100E60000FE6F1846A2D89C216A514168700BE11FB
:100E7000E6F1685118279234865A521BC23401BFDA
:100E80000DE6F123399886D52CDAC900C011E6F1B8
:100E9000C4E19425593228599225594E05C111E6CD
:100EA000F185E19425593228599225594E05C212EF
:100EB000E6718549366549960C4A96644996530110
:100EC000C313E6F14449A24D5992258392255992C4
:100ED000E55400C411E6F1D4A1294BB26450B22408
:100EE0004BB29C0AC512E6718549366549960C4A93
:100EF000966449965301C611E6F10F492DC9926CCB
:100F0000506A4996EC5400C70CE6F10F49DAF390A9
:100F1000A56108C80FE6F1C4E190A4E910A5F1901D
:100F20005301C90FE6F185E190A4E910A5F19053B2
:100F300001CA10E67185493624693A44693CE45493
:100F400000CB0FE6F1D4A12149D3214AE321A70226
:100F5000CC0BE6F1C4E19876DCC900CD0BE6F18557
:100F6000E19876DCC900CE0CE671854936A61D777E
:100F70003200CF0BE6F1D4A131EDB89301D00CE6ED
:100F8000F16F51CB12F5692703D111E6F1444922E3
:100F900065899448493F29914E05D210E6F1C4E194
:100FA00094255992255992453B19D310E6F185E1D4
:100FB00094255992255992453B19D411E6718549DA
:100FC0003665499664499664D14E06D512E6F144D9
:100FD00049A24D59922559922559B49301D611E64B
:100FE000F1D4A1294BB2244BB2248B763200D70C1A
:100FF000E6F153A34CD4A29C1B00D810E6714653D3
:1010000096444A5FA4248BA69C06D911E6F1C459E4
:10101000254BB2244BB2248B869C0ADA11E6F1856B
:1010200059254BB2244BB2248B869C0ADB13E67104
:10103000854994255992255992255934E45400DC68
:1010400012E6F1D4912CC9922CC9922CC9A221A7E5
:1010500002DD0FE6F18559254BB268482B434E0659
:10106000DE11E6F1A3E9106549966449960C514EEC
:1010700003DF0FE6F16B51972CAA255292E864002A
:10108000E010E671C53934474392255934E45400E1
:10109000E110E6F1853936474392255934E454008E
:1010A000E210E67185490ECDD1906449160D3915CF
:1010B000E311E6F14449A243733424599245434E67
:1010C00005E410E6F1273934474392255934E454B6
:1010D00000E510E671854918CED1906449160D39A6
:1010E00015E60FE6F113152D8994CA521C722A00D9
:1010F000E70DE6F15387246D1EB2340C01E810E6CB
:1011000071C539342459922583120F3915E910E637
:10111000F18539362459922583120F3915EA11E6E3
:101120007185490E0D499664C9A0C4434E05EB1064
:10113000E6F12739342459922583120F3915EC0B27
:10114000E671C539A476D5C900ED0BE6F18539A65F
:1011500076D5C900EE0CE67185490EA95D753200A1
:10116000EF0BE6F12739A476D5C900F011E671241A
:1011700061259CB2244BB2248B763200F113E6F148
:101180004449A2234394255992255992E55400F2EB
:1011900010E671C53934654996644916ED6400F36B
:1011A00010E6F1853936654996644916ED6400F418
:1011B00010E67185490E4D5992255992453B19F516
:1011C00011E6F14449A243539664499664D14E0610
:1011D000F610E6F1273934654996644916ED640046
:1011E000F70BE6F1937368D0A19C19F80FE6F19321
:1011F000A229525AA4248BA69C06F911E671C5397E
:101200009225599225599245434E05FA11E6F185EA
:10121000399425599225599245434E05FB12E671A2
:1012200085498E64499664499664D1905301FC11B6
:10123000E6F127399225599225599245434E05FDED
:1012400013E6F185399425599225599245435A1947
:101250002200FE12E671A7E9106549966449960CD2
:10126000519A8300FF13E6F12739922559922559A7
:101270009245435A19220000000004FFFF000000BD
:101280000F18000813180008F71500081815AF19F3
:10129000FF1815AE19FF1815A115C819FF1815A0CC
:1012A00015C019FF1815A115C019FF1815A015C8EC
:1012B00019FF1815AE15D5168015A8163F15D316AB
:1012C000001540158D16141520160015A115C8150A
:1012D000DA1612158116CF15D916F115DB16401541
:1012E0002E15A415A619FF1815AE15D5168015A82C
:1012F000163F15D316001540158D1614152016002F
:1013000015A115C815DA1612158116EF15D916A1F3
:1013100015DB1600152E15A415A619FF1815AE1508
:10132000D5168015A8163F15D316001540158D1635
:10133000141520160015A115C815DA160215811608
:10134000CF15D916F115DB1640152E15A415A619C3
:10135000FF1815AE15A415D5165015A8163F15D3B0
:101360001600154015AD168B15D9162215DB16354E
:101370001532158116FF15A615DA161219FF181564
:10138000AE15D5168015A8163F15D31600154015B5
:101390008D16141520160015A115C015DA16121594
:1013A0008116CF15D916F115DB1640152E15A4158B
:1013B000A619FF000001140A6464323200127A0098
:1013C0000004289610080000800040000001140A64
:1013D0006464323200093D000004289610080202BD
:1013E000800040000414010800000020900200006A
:1013F00070010008E015010890020020A80A000012
:10140000B210000831533C3C280D41542B52455337
:10141000544F52450D0A0D580943574D4F44453D11
:10142000310E68204950534E54504346473D312CAD
:10143000382C226E7470312E616C6979756E2E6352
:101440006F6D2234580C4A41503D223232222C22F8
:101450003101591B28094D515454555345524218D6
:101460000A302C312C224E554C4C271814657370C1
:1014700038323636266B307967747866506263513D
:1014800016184464656561326265393465353439EE
:101490006238623938343165393935363765306309
:1014A0003662303463303861643233353363303719
:1014B0003339653234633466666435643832356294
:1014C000333264222C30029A227C1809434C49455D
:1014D0004E5449447D9A226C5A2E80A83F7C7365F5
:1014E000637572656D6F64653D325C2C7369676E00
:1014F0006D6574686F643D686D61637368613235F2
:10150000365C2C74696D657374616D703D31373173
:10151000323134333236393131377C682C4F4E4ECC
:1015200064181A696F742D30367A303065646371CF
:101530003173746F37752E6D7174742E1988196834
:1015400075622E616C6979756E63732E636F6D229F
:101550002C313838332C31462C535542459E2F734D
:1015600079732FAE5A2FAE18182F7468696E672FD3
:10157000736572766963652F70726F7065727479C6
:10158000111A744C1947F11CEF01FF0112011707E2
:101590003C020404029A50101901116A4C10130302
:1015A000337A370C120D7A110C12306A340C23087E
:1015B0003112048A16551303016A050C1B0402211B
:1015C000792A2304017DFFFF020C6F320C191411DC
:1015D00045020406082D01020304046506070809F4
:04000005080000ED02
:00000001FF
