:020000040800F2
:10000000F80700200501000851160008EF14000849
:100010004D16000869130008732100080000000055
:10002000000000000000000000000000011B0008AC
:100030006D13000800000000091A0008291C0008C0
:100040001F0100081F0100081F0100081F01000810
:100050001F0100081F0100081F0100081F01000800
:100060001F0100081F0100081F0100081F010008F0
:100070001F0100081F0100081F0100081F010008E0
:100080001F0100081F0100081F0100081F010008D0
:100090001F0100081F0100081F0100081F010008C0
:1000A0001F0100088D1C00081F0100081F01000827
:1000B0001F0100081F0100081F0100081F010008A0
:1000C0001F0100081F0100081F0100081F01000890
:1000D0001F0100088D1E00081F0100081F010008F5
:1000E0001F0100081F0100081F010008DFF810D0E1
:1000F00000F076FC00480047692F0008AFF300804D
:10010000F80700200648804706480047FEE7FEE75C
:10011000FEE7FEE7FEE7FEE7FEE7FEE7FEE7FEE7B7
:100120002D1C0008ED000008D2B201E000F8012B00
:10013000491EFBD270470022F6E710B513460A4667
:1001400004461946FFF7F0FF204610BD30B50546BE
:100150002A460B4612F8010B13F8014B08B1A042D6
:10016000F8D01CB1002802D06D1CF1E7284630BD44
:10017000421C10F8011B0029FBD1801A70470000B7
:100180000FB400B58DB010A909900B9000914FF0FD
:10019000FF300A9000200C90054806900548079013
:1001A0006A4609A80F9900F0AFF90DB05DF814FB8D
:1001B00025050008430500082DE9FF5F1D464FF0A7
:1001C000FF3BD5E9014691465F464FF00008A9691B
:1001D0007F1C01988847296A824688470028F6D103
:1001E000BAF1FF3F0CD024F4C064002E19DD600684
:1001F00014D5BAF12B0F09D0BAF12D0F0ED103E0AF
:10020000584604B0BDE8F09F44F48064A9697F1C9F
:1002100001988847761E8246002E02DDBAF1300F23
:1002200003D0B9F1000F26D032E0A969761E44F45C
:1002300000747F1C019888478246002E05DDBAF1C4
:10024000780F06D0BAF1580F03D0B9F1000F10D0D3
:100250001EE0B9F1000F02D0B9F1100F18D1A96951
:10026000761E24F400747F1C019888478246102073
:1002700002E0082000E00A20814609E008FB0908A6
:10028000A969761E44F400747F1C01988847824651
:10029000002E05DD4946504600F021F90028EDDA30
:1002A000E96901988847A00502D46FF00100A8E72A
:1002B000E00725D1600613D5600502D5C8F100001E
:1002C00000E0404629680A1D2A600968220501D518
:1002D000087015E0220701D5088011E008600FE0E2
:1002E0002868011D29600068210502D580F800807A
:1002F00006E0210702D5A0F8008001E0C0F80080E8
:1003000038467EE72DE9FF5FD2E901A74FF00008EC
:10031000916999461446DDF838B0464601988847F9
:10032000054659EA0B0005D009E0A169761C019841
:1003300088470546216A284688470028F5D1681C69
:1003400003D05FEACA7005D015E04FF0FF3004B06B
:10035000BDE8F09F2068011D2160D0F800800AE010
:100360005FEACA7001D108F8015BA169761C7F1EA3
:10037000019888470546002F1ADD681C18D0B9F18E
:10038000000F0DD0E81705EBD060421120F01F00E0
:1003900059F822102A1A012090400142E0D107E0CA
:1003A000BBF1000FDCD1216A284688470028D7D04E
:1003B000E16901988847BBF1000F07D1002E05DDE8
:1003C0005FEACA7002D1002188F80010A068B84224
:1003D00003DDBBF1000F03D017B16FF00100B6E7EA
:1003E0003046B4E770B5064601F028FF04680546BC
:1003F0000A220021304600F003F92C6070BDC1F3E1
:100400000A5210B5C1F3130140F2FF3341F48011D9
:100410009A4201DA002010BD40F233439A42A2F220
:10042000334203DC524200F04AF810BD904010BD48
:1004300030B50B46014600202022012409E021FAB4
:1004400002F59D4205D303FA02F5491B04FA02F5B1
:100450002844151EA2F10102F1DC30BD2DE9F05F48
:100460000546002092469B46884606468146402423
:100470001BE0284641464746224600F020F85346F6
:100480005A46C01A914110D311461846224600F030
:10049000B9FA2D1A67EB01084F46224601200021C8
:1004A00000F0B0FA17EB00094E41201EA4F1010440
:1004B000DFDC484631462A464346BDE8F09F202A05
:1004C00004DB203A21FA02F00021704721FA02F3FE
:1004D000D040C2F1200291400843194670473A28A3
:1004E00000D2303820F02002412A01D3A2F1370097
:1004F000884201D34FF0FF3070470000026811447A
:100500001378016018467047D1600449516104496D
:10051000116200211161114600F0A4BAFD04000827
:10052000510A0008426842B1016811F8013B23B149
:10053000521EC0E90012184670470121C160881E92
:10054000704742685AB1C368016843B983688B42F7
:1005500005D0491E521CC0E90012002070474FF020
:10056000FF3070470FB4002300B589B00CA900918B
:100570000B996FF00042CB601E4B06931E4B079306
:100580000423CDE901321D4A089202466B46002041
:1005900000F094FC09B05DF814FB70B586B0064617
:1005A0004FF0FF300091CDE90101002015460C46C7
:1005B00004903246694604A8FFF7D4FF0246049827
:1005C000211825B108B1084600E0204628600498AB
:1005D00000280DD0002A02DD0098884208D0081BB0
:1005E0000094CDE901043246694604A8FFF7BAFF3A
:1005F00006B070BD2505000843050008510A000833
:100600002DE9F04791460F4680460446002614F82F
:10061000015B2DB100F018FA0068405DC007F6D10B
:100620002B2D02D02D2D18D0641E4A463946204667
:1006300000F060FD27B13968A14201D1C7F8008000
:1006400071054FF002040BD54042002803DD01F094
:10065000F5FD0460A007BDE8F08746F48066E4E796
:100660000028F8DA01F0EAFD04606FF00040F2E7DC
:100670002DE9FE4F804681EA0300C00F0C46009032
:1006800021F0004123F00045B8EB0200A94105D25A
:100690004046214690461C460B46024623F0004049
:1006A000104347D0270DC7F30A00C3F30A51029045
:1006B000401A019040286BDAC3F3130040F4801B0A
:1006C0000098924620B10023D2EB030A63EB0B0B98
:1006D00001985946C0F14002504600F093F9064691
:1006E0000D4650465946019A00F09BF910EB080060
:1006F0006141002487EA115284EAE7731A4340D02B
:10070000009A62B3019A012A4FEA075215DC001BD6
:1007100061EB02014FF0004202EA0752CDE90042CC
:10072000001C41F5801132462B4600F041FD03B01C
:10073000BDE8F08F40462146F9E7001B61EB02015E
:10074000001C41F5801300185B412018A2F500172A
:1007500047EB030140EAD570B6196D4111E06D0811
:100760004FEA360645EAC0754FEA0752001B61EBB7
:100770000201001C41F5801149084FEA30000019C0
:10078000514132462B4603B0BDE8F04F00F001BDA9
:100790000098012240000023D0EB020263EBE073DB
:1007A000009821464FEAE074B8EB000061EB0401C9
:1007B000E9E783F000435BE781F0004158E72DE96A
:1007C000FE4F81EA030404F0004421F0004100944C
:1007D0004FF0000B23F0004350EA01045ED052EAD0
:1007E00003045BD0C3F30A54C1F30A552C44A4F2AA
:1007F000F3340194A0FB0254C1F3130141F48011BE
:10080000C3F3130343F4801301FB024400FB034EC4
:10081000840A970A44EA815447EA8357A4FB07688D
:1008200002958D0A05FB07854FEA932C04FB0C54B7
:100830002705029D4FEA065847EA1637B5EB08052B
:100840006EEB070C870E920E47EA811742EA83127D
:10085000A7FB0201B6EB0B0164EB00042B0D43EA8E
:100860000C335E1844EB1C50DA465146E7FB02019C
:10087000C5F313044FEA0B3343EA14534FEA04322F
:10088000019C43EA0603A4F10C040294009CCDE908
:1008900000B400F08DFC03B0BDE8F08F00200146ED
:1008A000F9E72DE9F04D81EA030404F0004B21F053
:1008B000004514464FF0000A23F0004150EA0502BB
:1008C00020D054EA01021DD0C5F30A570246C5F3F1
:1008D0001303C1F31300C1F30A5640F4801543F427
:1008E0008013A7EB0608101BD64608F2FD3873EB01
:1008F000050002D308F1010801E092185B41B8F14C
:10090000000F03DA00200146BDE8F08D00204FF40F
:100910008011064684460EE0171B73EB050705D3CE
:10092000121B63EB050306434CEA010C49084FEA2E
:10093000300092185B4150EA0107EDD152EA030002
:1009400012D082EA040083EA0501084305D0101B97
:10095000AB4106D20122002306E000224FF0004303
:1009600002E06FF0010253101AEB06004CEB085145
:1009700010EB0A0041EB0B01BDE8F04D00F009BCA3
:10098000C1F30A52C1F3130140F2FF3341F4801165
:100990009A4202DA00200146704740F233439A42FD
:1009A000A2F2334202DC5242FFF789BD00F02AB8BE
:1009B00030B5041E71F1000404DB4FF000444042E6
:1009C00064EB0101141E73F1000405DB1C464FF0BB
:1009D0000043524263EB0403994208BF904230BD8A
:1009E000064C074D06E0E06840F0010394E807007C
:1009F00098471034AC42F6D3FFF77CFB4C4E00080E
:100A00006C4E0008202A04DB203A00FA02F1002094
:100A100070479140C2F1200320FA03F3194390403C
:100A20007047202A06DBCB17203A41FA02F043EA4E
:100A3000E07306E041FA02F3D040C2F12002914097
:100A40000843194670470000004870474C4D0008A5
:100A500010B50446FFF7F8FF0068005D00F00100E4
:100A600010BD00002DE9F34F8BB04FF0000801F1ED
:100A70000C000C464FF0010B46460DF1080A0190A0
:100A80006269012101989047051E2DD0252D2CD09B
:100A9000216A8847C0B16269012101989047216AA3
:100AA00088470028F7D1411E62690198904700E00D
:100AB000761CA1690B988847216A88470028F7D1DE
:100AC000E1690B988847DBE7A1690B9888470746DF
:100AD000A84201D1761CD3E7E1690B9888477F1CB7
:100AE00002D1B8F1000F6FD047E1002762693D469F
:100AF0003946019890472A2804D16269012101985A
:100B000090470125DFF8889262690121019890479A
:100B1000A0F130010A290AD24F45E5DC07EB870135
:100B200000EB4107303FDFD445F01005ECE7E90664
:100B300001D46FF000476C280AD04C2814D06828E4
:100B400015D06A280DD074281CD07A281AD01DE040
:100B500062690121019890476C2802D045F0040594
:100B600014E045F002050DE045F020050AE0626959
:100B7000012101989047682802D045F0080505E05A
:100B800045F400656269012101989047C4E9015765
:100B900065283DD019DC58287AD00CDC452837D0A0
:100BA00004DC252826D0412831D131E046282FD039
:100BB00047282CD12CE05B2877D0612828D06328E7
:100BC0007CD0642823D15AE0D1E06F2848D008DCDB
:100BD00066281DD067281BD0692821D06E2816D121
:100BE00027E0702845D0732868D0752847D078282A
:100BF0000DD14DE0A1690B988847054625283FF4A3
:100C000069AFE1690B9888476D1C3FF46AAFB4E0A7
:100C100023466A466FF001000B9900F04FF99FE000
:100C200045F040006060A80723464FF0000236D42C
:100C30003EE0E8077FF447AF2068011D21600068AF
:100C4000290501D506701BE7290701D5068017E79E
:100C5000A90703D5F117C0E9006111E706600FE7A6
:100C600045F040006060A80723464FF0080216D404
:100C70001EE040F60E0125EA0100606016E045F036
:100C800040006060A80723464FF00A0207D40FE037
:100C900045F040006060A80708D5234610226FF099
:100CA00001000B99AFF300805AE007E023461022C1
:100CB0006FF001000B99FFF77FFA51E04FF0000948
:100CC0004F464B46632802D05B2807D041E020798D
:100CD000C00601D40120A06001273AE06269012129
:100CE000019890475E2805D14FF001096269494695
:100CF00001989047216939B900210A46534643F8C3
:100D00002120491C0829FADBB0B3216969B9C11750
:100D100000EBD16253110AEB830122F01F02821A09
:100D200001200B68904003430B6062690121019828
:100D300090475D28E8D1B9F1000F09D00020514655
:100D400051F82020D24341F82020401C0828F7DB2E
:100D500002AB224600976FF001000B99FFF7D2FA21
:100D600000280CDA401C08D1BBF1000F05D04FF071
:100D7000FF300DB0BDE8F08FFFE74046F9E7E90727
:100D800001D108F1010806444FF0000B78E600009D
:100D9000CCCCCC0C2DE9FF4F087883B09946FF28C6
:100DA00005D0491C2D2804D00024002008E0002094
:100DB0000BE00124F9E700EB800003EB4000491C45
:100DC0000B78FF2BF7D104B1404200230293147833
:100DD00019461D462D2C01D02B2C04D1521C2D2C34
:100DE00013D000240294AA461478FF2C0FD00A25B1
:100DF000A3FB057801FB05814FF0000C03FB0C11F0
:100E0000521CE3194AEB0101EEE70124EAE78144B1
:100E100053EA010002D019F5C87F06DA03980021D1
:100E2000C0E9001107B0BDE8F08F0025AE4E2F4697
:100E3000DFF8B882184600F009FACDE90001B9F1EF
:100E4000000002DAC9F1000400E004460023A74ACA
:100E50001AEB030B42EB045A12E0E00707D02A46D4
:100E6000334638464146FFF7AAFC074688462A46DD
:100E7000334610461946FFF7A2FC05460E4664109D
:100E8000002CEAD1DDE90001B9F1000F5A465346C2
:100E900006DAFFF706FD3A464346FFF702FD05E096
:100EA000FFF78DFC3A464346FFF789FC029A0AB1E8
:100EB00081F00041039AC2E90001B3E72DE9FF4F39
:100EC0001F468DB0D7E901464FF0FF382E2045462A
:100ED0004FF000090B90B9696D1C0E988847396A6C
:100EE000824688470028F6D1BAF1FF3F0AD024F4A1
:100EF000D064002E11DDBAF12B0F08D0BAF12D0FFE
:100F00000BD102E0404611B08DE744F48064B9692A
:100F10006D1C0E9888478246761E6946600501D58D
:100F20002D2000E02B208DF8000001F1010B0DF1C8
:100F3000200809E0B9696D1C0E98884782460F9811
:100F400044F40074761E0560002E02DDBAF1300F05
:100F5000F0D00B998A453ED144F0800406E00F9909
:100F6000681CA9F1010944F400740860B9696D1C9A
:100F7000761E0E98884782463028F0D02BE00B99D9
:100F80008A4505D1200603D444F08004761E18E07B
:100F9000504601F035FA08B30DF11301761E44F402
:100FA00000748B4508D2AAF130000BF8010B200623
:100FB00007D5A9F1010003E0200602D409F10100E0
:100FC0008146A00502D50F99681C0860B9696D1C9F
:100FD0000E9888478246002ED1DC53E0002E51DD6A
:100FE000BAF1650F02D0BAF1450F4BD1A00549D532
:100FF000B9696D1C24F44074761E0E9888478246A9
:10100000002E0CDD2B2804D0BAF12D0F07D144F4AB
:101010008074B9696D1C0E9888478246761EE0057B
:1010200001D52D2100E02B2108F8011BCDF82C80E3
:1010300021E00DF12901761E44F4007488450CD29C
:10104000AAF1300010F0FF0088F8000002D10B99DF
:10105000884509D908F1010806E0E00501D52448D2
:1010600001E042F20F708146B9696D1C0E98884705
:1010700082460F980560002E04DD504601F0C0F94D
:101080000028D6D1F9690E988847FF208BF8000018
:1010900088F800000020069007904B466A4608A991
:1010A00006A8FFF777FEA00502D46FF001002AE73B
:1010B00014F0240F0AD0E00714D1DDE906123868D5
:1010C000031D3B600068C0E900120BE0DDE906018A
:1010D00000F0C8F80146E00704D13868021D3A6004
:1010E0000068016028460EE7000014400000F03F51
:1010F000F1D8FFFF2DE9F05F824600780027154602
:101100008B460AF10104B946302801D09DB113E0A5
:1011100014F8010B0127782803D0582801D045B1D5
:101120000AE00DB1102D07D10027102514F8010B8E
:1011300002E0082500E00A250026B0460EE005FB87
:10114000080005FB06F1012701EB10461FFA80F8A5
:10115000B6F5803F00D3B94614F8010B2946FFF7D6
:10116000BEF90028EBDABBF1000F05D00FB1641E09
:1011700000E05446CBF80040B9F1000F06D001F072
:101180005DF802210160C81EBDE8F09F48EA0640F4
:10119000FAE710B5141E73F1000408DA401C41F19F
:1011A000000192185B411A4301D120F0010010BDEB
:1011B0002DE9F04D92469B4611B1B1FA81F202E061
:1011C000B0FA80F220329046FFF71CFC04460F462E
:1011D00040EA0A0041EA0B0153465A46084313D03D
:1011E000114653EA010019D0C8F140025046FFF7FA
:1011F00066F905460E46504659464246FFF702FC40
:10120000084305D0012004E020463946BDE8F08DB2
:101210000020054346EAE0762C4337430A986305ED
:10122000E40AA0EB08000022FD0A44EA47540A3011
:1012300002D500200146E9E7010510196941DDE901
:10124000084500196941BDE8F04DA2E70EB540F22E
:10125000334202920022CDE900221346FFF7A8FF95
:1012600003B000BD01F0004330B421F0004150EA6A
:10127000010206D00A0DA2F56072C1F31301002A23
:1012800002DC30BC00207047440F44EAC104C100B6
:10129000E01830BC00EBC250AFF300800029A8BFBB
:1012A0007047401C490008BF20F00100704710B48F
:1012B000B0FA80FC00FA0CF050EA010404BF10BC44
:1012C000704749B1CCF1200421FA04F411FA0CF171
:1012D00018BF012121430843A3EB0C01CB1D4FEAAA
:1012E00000614FEA102042BF002010BC704700EBA5
:1012F000C35010440029A4BF10BC7047401C4900D3
:1013000008BF20F0010010BC704770B58D1810F8B0
:10131000014B14F0030201D110F8012B231106D167
:1013200010F8013B03E010F8016B01F8016B521E4D
:10133000F9D1ABB110F8012B04F00C048A1A0C2C73
:1013400003D0A2EB84129B1C08E010F8014BA2EB27
:101350000422F8E712F8014B01F8014B5B1EF9D5A6
:10136000A942D4D3002070BD00BFFEE7704700B58E
:10137000034603E04FF47A7000F005F8181EA3F15D
:101380000103F7D100BD00EBC001C9004FF0E0221E
:101390005161002191610521116100BF4FF0E021F1
:1013A000096901F480310029F8D004214FF0E022CE
:1013B000116170472DE9F04102460025002600200A
:1013C00000230024002791F803C00CF00F0591F8CA
:1013D00003C00CF0100CBCF1000F03D091F802C058
:1013E0004CEA050591F800C0BCF1000F31D014683B
:1013F00000202BE04FF0010C0CFA00F3B1F800C014
:101400000CEA03069E4220D183004FF00F0C0CFA29
:1014100003F7BC4305FA03FC4CEA040491F803C04B
:10142000BCF1280F06D14FF0010C0CFA00FCC2F8F9
:1014300014C00AE091F803C0BCF1480F05D14FF089
:10144000010C0CFA00FCC2F810C0401C0828D1D3D3
:101450001460B1F800C0BCF1FF0F34DD5468002007
:101460002EE000F1080C4FF0010808FA0CF3B1F877
:1014700000C00CEA03069E4221D183004FF00F0CFE
:101480000CFA03F7BC4305FA03FC4CEA040491F898
:1014900003C0BCF1280F05D100F1080C08FA0CF8C4
:1014A000C2F8148091F803C0BCF1480F07D100F1D5
:1014B000080C4FF0010808FA0CF8C2F81080401C24
:1014C0000828CED35460BDE8F08102460020D368DE
:1014D0000B400BB1012000E00020704741617047D4
:1014E000016170470AB1016100E04161704700BFCE
:1014F000FEE72DE9FF4F83B005460F469046DDE934
:10150000116ADDF8409035B1B8F1000F03D0B9F1A0
:10151000000F00D00EB905240EE00FB1069808B9EF
:10152000062409E002A8CDE90006424639462846CD
:10153000069B01F031FD0446012C17D10299685C2D
:1015400001F0C2FC8346BBF1010F05D10298401C9B
:1015500002903068801E306002982844C9F800006C
:10156000BAF1000F01D08AF800B000BF204607B0E2
:10157000BDE8F08F2DE9FE4F04460D4616461F4686
:10158000DDE90D9ADDF830803B463246294620469B
:101590008DE80007FFF7ADFFBDE8FE8FF8B5064602
:1015A0000D46002000900EB9052415E00DB9062463
:1015B00012E02A466946304602F04AFE2A4669464B
:1015C000304602F0CDF808B1012405E02A4669460C
:1015D000304602F02FF90446012C0BD10098A842A6
:1015E00008D22A466946304602F032FE0098A842E8
:1015F00000D002242046F8BD10B501210648FFF7AF
:1016000064FF20B901210448FFF76AFF03E00121CC
:101610000148FFF763FF10BD0008014008B5012134
:10162000042000F0F3F910208DF803000320ADF83A
:1016300000008DF8020069460348FFF7BBFE032156
:101640000148FFF74BFF08BD0008014000BFFEE75F
:101650007047000070B5002100230F22C47804B346
:10166000154C246804F4E064C4F5E064210AC1F177
:101670000403CA40447804FA03F1847814402143F7
:1016800009010E4C0678A155047804F01F050124C9
:10169000AC4005786D11AD0005F1E025C5F80041BD
:1016A00009E0047804F01F050124AC40044D0678DD
:1016B000761145F8264070BD0CED00E000E400E036
:1016C00080E100E002490143024A116070470000D6
:1016D0000000FA050CED00E070B500240EE00021DA
:1016E000204600F0F0F8002504E0002000F07CF92E
:1016F000681CC5B2802DF8DB601CC4B2082CEEDB80
:1017000070BD000008B50121082000F07FF9142009
:101710008DF8030003208DF802004FF48070ADF8BF
:10172000000069460A48FFF745FE4FF40070ADF827
:10173000000069460648FFF73DFE012211020448F9
:10174000FFF7D0FE012251020148FFF7CBFE08BD92
:10175000000C014070B50546002415E080202041B2
:1017600000EA05024FF400710E48FFF7BBFE0122AC
:1017700011020C48FFF7B6FE00224FF480710948B1
:10178000FFF7B0FE601CC4B2082CE7DB0122110297
:101790000448FFF7A7FE00224FF480710148FFF7CD
:1017A000A1FE70BD000C014010B5012251020A4893
:1017B000FFF798FE012211020748FFF793FE00226F
:1017C0004FF400710448FFF78DFE00224FF4807142
:1017D0000148FFF787FE10BD000C014010B5002244
:1017E0004FF400710648FFF77DFE01221102044804
:1017F000FFF778FE012251020148FFF773FE10BD8A
:10180000000C014070B5002406E0002500E06D1CCE
:10181000B5F57A7FFBD3641CB4F57A7FF5D3FFF777
:1018200071FFAE2000F0D0F8D52000F0CDF8802078
:1018300000F0CAF8A82000F0C7F83F2000F0C4F874
:10184000D32000F0C1F8002000F0BEF8402000F0E6
:10185000BBF8A12000F0B8F8C82000F0B5F8DA20F5
:1018600000F0B2F8122000F0AFF8812000F0ACF8E0
:10187000CF2000F0A9F8D92000F0A6F8F12000F060
:10188000A3F8DB2000F0A0F8302000F09DF8A420A1
:1018900000F09AF8A62000F097F88D2000F094F858
:1018A000142000F091F8AF2000F08EF8FFF714FF3D
:1018B00070BD10B50246012000E050430B1EA1F19F
:1018C0000101FAD110BD70B505460C4645F0B000D7
:1018D00000F07AF8102141EA141000F075F804F0D5
:1018E0000F0000F071F870BD2DE9F04105460E467D
:1018F0001746721ED206110E6A1E5206100EFFF710
:10190000E2FF002409E0A7F12001134A02EB0111D4
:10191000085D00F069F8601CC4B2082CF3DB721E8D
:10192000D206110E6A1E012303EB4202D0B2FFF76A
:10193000CAFF00240BE0A7F12001074A02EB0112C5
:1019400004F10801505C00F04FF8601CC4B2082C90
:10195000F1DBBDE8F0810000D84600082DE9F04732
:1019600080460E4617461D46002415E0281B411EE2
:101970000A20FFF79EFFB7FBF0F00A21B0FBF1F25F
:1019800001FB120000F130093019C1B24A4640464D
:10199000FFF7AAFF601CC4B2AC42E7DBBDE8F087EA
:1019A0002DE9F04107460E461546002407E02A5D62
:1019B0003019C1B23846FFF797FF601CC4B2285DEA
:1019C0000028F4D1BDE8F08110B50446FFF7ECFE25
:1019D0007820FFF7BFFE0020FFF7BCFE2046FFF790
:1019E000B9FEFFF7FBFE10BD10B50446FFF7DCFEA5
:1019F0007820FFF7AFFE4020FFF7ACFE2046FFF750
:101A0000A9FEFFF7EBFE10BD7047000029B1064AA2
:101A100092690243044B9A6104E0034A926982434B
:101A2000014B9A61704700000010024030B5002160
:101A30000022002400232D4D6D6805F00C0121B11A
:101A4000042905D0082923D105E0294D056022E0AD
:101A5000274D05601FE0254D6D6805F47012234D7C
:101A60006D6805F48034022505EB92421CB9214DC6
:101A7000554305600BE01D4D6D6805F400351DB143
:101A80001C4D5543056002E0194D5543056002E0C9
:101A9000174D056000BF00BF144D6D6805F0F001E3
:101AA0000909154D6B5C0568DD4045600F4D6D689B
:101AB00005F4E061090A104D6B5C4568DD40856006
:101AC0000A4D6D6805F46051C90A0B4D6B5C4568A1
:101AD000DD40C560054D6D6805F44041890B074D3B
:101AE0006B5CC568B5FBF3F5056130BD00100240C5
:101AF00000127A0000093D00D7010020E701002014
:101B00007047000010B504462146054800F02DFB43
:101B100000BF8021024800F05AFA0028F9D010BD19
:101B20000038014070B50446002504E0605DFFF711
:101B3000E9FF681CC5B2605D0028F7D170BD10B523
:101B400000F002F810BD00000CB5002001900090DC
:101B50003348006840F480303149086000BF3048A5
:101B6000006800F4003000900198401C019000983B
:101B700018B90198B0F5A06FF1D12948006800F4B8
:101B8000003010B10120009001E00020009000988A
:101B9000012843D12348006840F010002149086023
:101BA0000846006820F0030008600846006840F01E
:101BB000020008601A4840681949486008464068B1
:101BC00048600846406840F48060486008464068C5
:101BD00020F47C1048600846406840F4E8104860F3
:101BE0000846006840F08070086000BF0C4800683C
:101BF00000F000700028F9D00948406820F0030088
:101C0000074948600846406840F00200486000BF4D
:101C10000348406800F00C000828F9D10CBD000012
:101C200000100240002002407047000010B5134829
:101C3000006840F0010011490860084640681049FA
:101C400008400E494860084600680E4908400B49A4
:101C500008600846006820F4802008600846406854
:101C600020F4FE0048604FF41F008860FFF767FF14
:101C70004FF000600449086010BD000000100240F1
:101C80000000FFF8FFFFF6FE08ED00E010B50121AF
:101C9000054800F01AF8012805D10121024800F09A
:101CA00005F8FFF7A9FC10BD002C0140CA430282D1
:101CB000704721B1028842F00102028004E00288EC
:101CC0004FF6FE731A400280704730B5024600207E
:101CD00000230024158A05EA0103958905EA010419
:101CE00013B10CB1012000E0002030BD1AB183898E
:101CF0000B43838102E083898B438381704700001B
:101D0000002202881D4B98420ED01D4B98420BD0EA
:101D1000B0F1804F08D01B4B984205D01A4B984227
:101D200002D01A4B984204D14FF68F731A404B8859
:101D30001A43174B984207D0164B984204D04FF6DF
:101D4000FF431A40CB881A4302808B8883850B8817
:101D500003850A4B98420BD0094B984208D00E4B92
:101D6000984205D00D4B984202D00D4B984201D1BC
:101D70000B7A03860123838270470000002C014008
:101D8000003401400004004000080040000C004006
:101D90000010004000140040004001400044014099
:101DA000004801407FB505460C460121C802FFF7F7
:101DB0002DFE681E80B2ADF804000020ADF80600CC
:101DC000601E80B2ADF808000020ADF80A008DF862
:101DD0000C0001A90D48FFF793FF012211460B48A3
:101DE000FFF784FF19208DF8000000208DF8010016
:101DF00001208DF802008DF803006846FFF72AFCE9
:101E000001210248FFF755FF7FBD0000002C014073
:101E100070B504460D46002624E01448008860B9D9
:101E2000701C86B24FF47A70FFF7A1FAA64204DB69
:101E30000FA202210420FFF7B3FD11A11148FEF704
:101E400085F978B12A4601210220FFF7A9FD4FF458
:101E500000710C48FEF76FF900200B490880034918
:101E6000088000E0D9E700BF70BD00000600002038
:101E700054696D656F7574204552524F52000000D1
:101E80004F4B0000F40100200800002010B540F284
:101E900025510E4800F0A8F8012816D10B4800F093
:101EA0005FF90B490870084601780A4802880088E3
:101EB000401C084B188008488154012007490870CD
:101EC00040F22551014800F067F810BD003801408C
:101ED0000000002008000020F4010020060000207F
:101EE00000B587B001218803FFF790FD0121042090
:101EF000FFF78CFD18208DF81B004FF40070ADF833
:101F0000180003208DF81A0006A92148FFF752FA9D
:101F100048208DF81B004FF48060ADF818000320B6
:101F20008DF81A0006A91A48FFF744FA4FF4E13079
:101F300002900020ADF814000C20ADF81200002033
:101F4000ADF81000ADF80E00ADF80C0002A9114874
:101F500000F09AF8012240F225510E4800F06EF888
:101F60004FF4A060FFF7AEFB25208DF804000120A0
:101F70008DF807008DF805008DF8060001A8FFF721
:101F800069FB0121034800F016F807B000BD00000E
:101F9000000801400038014010B50022002340F63F
:101FA0006A14A14200D100BF0A1201249440A3B2D6
:101FB000DC43048010BD21B1828942F40052828149
:101FC00004E082894DF6FF731A4082817047024611
:101FD0000020B1F5007F00D100BF13880B400BB18A
:101FE000012000E00020704770B502460024002365
:101FF0000025002040F66A16B14200D100BFC1F3AF
:10200000421501F01F03012606FA03F3012D02D148
:102010009689334006E0022D02D1168A334001E052
:10202000968A33400C12012606FA04F416883440CE
:1020300013B10CB1012000E0002070BDF0B50346E3
:10204000002400260025002040F66A17B94200D17E
:1020500000BF1846C1F3421401F01F06012707FA1A
:1020600006F5012C01D10C3004E0022C01D1103016
:1020700000E014301AB107682F43076002E00768D8
:10208000AF430760F0BD00002DE9F04786B005467C
:102090000E460024A24600BFA1460027B08900B129
:1020A00000BF2F462C8A4CF6FF700440F088044392
:1020B0002C82AC894EF6F3100440B0883189084375
:1020C000718908430443AC81AC8A4FF6FF40044059
:1020D000B0890443AC8201A8FFF7A8FC1F488742DF
:1020E00002D1DDF810A001E0DDF80CA0A88900F411
:1020F000004040B10AEBCA0000EB0A103168490009
:10210000B0FBF1F807E00AEBCA0000EB0A103168F7
:102110008900B0FBF1F86420B8FBF0F0040120095D
:10212000642101FB1089A88900F4004040B13220ED
:1021300000EBC900B0FBF1F000F00700044308E039
:10214000322000EB09106421B0FBF1F000F00F0029
:1021500004432C8106B0BDE8F08700000038014040
:1021600001468888C0F308007047C1F308028280E6
:10217000704700BFFEE700000FB4084B10B504A97C
:1021800002AA039800F044F9044602A9002000F0D6
:10219000C2FC204610BC5DF814FB0000172B0008A1
:1021A0000EB507460E46144619491AA000F080FEE7
:1021B0001749384600F07CFE15491CA000F078FE57
:1021C0001349304600F074FE11491AA000F070FE69
:1021D00003AD0021681E054601700A21681E0546F0
:1021E00001700CE00A2094FBF0F100FB114030304C
:1021F000C1B2681E054601700A2094FBF0F4002C61
:10220000F0DC0349284600F053FE00F089FC000092
:10221000EC0100202A2A2A20617373657274696FA9
:102220006E206661696C65643A2000002C20666946
:102230006C6520002C206C696E652000004870479A
:10224000F00100200148006870470000F001002004
:1022500002E008C8121F08C1002AFAD1704770476F
:10226000002001E001C1121F002AFBD170470000CD
:102270000149086070470000F00100202DE9FF5F70
:1022800082B00021DDE90430020DDDF840B00343E7
:1022900018D044F61050A2F2FF32424315141198A0
:1022A00001281FD0A5EB0B00401C5FEA000A4FF08D
:1022B00000064E4FDFF83891B046504615D5CAF1AA
:1022C000000413E0119801244AA3012801D16FEA08
:1022D0000B010298119AC0E90031C0E9024206B030
:1022E000BDE8F09FCBF10000DFE704460021404A43
:1022F000491842EB0450CDE9001012E0E00707D086
:1023000032463B4640464946FEF759FA80468946E2
:1023100032463B4610461946FEF751FA06460F462E
:102320006410002CEAD1DDE90401DDE90023BAF1F3
:10233000000F06DAFEF743FA42464B46FEF73FFA35
:1023400005E0FEF7AEFA42464B46FEF7AAFA04460F
:102350000E460022284BFEF72BFB03D84FF0FF3030
:10236000014607E00022254B20463146FEF780F962
:10237000FEF706FB102409E0002C0ADB0A220023EA
:10238000FEF76CF8039B30321A55641E50EA0102C6
:10239000F2D1641C039AC4F111031444119A012A66
:1023A00003D0012208430DD10AE0084304D00020E5
:1023B0004FF0110B119072E7A3EB0B056D1E0DE0B2
:1023C0005B4504DD4FF0000205F1010504E003DA8E
:1023D0004FF00002A5F10105002AECD002981199F6
:1023E000C0E90231C0E9004579E70000000014406F
:1023F0000000F03F300000000000F0430000E03F2C
:1024000030380A2801D201207047002070470000B0
:102410002DE9FF4F95B09A46884606460025EEE125
:10242000252877D100242746F94A0121039400E0AA
:10243000044316F8013F203B01FA03F01042F7D1A4
:1024400030782A2811D06FF02F033078A0F13002B5
:10245000092A16D8039A44F0020402EB820203EB25
:1024600042021044761C0390EFE758F8042B0392C5
:10247000002A03DA504244F40054039044F002046A
:10248000761C30782E2816D116F8010F44F004047B
:102490002A280DD06FF02F023078A0F13003092BDD
:1024A00009D807EB870302EB4303C718761CF3E751
:1024B00058F8047B761C30786C280FD006DC4C284A
:1024C00017D068280DD06A2814D104E0742810D0E1
:1024D0007A280FD10DE044F400140AE044F480148B
:1024E00001E044F440147278824202D104F5801471
:1024F000761C761C307866280BD013DC582877D0F1
:1025000009DC002875D04528F6D04628F4D04728A5
:102510001AD193E118E0632835D0642879D0652872
:1025200012D18BE1702873D008DC6728F1D06928BC
:102530006FD06E280DD06F2806D1ACE073282CD058
:10254000752874D0782853D05246179990476D1C3F
:1025500054E1C4F30250022809D003280DD0D8F862
:10256000001004280DD00D6008F1040846E1D8F8E9
:102570000010EA17C1E90052F6E7D8F800100D8004
:10258000F2E70D70F0E718F8041B8DF8001000203A
:102590008DF80100EB46012003E058F804BB4FF032
:1025A000FF3061074FF0000102D40DE009F1010195
:1025B0008946B9420FDA8145F8DB1BF8091000297A
:1025C000F4D108E009F1010189468142FADB1BF8E8
:1025D00009100029F6D103985346A0EB09072146BC
:1025E0003846179A00F080FA284400EB090507E006
:1025F00044E008E10DE01BF8010B524617999047A3
:10260000B9F10109F7D2534621463846179AF2E04C
:1026100039E00A21C4F302524FF0000B0091022A64
:1026200006D058F8040BC117032A09D00AE023E0AA
:1026300008F1070020F00702F2E80201904605E0E9
:1026400000B2C117042A01D140B2C117002906DA2D
:102650000A460021404261EB02012D2202E02205E0
:1026600004D52B228DF80420012203E0E20701D0DB
:102670002022F7E7914657E00A2100E010214FF0B1
:10268000000B00910BE010214FF0000B44F004040C
:102690000827009103E008204FF0000B0090C4F3DE
:1026A0000252022A05D058F8040B0021032A08D050
:1026B00008E008F1070020F00702F2E80201904666
:1026C00003E080B2042A00D1C0B24FF00009220713
:1026D0002AD53278702A07D0DDF800C08CF0100CB3
:1026E0005CEA0B0C05D00EE040228DF8042001229C
:1026F00008E050EA010306D030238DF804308DF84D
:10270000052002229146009B83F0080353EA0B0345
:102710000AD150EA010201D1620705D530228DF8B5
:1027200004204FF001097F1E3278582A04D039A2C4
:102730000C920CAA02920BE03BA2F9E75B46009ACE
:10274000FDF78CFE0C9B9B5C029A521E029213704A
:1027500050EA0102F2D1029804A9081A00F1200BF4
:10276000600702D524F4803400E001275F4502DDD4
:10277000A7EB0B0000E0002000EB0B01009003989A
:102780004944401A0390E00306D453462146179A61
:10279000039800F0A9F90544002706E001A8524675
:1027A000C05D179990476D1C7F1C4F45F6DBE00319
:1027B0000CD553462146179A039800F095F9054425
:1027C00004E030205246179990476D1C0099481E2E
:1027D00000900029F5DC08E0029802995246007842
:1027E000491C0291179990476D1CBBF10001ABF198
:1027F000010BF1DC5BE100F065F90544761C3078F3
:1028000000287FF40DAE19B02846BDE8F08F000017
:1028100009280100303132333435363738396162B6
:10282000636465660000000030313233343536377A
:10283000383941424344454600000000600700D457
:10284000062708F1070020F00700F0E80223804681
:1028500003F0004C5FEA0C0001D097A009E02005CE
:1028600001D596A005E0E00701D095A001E0AFF208
:102870004C001390307823F0004365280CD006DC20
:10288000452809D046281DD047287FD13BE066283F
:1028900018D067287AD136E00021112F01DB1120F2
:1028A00000E0781CCDE9000104A90CA8FFF7E6FCC4
:1028B000DDE90D010C9A4FF0000B07F101091092B0
:1028C00000914EE04FF000400097CDE9011004A9BF
:1028D0000CA8FFF7D3FCDDE90D020C9B0F994FF01C
:1028E000000B91461093009211B9791C00EB01097D
:1028F000B7EB090003D4C0F1FF3B07F10109A9EBD5
:102900000700019042E0012F00DA01270021112F7A
:1029100001DD112000E03846CDE9000104A90CA832
:10292000FFF7ACFCDDE90D010C9A00914FF0000BB4
:10293000B946109221070FD4009A4A4503DA91460E
:1029400001E0A9F10109B9F1010F05DD109AA9F122
:102950000101515C3029F4D0B84202DA10F1040FC1
:1029600003DA0121CDE9011010E0002803DC8344E3
:10297000A9EB000102E0411C494500DD8946A0EBBE
:102980000B00401C01904FF000400290200705D43E
:102990000198484502DB4FF0FF30019000208DF890
:1029A0004B0002980DF14B07B0F1004F25D00220EB
:1029B0000C902B200D90029800280CDA40420290D7
:1029C0002D200D9007E00A210298FDF731FD3031EE
:1029D000029007F8011D0C99481E0C900029F2DCAA
:1029E00002980028EFD1791E0D980870307800F019
:1029F000200040F0450007F8020D11A8C01BC01DC3
:102A000002901398007800B1012000EB09010198B1
:102A100001EBE071029801440398401A401E0390B4
:102A2000E00306D453462146179A039800F05CF859
:102A300005441398007818B15246179990476D1CB9
:102A4000E00323D553462146179A039800F04CF82B
:102A500005441BE0BBF1000F07DB0098584504DD7F
:102A60001098179910F80B0001E017993020524682
:102A7000904701980BF1010B401E05F101050190F3
:102A800004D12E205246179990476D1CB9F10001D0
:102A9000A9F10109DEDC05E017F8010B5246179990
:102AA00090476D1C0299481E02900029F4DC5346A1
:102AB0002146179A03989EE62D0000002B00000087
:102AC000200000002DE9F041044600251E4617466F
:102AD000880404D405E039462020B0476D1C641EEC
:102AE000F9D52846BDE8F0812DE9F04104460025DE
:102AF0001E469046C80301D5302700E020278804F1
:102B000004D505E041463846B0476D1C641EF9D532
:102B10002846BDE8F0810A68531C0B6010707047AE
:102B200000BFFEE72DE9FF4705460C4617461E4647
:102B3000DDF830804FF000090020039002900190F2
:102B4000824605B105E040F2675226A12BA0FFF7AF
:102B500027FB1EB1B8F1000F00D005E04FF4AD62C5
:102B600020A129A0FFF71CFB224603A9284601F05B
:102B70006FFB0398A04228D20398285C5B2824D1DD
:102B80000398401C0390224603A9284601F060FBED
:102B900017E001A802AB224603A90090284600F0E6
:102BA000AFFB00B910E0BA4502D14FF001090BE0CC
:102BB000224603A9284601F097FB00B904E00AF178
:102BC000010A0398A042E4D300BFB9F1010F04D178
:102BD000029830600198C8F80000484604B0BDE88B
:102BE000F08700002E2E5C48415244574152455C0C
:102BF000636F72655F6A736F6E2E63006275662025
:102C0000213D204E554C4C0028206F757456616C48
:102C1000756520213D204E554C4C2029202626202C
:102C200028206F757456616C75654C656E677468A5
:102C300020213D204E554C4C2029000030B583B05A
:102C40000446FFF7FFFA05460020CDE900000246E2
:102C500021466846FDF7A1FC2846FFF709FBDDE9A0
:102C6000000103B030BD01460A46002002E0401CCE
:102C700053061A0E02F08003002BF8D170470000B3
:102C800010B52548FEF74EFF24A10220FFF7C0F83B
:102C90002448FEF747FF24A10220FFF7B9F8244893
:102CA000FEF740FF23A10220FFF7B2F82548FEF708
:102CB00039FF25A10220FFF7ABF82748FEF732FFC6
:102CC00026A10520FFF7A4F82748FEF72BFF27A130
:102CD0000520FFF79DF82948FEF724FF28A10520CD
:102CE000FFF796F82A48FEF71DFF2AA10520FFF7F7
:102CF0008FF84FF47A70FEF73AFBFEF7EDFC28A24E
:102D000001210220FEF74CFE4FF4FA60FEF72FFB84
:102D1000FEF7E2FC10BD00000A000020312E5245F3
:102D20005345540017000020322E4D4F44453100CA
:102D300025000020332E414C4959554E5F494E49DC
:102D4000540000004B000020342E574946495F5381
:102D5000554343455353000066000020352E4D5126
:102D60005454205553455200E2000020362E4D5158
:102D7000545420434C49454E544944004A010020D4
:102D8000372E4D51545420414C4959554E000000A6
:102D900090010020382E53554220544F5049430093
:102DA000455350383236365F494E495400000000D2
:102DB00010B5A2B0002400202190802101A8FDF7C9
:102DC000BAF918480088012829D13220FEF7CFFA35
:102DD00015A11948FDF7BAF908B301AB21AA1749A3
:102DE0001548FDF7CDF901A8FDF7C2F921998842F0
:102DF00015D12198C1B201A800F0ACFB0446022C09
:102E000003D10FA20121FEF7CBFD4FF400710A4858
:102E1000FDF791F900200D4908800249088022B091
:102E200010BD0000060000202B4D51545453554254
:102E3000524543563A000000F4010020004E0008BD
:102E40004A534F4E5F4552524F5200000800002037
:102E500000B5C1B00B4803780B4802780B4901A8B4
:102E6000FFF78AF901A8FEF75DFE09A10320FEF72E
:102E7000CFFF4FF4FA60FEF77AFAFEF72DFC41B06F
:102E800000BD00000400002003000020504D000899
:102E900053454544205355434345535300000000D8
:102EA00070B504460D46E0B2FEF72CFE204670BD1C
:102EB00070B50D46044602E02946FFF7F1FF14F80D
:102EC000010B0028F8D170BD01466E2916D006DC32
:102ED000222909D05B290BD0662911D10CE0742975
:102EE00008D07B290CD101E001200BE0062009E08D
:102EF000072007E0032005E0042003E0052001E0AF
:102F0000022000BF00BF704708B50146009161294B
:102F10000CDB66290ADC9DF800006138C0B2009025
:102F20009DF800000A30C0B200901AE041290CDB85
:102F300046290ADC9DF800004138C0B200909DF897
:102F400000000A30C0B200900BE0302907DB3929BD
:102F500005DC9DF800003038C0B2009001E0102080
:102F600000909DF8000008BD4FF4A060FEF7AAFB9A
:102F70004FF4E15142F21070FEF714FFFEF74EFBE2
:102F8000FEF740FCFEF7ACFFFFF77AFEFFF760FFAD
:102F900001E0FFF70DFFFCE72DE9F04F89B0064691
:102FA000884614461D46DDE9129A4FF0010B0020B9
:102FB0000890002707900690CDF814800EB104B158
:102FC00005E040F2D95245A14AA0FFF7E9F8B9F16E
:102FD000000F03D0BAF1000F00D005E040F2DA5242
:102FE0003EA14EA0FFF7DCF8B8F1000F01D005B10B
:102FF00005E040F2DB5239A155A0FFF7D1F85CE0C3
:10300000002004900898205C5B2825D14FF0FF3009
:1030100003900898401C089003AB2A4608A9204654
:1030200000F0EEFC0398002806DB0898A84203D2C3
:103030000898205C5D2802D04FF0060B40E008980D
:10304000401C089005A80090F01906AB039A05995A
:10305000FFF768FD04901EE0002003900898079099
:1030600003AB2A4608A9204601F04EF818B1681EA5
:103070000899884202D14FF0060B21E005A806A965
:10308000CDE9001007996218F019039B059900F02B
:10309000B9F9049000BF049810B94FF0040B0FE089
:1030A000069807440898A84206D20898205C2E2863
:1030B00002D10898401C089000BF0898A8429FD3EE
:1030C00000BFBBF1010F04D1C9F800700598CAF820
:1030D0000000584609B0BDE8F08F00002E2E5C4875
:1030E000415244574152455C636F72655F6A736F2A
:1030F0006E2E6300282062756620213D204E554CBF
:103100004C202920262620282071756572792021DF
:103110003D204E554C4C20290000000028206F75A2
:103120007456616C756520213D204E554C4C20290C
:103130002026262028206F757456616C75654C65B5
:103140006E67746820213D204E554C4C20290000AC
:1031500028206D6178203E20305520292026262009
:10316000282071756572794C656E677468203E2001
:1031700030552029000000002DE9FC5F06460C4672
:1031800017469846DDF838B0DDF830A0012516B1B5
:103190000CB107B105E040F2DB422EA133A0FEF7EF
:1031A000FFFFB8F1000F03D0BAF1000F00D005E027
:1031B00040F2DC4227A13BA0FEF7F2FF0D9818B1C8
:1031C000BBF1000F00D005E040F2DD4221A140A09C
:1031D000FEF7E6FF20680190DDF804903A4601A969
:1031E000304601F0DFF850B109F10100C8F80000E5
:1031F0000198A0EB0900801ECAF8000000E000253D
:10320000012D15D13A4601A9304601F021F8019867
:10321000B8420CD20198305C3A2808D10198401C81
:1032200001903A4601A9304601F012F800E000256D
:10323000012D08D1CDF800B03A4601A930460D9BCA
:1032400000F05EF80546012D01D101982060284666
:10325000BDE8FC9F2E2E5C48415244574152455CCC
:10326000636F72655F6A736F6E2E630028206275EC
:103270006620213D204E554C4C2029202626202812
:1032800020737461727420213D204E554C4C2029CE
:103290002026262028206D6178203E2030552029C8
:1032A0000000000028206B657920213D204E554C00
:1032B0004C20292026262028206B65794C656E67D6
:1032C000746820213D204E554C4C20290000000000
:1032D000282076616C756520213D204E554C4C2090
:1032E0002920262620282076616C75654C656E673E
:1032F000746820213D204E554C4C202900000000D0
:103300002DE9F84F07460C4690461D46DDF82890FB
:103310004FF0010A27B11CB1B8F1000F00D005E051
:1033200040F2A64217A11DA0FEF73AFF1DB1B9F168
:10333000000F00D005E040F2A74212A125A0FEF741
:103340002FFF20680090009E42466946384600F0F4
:1033500007FA30B942466946384600F06BFA012850
:1033600005D12E600098801BC9F8000001E04FF0E5
:10337000000ABAF1010F01D1009820605046BDE863
:10338000F88F00002E2E5C48415244574152455C54
:10339000636F72655F6A736F6E2E630028206275BB
:1033A0006620213D204E554C4C20292026262028E1
:1033B00020737461727420213D204E554C4C20299D
:1033C0002026262028206D6178203E203055202997
:1033D00000000000282076616C756520213D204E9C
:1033E000554C4C202920262620282076616C7565B6
:1033F0004C656E67746820213D204E554C4C202949
:10340000000000002DE9F04788B004460D4616463E
:103410001F46DDE910894FF0000A00200790049054
:1034200003900CB106B105E040F224522CA132A069
:10343000FEF7B6FEB8F1000F03D0B9F1000F00D0CF
:1034400005E040F2255226A135A0FEF7A9FE2A4646
:1034500007A9204600F0FCFE0798A84232D2079840
:10346000205C7B282ED10798401C07902A4607A98C
:10347000204600F0EDFE21E003A804A905AA06AB52
:10348000CDE9002102902A4607A92046FFF774FEE5
:1034900000B916E00598874209D1069821183046F0
:1034A000059A01F0D7F810B14FF0010A09E02A4659
:1034B00007A9204600F018FF00B902E00798A842CB
:1034C000DAD300BFBAF1010F05D10498C8F80000A3
:1034D0000398C9F80000504608B0BDE8F087000026
:1034E0002E2E5C48415244574152455C636F7265D1
:1034F0005F6A736F6E2E6300282062756620213D1F
:10350000204E554C4C2029202626202820717565F8
:10351000727920213D204E554C4C2029000000009E
:1035200028206F757456616C756520213D204E55BD
:103530004C4C20292026262028206F757456616C5B
:1035400075654C656E67746820213D204E554C4C66
:10355000202900002DE9F04F89B006468A464FF039
:10356000000B51463046FEF719F80546012D03D0F1
:10357000012009B0BDE8F08F334A07CA04AB07C386
:1035800000245BE004A951F82400FCF7F1FD074694
:10359000002007A908AACDE90021029004A850F84C
:1035A00024203B4651463046FDF7E4FF0546012DF9
:1035B00040D1DDE9071010F801900020DDE9072176
:1035C000885424B1012C0FD0022C2DD11CE0089876
:1035D000FCF708FF1D4908700223084602780821FD
:1035E0000120FEF7BBF91FE00898FFF727FB07460D
:1035F000FCF705FF164908700223084602780821E7
:103600001846FEF7ABF90FE00898FFF717FB0746DF
:10361000FCF7F5FE0F4908700223084602780821DE
:103620000320FEF79BF900BF00BFDDE9071000F89B
:10363000019002E04FF0020B02E0641C032CA1DBBE
:1036400000BF584695E70000CC4600080200002065
:1036500003000020040000202DE9F04105460C463F
:103660004FF00008022D02D3042D00D804E0802280
:1036700012A118A0FEF794FD022D02D0032D09D14E
:1036800003E0802740F2FF7608E04FF400674FF632
:10369000FF7603E04FF48037184E00BF00BFBC42F6
:1036A00009D3B44207D8B4F5584F02D3B4F5604FEC
:1036B00001D34FF001084046BDE8F0812E2E5C4852
:1036C000415244574152455C636F72655F6A736F44
:1036D0006E2E630028206C656E677468203E3D2066
:1036E000325520292026262028206C656E677468B4
:1036F000203C3D203455202900000000FFFF100031
:10370000F8B504460D461646002704200EA332469F
:1037100029460090204600F037FB88B905200CA30D
:10372000324629460090204600F02EFB40B9042086
:1037300009A3324629460090204600F025FB00B13F
:1037400001273846F8BD000074727565000000005E
:1037500066616C73650000006E756C6C00000000A3
:103760002DE9F04104460D4616460027324629460B
:10377000204600F017FE58B9324629462046FFF78A
:10378000BFFF28B932462946204600F061FB00B150
:1037900001273846BDE8F081F8B506460C461546C7
:1037A00016B10CB105B105E040F28E320DA113A0A7
:1037B000FEF7F6FC206800900DE02A466946304688
:1037C000FFF7CEFF00B909E02A466946304600F00F
:1037D0008BFD00B902E00098A842EED300BF00982C
:1037E0002060F8BD2E2E5C48415244574152455C42
:1037F000636F72655F6A736F6E2E63002820627557
:103800006620213D204E554C4C202920262620287C
:1038100020737461727420213D204E554C4C202938
:103820002026262028206D6178203E203055202932
:10383000000000002DE9F04389B007460E4690468F
:103840004FF000094FF0FF3427B11EB1B8F1000F5F
:1038500000D005E04FF483622FA135A0FEF7A0FC55
:10386000306800904BE000983D5C0098401C009050
:103870005B2D07D05D2D16D07B2D02D07D2D36D14E
:1038800010E000BF601C04B2202C02D14FF00309ED
:1038900030E001A80555035D42466946384600F010
:1038A00099FC27E000BF002C1BDD01A8005D7B28F0
:1038B00001D17D2D05D001A8005D5B2811D15D2DC2
:1038C0000FD1601E04B242466946384600F00CFD36
:1038D00030B101A8035D42466946384600F07AFCE3
:1038E00008E00CB9012000E00220814602E04FF020
:1038F000020900BF00BFB9F1000F00D002E000983C
:103900004045B0D300BFB9F1010F01D1009830603C
:10391000484609B0BDE8F0832E2E5C48415244571A
:103920004152455C636F72655F6A736F6E2E630010
:10393000282062756620213D204E554C4C202920C0
:103940002626202820737461727420213D204E5554
:103950004C4C20292026262028206D6178203E20EE
:103960003055202900000000F8B505460C461646E3
:1039700015B10CB106B105E04FF435720CA112A0DF
:10398000FEF70EFC206800900098B0420FD200981D
:10399000285C2E280BD10098401C00900023324652
:1039A0006946284600F02CF808B100982060F8BD60
:1039B0002E2E5C48415244574152455C636F7265FC
:1039C0005F6A736F6E2E6300282062756620213D4A
:1039D000204E554C4C202920262620282073746127
:1039E000727420213D204E554C4C20292026262043
:1039F00028206D6178203E203055202900000000ED
:103A00002DE9F84F05460E4691461F4600200090CE
:103A1000804625B11EB1B9F1000F00D005E040F29B
:103A20009F2219A11EA0FEF7BBFBD6F800A03468A8
:103A30001BE0285D302802DB285D392800DD16E018
:103A400097B1B8F1000F0FDB285DFFF75DFA4FFA71
:103A500080FB2148804504DC08EB88000BEB400824
:103A600001E04FF0FF3800BF641C4C45E1D300BFBC
:103A7000544505D90120009034600FB1C7F800808B
:103A80000098BDE8F88F00002E2E5C484152445744
:103A90004152455C636F72655F6A736F6E2E63009F
:103AA000282062756620213D204E554C4C2029204F
:103AB0002626202820737461727420213D204E55E3
:103AC0004C4C20292026262028206D6178203E207D
:103AD0003055202900000000CBCCCC0C2DE9F84358
:103AE00004460D4616464FF0000814B10DB106B15C
:103AF00005E040F2B71229A12EA0FEF751FB28687D
:103B00000090701E009988423FD90098205C5C2884
:103B10003BD10098401C275C662F21D00BDC2F2F57
:103B20001CD003DC87B1222F23D115E05C2F14D0E9
:103B3000622F1ED113E06E2F13D0722F12D0742F6C
:103B400011D0752F15D100E01DE0324669462046A0
:103B500000F0AAF8804616E000BF00BF00BF00BF1B
:103B600000BF00BF00BF0098801C00904FF001080C
:103B700009E0002F06DB202F04DA0098801C00905B
:103B80004FF0010800BF00BF00BFB8F1010F01D125
:103B9000009828604046BDE8F88300002E2E5C485F
:103BA000415244574152455C636F72655F6A736F5F
:103BB0006E2E6300282062756620213D204E554CF4
:103BC0004C2029202626202820737461727420211D
:103BD0003D204E554C4C20292026262028206D6162
:103BE00078203E203055202900000000F8B504461A
:103BF0000D46164614B10DB106B105E04FF43C7206
:103C000015A11BA0FEF7CCFA286800900098B042DE
:103C100021D20098205C652803D00098205C4528BC
:103C200019D10098401C00900098B0420AD2009828
:103C3000205C2D2803D00098205C2B2802D100980E
:103C4000401C00900023324669462046FFF7D8FE0C
:103C500008B100982860F8BD2E2E5C4841524457A8
:103C60004152455C636F72655F6A736F6E2E6300CD
:103C7000282062756620213D204E554C4C2029207D
:103C80002626202820737461727420213D204E5511
:103C90004C4C20292026262028206D6178203E20AB
:103CA00030552029000000002DE9FC4105460C4656
:103CB0001646002715B10CB106B105E04FF4C272EB
:103CC0001DA123A0FEF76CFA206801906B463246D6
:103CD00001A9284600F09CF938B3BDF80000B0F502
:103CE000584F17D3BDF80000B0F55C4F12D26B46A9
:103CF000324601A9284600F08BF9B0B1BDF80000AA
:103D0000B0F55C4F11D3BDF80000B0F5604F0CD298
:103D100001270AE0BDF80000B0F55C4F04D3BDF800
:103D20000000B0F5604F00D30127012F01D10198A9
:103D300020603846BDE8FC812E2E5C484152445735
:103D40004152455C636F72655F6A736F6E2E6300EC
:103D5000282062756620213D204E554C4C2029209C
:103D60002626202820737461727420213D204E5530
:103D70004C4C20292026262028206D6178203E20CA
:103D800030552029000000002DE9F04706460C467A
:103D900015461F46DDF820804FF0000916B10CB122
:103DA00005B105E040F25B2211A117A0FEF7F8F97A
:103DB00007B105E04FF417720DA121A0FEF7F0F94D
:103DC0002068A8420AD22068281A404506D32168F4
:103DD00088194246394600F03DFC8146B9F1010F91
:103DE00002D12068404420604846BDE8F0870000CA
:103DF0002E2E5C48415244574152455C636F7265B8
:103E00005F6A736F6E2E6300282062756620213D05
:103E1000204E554C4C2029202626202820737461E2
:103E2000727420213D204E554C4C202920262620FE
:103E300028206D6178203E203055202900000000A8
:103E40006C69746572616C20213D204E554C4C00AC
:103E5000F8B504460D461646002714B10DB106B15B
:103E600005E040F2153219A11EA0FEF799F9286865
:103E700000900098B04206D20098205C2D2802D114
:103E80000098401C00900098B0420FD20098205C2F
:103E9000302804D101270098401C009006E0002340
:103EA000324669462046FFF7ABFD0746012F0BD18E
:103EB000324669462046FFF757FD3246694620469E
:103EC000FFF794FE009828603846F8BD2E2E5C4817
:103ED000415244574152455C636F72655F6A736F2C
:103EE0006E2E6300282062756620213D204E554CC1
:103EF0004C202920262620282073746172742021EA
:103F00003D204E554C4C20292026262028206D612E
:103F100078203E203055202900000000F8B50446E6
:103F20000D46164614B10DB106B105E04FF46E72A0
:103F300023A129A0FEF734F9286800903AE0324620
:103F40006946204600F02EFA00B936E0324669464E
:103F5000204600F07DF90098B04204D20098205C21
:103F60003A2800D029E00098401C0090324669466B
:103F7000204600F06DF90098B0420AD20098205C0B
:103F80007B2803D00098205C5B2802D10098286031
:103F900013E0324669462046FFF7E2FB00B90CE029
:103FA00032466946204600F09FF90746009828608F
:103FB00007B902E00098B042C1D300BFF8BD0000CD
:103FC0002E2E5C48415244574152455C636F7265E6
:103FD0005F6A736F6E2E6300282062756620213D34
:103FE000204E554C4C202920262620282073746111
:103FF000727420213D204E554C4C2029202626202D
:1040000028206D6178203E203055202900000000D6
:104010002DE9F84F05460E4690469946002000903F
:10402000824625B11EB1B8F1000F00D005E04FF473
:10403000A4721CA121A0FEF7B3F8B9F1000F00D0C3
:1040400005E040F2491217A12AA0FEF7A9F834684A
:10405000A71D474518D2285D5C2815D1601C285C37
:10406000752811D1A41C0CE0285DFEF74DFF834696
:10407000BBF1100F00D106E04BEA0A101FFA80FADC
:10408000641CBC42F0D300BFBC4207D1BAF1000FA0
:1040900004D001200090A9F800A034600098BDE889
:1040A000F88F00002E2E5C48415244574152455C27
:1040B000636F72655F6A736F6E2E6300282062758E
:1040C0006620213D204E554C4C20292026262028B4
:1040D00020737461727420213D204E554C4C202970
:1040E0002026262028206D6178203E20305520296A
:1040F000000000006F757456616C756520213D20CD
:104100004E554C4C000000002DE9F04706460D4688
:10411000174698464FF0000926B11DB1B8F1000FBF
:1041200000D005E04FF4B56211A117A0FEF738F8F2
:1041300007B105E040F2A9520DA123A0FEF730F827
:104140002C6800E0641CBC4205D2305D2E2802D0F1
:10415000305D5B28F6D12868A04206D24FF00109F5
:104160002868201AC8F800002C604846BDE8F0878F
:104170002E2E5C48415244574152455C636F726534
:104180005F6A736F6E2E6300282062756620213D82
:10419000204E554C4C20292026262028207374615F
:1041A000727420213D204E554C4C2029202626207B
:1041B00028206F75744C656E67746820213D204E11
:1041C000554C4C20290000006D6178203E20305570
:1041D000000000002DE9F04105460E4617461C463A
:1041E0007B2C01D05B2C00D105E040F2EF320CA11A
:1041F00011A0FDF7D5FF3A463146284600F028F8D1
:104200005B2C05D13A4631462846FFF7C5FA04E053
:104210003A4631462846FFF781FEBDE8F0810000AE
:104220002E2E5C48415244574152455C636F726583
:104230005F6A736F6E2E630069734F70656E4272B2
:1042400061636B65745F28206D6F646520290000D1
:104250002DE9F04105460E46174615B10EB107B1DE
:1042600004E046220CA112A0FDF79AFF34680DE08D
:10427000285D202809D0285D092806D0285D0A2855
:1042800003D0285D0D2800D002E0641CBC42EFD3AF
:1042900000BF3460BDE8F0812E2E5C484152445787
:1042A0004152455C636F72655F6A736F6E2E630087
:1042B000282062756620213D204E554C4C20292037
:1042C0002626202820737461727420213D204E55CB
:1042D0004C4C20292026262028206D6178203E2065
:1042E0003055202900000000F8B504460D4616465A
:1042F000002714B10DB106B105E040F26B3215A1F3
:104300001AA0FDF74DFF324629462046FFF7A0FFD1
:10431000286800900098B04219D20098205C2C28A0
:1043200015D10098401C0090324669462046FFF7A0
:104330008FFF0098B0420AD20098205C7D2806D0FA
:104340000098205C5D2802D001270098286038463C
:10435000F8BD00002E2E5C48415244574152455C46
:10436000636F72655F6A736F6E2E630028206275DB
:104370006620213D204E554C4C2029202626202801
:1043800020737461727420213D204E554C4C2029BD
:104390002026262028206D6178203E2030552029B7
:1043A00000000000F8B504460D461646002714B17B
:1043B0000DB106B105E04FF4FD721FA124A0FDF779
:1043C000EFFE286800900098B0422FD20098205C41
:1043D00022282BD10098401C009023E00098205CFC
:1043E000222804D101270098401C00901DE000986D
:1043F000205C5C2806D1324669462046FFF76EFBFA
:1044000080B912E00098205C002804DB0098205C52
:10441000202800DA09E032466946204600F034F8E8
:1044200000B902E00098B042D8D300BF012F01D1FB
:10443000009828603846F8BD2E2E5C4841524457FB
:104440004152455C636F72655F6A736F6E2E6300E5
:10445000282062756620213D204E554C4C20292095
:104460002626202820737461727420213D204E5529
:104470004C4C20292026262028206D6178203E20C3
:1044800030552029000000002DE9F04105460C467A
:104490001646002715B10CB106B104E0FA220CA1B2
:1044A00011A0FDF77DFE2068B0420ED22068285C86
:1044B000002804DB2068401C2060012705E032460C
:1044C0002146284600F02CF807463846BDE8F08122
:1044D0002E2E5C48415244574152455C636F7265D1
:1044E0005F6A736F6E2E6300282062756620213D1F
:1044F000204E554C4C2029202626202820737461FC
:10450000727420213D204E554C4C20292026262017
:1045100028206D6178203E203055202900000000C1
:104520002DE9F84F05460E4617464FF0000BDA46C8
:1045300015B10EB107B104E0BD222CA131A0FDF7E9
:104540002FFE3468BC4200D204E0C02227A13BA069
:10455000FDF726FE285D002800DA04E0C12223A131
:1045600038A0FDF71DFE285D00909DF80000C128D1
:1045700038D99DF80000F52834D29DF80000FEF7E8
:1045800072FB80469DF80010C8F1070201209040A0
:10459000401E01EA000AA8F1010913E0641CBC42B4
:1045A00000D312E0285D00909DF8000000F0C000EC
:1045B000802800D009E09DF800006AF39F10824631
:1045C000A9F10109B9F1000FE8D100BFB9F1000F5D
:1045D00008D151464046FFF73FF818B1601C3060E3
:1045E0004FF0010B5846BDE8F88F00002E2E5C48B6
:1045F000415244574152455C636F72655F6A736F05
:104600006E2E6300282062756620213D204E554C99
:104610004C202920262620282073746172742021C2
:104620003D204E554C4C20292026262028206D6107
:1046300078203E20305520290000000069203C20D1
:104640006D6178006275665B2069205D203C2027E3
:104650005C3027002DE9F04105460F4616460DB1A6
:1046600007B105E040F23A220AA110A0FDF798FD3B
:10467000002405E0285D395D884200D002E0641C1A
:10468000B442F7D300BFB44202D10120BDE8F081AB
:104690000020FBE72E2E5C48415244574152455CB6
:1046A000636F72655F6A736F6E2E630028206120EE
:1046B000213D204E554C4C202920262620282062C2
:1046C00020213D204E554C4C20290000DC4D000897
:1046D000F44D0008E84D0008000000000000000054
:1046E0000000000000000000000000F800000000D2
:1046F000000000333000000000100C06100C060013
:10470000000000000000000040C07840C078400079
:10471000043F04043F040400007088FC08300000DB
:10472000001820FF211E0000F008F000E018000033
:1047300000211C031E211E0000F0088870000000EC
:104740001E2123241927211010160E00000000003E
:104750000000000000000000000000E0180402005B
:10476000000000071820400000020418E0000000CC
:104770000040201807000000404080F080404000CA
:104780000202010F01020200000000F00000000020
:104790000101011F010101000000000000000000F4
:1047A00080B0700000000000000000000000000069
:1047B00000010101010101010000000000000000F2
:1047C000003030000000000000000000806018048D
:1047D000006018060100000000E010080810E0006A
:1047E000000F102020100F00001010F80000000033
:1047F0000020203F2020000000700808088870007A
:1048000000302824222130000030088888483000F9
:104810000018202020110E000000C02010F8000019
:1048200000070424243F240000F8088888080800B2
:104830000019212020110E0000E0108888180000C7
:10484000000F112020110E0000380808C838080099
:104850000000003F00000000007088080888700019
:10486000001C222121221C0000E010080810E0009A
:104870000000312222110F00000000C0C000000023
:104880000000003030000000000000800000000048
:104890000000806000000000000080402010080040
:1048A0000001020408102000404040404040400009
:1048B00004040404040404000008102040800000E4
:1048C0000020100804020100007048080808F000E9
:1048D0000000003036010000C030C828E810E000B9
:1048E0000718272423140B000000C038E000000044
:1048F000203C23020227382008F8888888700000AE
:10490000203F202020110E00C03008080808380081
:10491000071820202010080008F808080810E000F8
:10492000203F202020100F0008F88888E808100099
:10493000203F20202320180008F88888E80810006D
:10494000203F200003000000C030080808380000A5
:1049500007182020221E020008F808000008F808A6
:10496000203F210101213F20000808F8080800002D
:104970000020203F2020000000000808F808080060
:10498000C08080807F00000008F888C028180800D8
:10499000203F20012638200008F808000000000011
:1049A000203F20202020300008F8F800F8F8080008
:1049B000203F003F003F200008F830C00008F80802
:1049C000203F200007183F00E01008080810E00012
:1049D0000F10202020100F0008F808080808F00029
:1049E000203F210101010000E01008080810E0004C
:1049F0000F18242438504F0008F8888888887000E1
:104A0000203F2000030C3020007088080808380080
:104A10000038202121221C00180808F80808180076
:104A20000000203F2000000008F808000008F808F7
:104A3000001F202020201F000878880000C83808A8
:104A4000000007380E010000F80800F80008F80020
:104A5000033C0700073C03000818688080681808BA
:104A600020302C03032C30200838C800C838080038
:104A70000000203F2000000010080808C838080087
:104A80002038262120201800000000FE020202002B
:104A90000000007F40404000000C30C000000000DB
:104AA000000000010638C00000020202FE00000003
:104AB000004040407F0000000000040202020400A9
:104AC00000000000000000000000000000000000E6
:104AD00080808080808080800002020400000000CE
:104AE00000000000000000000000808080800000C6
:104AF0000019242222223F2008F8008080000000B4
:104B0000003F112020110E00000000808080000076
:104B1000000E112020201100000000808088F80085
:104B2000000E112020103F200000808080800000B7
:104B3000001F222222221300008080F0888888181B
:104B40000020203F20200000000080808080800026
:104B5000006B94949493600008F8008080800000BB
:104B6000203F210000203F20008098980000000096
:104B70000020203F202000000000008098980000C6
:104B800000C08080807F000008F8000080808000E6
:104B9000203F24022D302000000808F8000000000B
:104BA0000020203F202000008080808080808000C6
:104BB000203F20003F20003F808000808080000058
:104BC000203F210000203F200000808080800000E6
:104BD000001F202020201F00808000808000000017
:104BE00080FFA12020110E00000000808080800046
:104BF000000E112020A0FF80808080008080800037
:104C000020203F2120000100000080808080800063
:104C10000033242424241900008080E080800000D8
:104C20000000001F20200000808000000080800025
:104C3000001F202020103F20808080000080808086
:104C400000010E3008060100808000800080808016
:104C50000F300C030C300F0000808000808080003B
:104C60000020312E0E312000808080000080808066
:104C700080818E7018060100008080808080800016
:104C80000021302C2221300000000000807C020234
:104C900000000000003F404000000000FF00000056
:104CA00000000000FF0000000002027C8000000005
:104CB0000040403F00000000000601010202040421
:104CC0000000000000000000004040404040404024
:104CD00040404141414141404040404040404040CF
:104CE0004040404040404040400502020202020273
:104CF00002020202020202020220202020202020C2
:104D000020202002020202020202909090909090D5
:104D10001010101010101010101010101010101093
:104D20001010101002020202020288888888888807
:104D300008080808080808080808080808080808F3
:104D4000080808080202020240000000C94C0008DE
:104D500041542B4D5154545055423D302C222F7309
:104D600079732F6B307967747866506263512F6561
:104D70007370383236362F7468696E672F657665C2
:104D80006E742F70726F70657274792F706F737498
:104D9000222C227B5C22706172616D735C223A7BF3
:104DA0005C2274656D705C223A25645C2C5C226820
:104DB000756D695C223A25645C7D5C2C5C227665AD
:104DC0007273696F6E5C223A5C22312E302E305C39
:104DD000227D222C302C300D0A000000706172619F
:104DE0006D732E6C65640000706172616D732E6866
:104DF000756D6900706172616D732E74656D700000
:104E00002B4D515454535542524543563A302C225F
:104E10002F7379732F6B30796774786650626351A2
:104E20002F657370383236362F7468696E672F734A
:104E30006572766963652F70726F70657274792F11
:104E4000736574222C25642C257300006C4E0008B9
:104E500000000020F40100000A13000808500008B8
:104E6000F401002004060000602200081006000083
:104E7000003C3C05200F000041542B524553544F39
:104E800052450D0A0D500943574D4F44453D310ED3
:104E900060204950534E54504346473D312C382CE6
:104EA000226E7470312E616C6979756E2E636F6D30
:104EB0002234500C4A41503D223232222C22310100
:104EC000511B20094D5154545553455242100A303C
:104ED0002C312C224E554C4C2710146573703832EF
:104EE0003636266B307967747866506263511610D7
:104EF00044646565613262653934653534396238D8
:104F00006239383431653939353637653063366260
:104F1000303463303861643233353363303733399A
:104F200065323463346666643564383235623332F0
:104F300064222C300292227C1009434C49454E5485
:104F400049447D92226C522E80A03F7C736563752C
:104F500072656D6F64653D325C2C7369676E6D655B
:104F600074686F643D686D61637368613235365C87
:104F70002C74696D657374616D703D3137313231F8
:104F800034333236393131377C6820044F4E4E6429
:104F9000101A696F742D30367A3030656463713160
:104FA00073746F37752E6D7174742E19540468758F
:104FB000623C3763733E84082C313838332C312AF5
:104FC00020045355424590062F7379732FAE522F0C
:104FD000AE10182F7468696E672F736572766963F7
:104FE000652F70726F706572747911337422472562
:104FF000D120050102030404600A0607080902041F
:08500000060800010000000099
:04000005080000ED02
:00000001FF
