:020000040800F2
:10000000E805002005010008850300082703000813
:1000100081030008AB010008DF0A000800000000AF
:1000200000000000000000000000000005050008BE
:10003000AF010008000000000D0400082D060008B4
:100040001F0100081F0100081F0100081F01000810
:100050001F0100081F0100081F0100081F01000800
:100060001F0100081F0100081F0100081F010008F0
:100070001F0100081F0100081F0100081F010008E0
:100080001F0100081F0100081F0100081F010008D0
:100090001F0100081F0100081F0100081F010008C0
:1000A0001F010008910600081F0100081F01000839
:1000B0001F0100081F0100081F0100081F010008A0
:1000C0001F0100081F0100081F0100081F01000890
:1000D0001F010008150800081F0100081F01000883
:1000E0001F0100081F0100081F010008DFF810D0E1
:1000F00000F01AF8004800478D0B0008AFF30080AD
:10010000E80500200648804706480047FEE7FEE76E
:10011000FEE7FEE7FEE7FEE7FEE7FEE7FEE7FEE7B7
:1001200031060008ED000008064C074D06E0E068C7
:1001300040F0010394E8070098471034AC42F6D32E
:10014000FFF7D8FFB80B0008D80B000870B58D1862
:1001500010F8014B14F0030201D110F8012B231108
:1001600006D110F8013B03E010F8016B01F8016BB8
:10017000521EF9D1ABB110F8012B04F00C048A1A0D
:100180000C2C03D0A2EB84129B1C08E010F8014B4E
:10019000A2EB0422F8E712F8014B01F8014B5B1EB9
:1001A000F9D5A942D4D3002070BD00BFFEE7704747
:1001B00000B5034603E04FF47A7000F005F8181E0E
:1001C000A3F10103F7D100BD00EBC001C9004FF05E
:1001D000E0225161002191610521116100BF4FF0C2
:1001E000E021096901F480310029F8D004214FF0A1
:1001F000E022116170472DE9F041024600250026FA
:10020000002000230024002791F803C00CF00F0504
:1002100091F803C00CF0100CBCF1000F03D091F862
:1002200002C04CEA050591F800C0BCF1000F31D0C6
:10023000146800202BE04FF0010C0CFA00F3B1F829
:1002400000C00CEA03069E4220D183004FF00F0C41
:100250000CFA03F7BC4305FA03FC4CEA040491F8DA
:1002600003C0BCF1280F06D14FF0010C0CFA00FCC2
:10027000C2F814C00AE091F803C0BCF1480F05D1E0
:100280004FF0010C0CFA00FCC2F810C0401C08280A
:10029000D1D31460B1F800C0BCF1FF0F34DD546855
:1002A00000202EE000F1080C4FF0010808FA0CF3D2
:1002B000B1F800C00CEA03069E4221D183004FF042
:1002C0000F0C0CFA03F7BC4305FA03FC4CEA0404D8
:1002D00091F803C0BCF1280F05D100F1080C08FA11
:1002E0000CF8C2F8148091F803C0BCF1480F07D194
:1002F00000F1080C4FF0010808FA0CF8C2F8108061
:10030000401C0828CED35460BDE8F081024600208E
:10031000D3680B400BB1012000E000207047416121
:1003200070470161704700BFFEE7000010B5012172
:100330000648FFF7EBFF20B901210448FFF7F1FF62
:1003400003E001210148FFF7EAFF10BD000801406A
:1003500008B50121042000F05BF810208DF803009F
:100360000320ADF800008DF8020069460348FFF74E
:1003700042FF03210148FFF7D2FF08BD00080140FA
:1003800000BFFEE77047000070B5002100230F2278
:10039000C47804B3154C246804F4E064C4F5E06444
:1003A000210AC1F10403CA40447804FA03F18478B5
:1003B0001440214309010E4C0678A155047804F03D
:1003C0001F050124AC4005786D11AD0005F1E02555
:1003D000C5F8004109E0047804F01F050124AC4091
:1003E000044D0678761145F8264070BD0CED00E00E
:1003F00000E400E080E100E002490143024A1160AC
:10040000704700000000FA050CED00E070470000A6
:1004100029B1064A92690243044B9A6104E0034AF7
:1004200092698243014B9A617047000000100240BC
:1004300030B500210022002400232D4D6D6805F009
:100440000C0121B1042905D0082923D105E0294D4B
:10045000056022E0274D05601FE0254D6D6805F41D
:100460007012234D6D6805F48034022505EB92422D
:100470001CB9214D554305600BE01D4D6D6805F419
:1004800000351DB11C4D5543056002E0194D554323
:10049000056002E0174D056000BF00BF144D6D6898
:1004A00005F0F0010909154D6B5C0568DD404560FC
:1004B0000F4D6D6805F4E061090A104D6B5C4568ED
:1004C000DD4085600A4D6D6805F46051C90A0B4D29
:1004D0006B5C4568DD40C560054D6D6805F44041C5
:1004E000890B074D6B5CC568B5FBF3F5056130BD45
:1004F0000010024000127A0000093D00CF010020E8
:10050000DF0100207047000010B504462146054871
:1005100000F0E1FA00BF8021024800F00EFA002846
:10052000F9D010BD0038014070B50446002504E044
:10053000605DFFF7E9FF681CC5B2605D0028F7D178
:1005400070BD10B500F002F810BD00000CB5002021
:10055000019000903348006840F4803031490860D1
:1005600000BF3048006800F4003000900198401C43
:100570000190009818B90198B0F5A06FF1D1294801
:10058000006800F4003010B10120009001E000206C
:1005900000900098012843D12348006840F01000E3
:1005A000214908600846006820F0030008600846FA
:1005B000006840F0020008601A4840681949486025
:1005C0000846406848600846406840F480604860DB
:1005D0000846406820F47C1048600846406840F4B3
:1005E000E81048600846006840F08070086000BF6E
:1005F0000C48006800F000700028F9D009484068F5
:1006000020F00300074948600846406840F00200B7
:10061000486000BF0348406800F00C000828F9D18A
:100620000CBD000000100240002002407047000096
:1006300010B51348006840F00100114908600846F1
:100640004068104908400E494860084600680E4955
:1006500008400B4908600846006820F480200860C4
:100660000846406820F4FE0048604FF41F00886090
:10067000FFF767FF4FF000600449086010BD0000FD
:10068000001002400000FFF8FFFFF6FE08ED00E05A
:1006900010B50121054800F01AF8012805D1012103
:1006A000024800F005F8FFF741FE10BD002C0140A4
:1006B000CA430282704721B1028842F001020280DF
:1006C00004E002884FF6FE731A400280704730B58E
:1006D0000246002000230024158A05EA01039589BB
:1006E00005EA010413B10CB1012000E0002030BD87
:1006F0001AB183890B43838102E083898B43838111
:1007000070470000002202881D4B98420ED01D4BFE
:1007100098420BD0B0F1804F08D01B4B984205D0C7
:100720001A4B984202D01A4B984204D14FF68F735D
:100730001A404B881A43174B984207D0164B9842E1
:1007400004D04FF6FF431A40CB881A4302808B88AF
:1007500083850B8803850A4B98420BD0094B98423E
:1007600008D00E4B984205D00D4B984202D00D4B4D
:10077000984201D10B7A03860123838270470000DF
:10078000002C0140003401400004004000080040FB
:10079000000C0040001000400014004000400140E8
:1007A00000440140004801407FB505460C46012148
:1007B000C802FFF72DFE681E80B2ADF804000020CD
:1007C000ADF80600601E80B2ADF808000020ADF85C
:1007D0000A008DF80C0001A90D48FFF793FF0122D4
:1007E00011460B48FFF784FF19208DF80000002008
:1007F0008DF8010001208DF802008DF80300684695
:10080000FFF7C2FD01210248FFF755FF7FBD000041
:10081000002C014010B540F22551094800F09AF82B
:1008200001280CD1064800F051F906490870012052
:100830000549087040F22551014800F063F810BDE9
:1008400000380140000000200100002000B587B002
:1008500001218803FFF7DCFD01210420FFF7D8FD0B
:1008600018208DF81B004FF40070ADF8180003201D
:100870008DF81A0006A92148FFF7BDFC48208DF825
:100880001B004FF48060ADF8180003208DF81A00AB
:1008900006A91A48FFF7AFFC4FF4E13002900020A0
:1008A000ADF814000C20ADF812000020ADF81000D7
:1008B000ADF80E00ADF80C0002A9114800F09AF84E
:1008C000012240F225510E4800F06EF84FF4A0606E
:1008D000FFF792FD25208DF8040001208DF8070018
:1008E0008DF805008DF8060001A8FFF74DFD0121E8
:1008F000034800F016F807B000BD000000080140F2
:100900000038014010B50022002340F66A14A142CD
:1009100000D100BF0A1201249440A3B2DC4304803A
:1009200010BD21B1828942F40052828104E08289A3
:100930004DF6FF731A408281704702460020B1F5E0
:10094000007F00D100BF13880B400BB1012000E0F5
:100950000020704770B502460024002300250020C7
:1009600040F66A16B14200D100BFC1F3421501F052
:100970001F03012606FA03F3012D02D196893340A5
:1009800006E0022D02D1168A334001E0968A3340F8
:100990000C12012606FA04F41688344013B10CB187
:1009A000012000E0002070BDF0B5034600240026C1
:1009B0000025002040F66A17B94200D100BF184652
:1009C000C1F3421401F01F06012707FA06F5012CB6
:1009D00001D10C3004E0022C01D1103000E01430C1
:1009E0001AB107682F43076002E00768AF4307604A
:1009F000F0BD00002DE9F04786B005460E46002404
:100A0000A24600BFA1460027B08900B100BF2F4613
:100A10002C8A4CF6FF700440F08804432C82AC8989
:100A20004EF6F3100440B0883189084371890843B9
:100A30000443AC81AC8A4FF6FF400440B0890443C4
:100A4000AC8201A8FFF7F4FC1F48874202D1DDF811
:100A500010A001E0DDF80CA0A88900F4004040B12E
:100A60000AEBCA0000EB0A1031684900B0FBF1F84C
:100A700007E00AEBCA0000EB0A1031688900B0FBFE
:100A8000F1F86420B8FBF0F004012009642101FBB7
:100A90001089A88900F4004040B1322000EBC90061
:100AA000B0FBF1F000F00700044308E0322000EB57
:100AB00009106421B0FBF1F000F00F0004432C8119
:100AC00006B0BDE8F0870000003801400146888884
:100AD000C0F308007047C1F308028280704700BF6E
:100AE000FEE702E008C8121F08C1002AFAD17047C9
:100AF0007047002001E001C1121F002AFBD170479E
:100B000010B51A48FFF710FD4FF47A70FFF750FB4D
:100B10001748FFF709FD4FF47A70FFF749FB1548B6
:100B2000FFF702FD4FF47A70FFF742FB1248FFF720
:100B3000FBFC41F28830FFF73BFB1048FFF7F4FC69
:100B40004FF47A70FFF734FB0D48FFF7EDFC41F2EC
:100B50008830FFF72DFB0B48FFF7E6FC41F28830A9
:100B6000FFF726FB0848FFF7DFFC10BD020000205E
:100B70000F0000201D000020430000205E00002028
:100B8000DA00002042010020880100204FF4A0601C
:100B9000FFF732FC4FF4E15142F21070FFF704FE10
:100BA000FFF7D6FBFFF752FEFFF7AAFF03E041F283
:100BB0008830FFF7FDFAFAE7D80B000800000020A4
:100BC000E40100004C0100086C0D0008E401002065
:100BD00004040000F20A0008200F000041542B52C8
:100BE0004553544F52450D0A0D500943574D4F443C
:100BF000453D310E60204950534E54504346473DC9
:100C0000312C382C226E7470312E616C6979756EBE
:100C10002E636F6D2234100A4A41503D2231312239
:100C20002C054101511B20094D5154545553455237
:100C300042100A302C312C224E554C4C2710146592
:100C4000737038323636266B307967747866506246
:100C500063511610446465656132626539346535E7
:100C60003439623862393834316539393536376567
:100C70003063366230346330386164323335336325
:100C800030373339653234633466666435643832FC
:100C90003562333264222C300292227C1009434C9C
:100CA00049454E5449447D92226C522E80A03F7C8F
:100CB0007365637572656D6F64653D325C2C736935
:100CC000676E6D6574686F643D686D6163736861BC
:100CD0003235365C2C74696D657374616D703D31AD
:100CE0003731323134333236393131377C68200490
:100CF0004F4E4E64101A696F742D30367A3030655D
:100D00006463713173746F37752E6D7174742E193D
:100D100054046875623C3763733E84082C3138385C
:100D2000332C312A20045355424590062F73797392
:100D30002FAE522FAE10182F7468696E672F73652F
:100D400072766963652F70726F7065727479113392
:100D5000742247210120050102030404000A000651
:0C0D60000708090204060800000000005B
:04000005080000ED02
:00000001FF
