:020000040800F2
:10000000A8080020050100082B050008FB040008D3
:1000100029050008CB030008CF0B000800000000F2
:100020000000000000000000000000002D07000894
:10003000CD03000800000000FB060008A10800082E
:100040001F0100081F0100081F0100081F01000810
:100050001F0100081F0100081F0100081F01000800
:100060001F0100081F0100081F0100081F010008F0
:100070001F0100081F0100081F0100081F010008E0
:100080001F0100081F0100081F0100081F010008D0
:100090001F0100081F0100081F0100081F010008C0
:1000A0001F010008F50800081F0100081F010008D3
:1000B0001F0100081F0100081F0100081F010008A0
:1000C0001F0100081F0100081F0100081F01000890
:1000D0001F0100088D0A0008E10A0008310B000822
:1000E000D10300081F0100081F010008DFF810D02D
:1000F00000F02EF900480047F10B0008AFF3008034
:10010000A80800200648804706480047FEE7FEE7AB
:10011000FEE7FEE7FEE7FEE7FEE7FEE7FEE7FEE7B7
:10012000A5080008ED000008F0B480EA0102D40F31
:100130004200B2EB410F02D20246084611464A0085
:1001400042D0C30DDDB2C1F3C752AD1A202D35DA4E
:10015000C1F3160141F4000204B15242C5F1200678
:1001600002FA06F12A411044B3EBD05F23D0C4B1A8
:10017000012DA0EBC35009DCF0BC4FF0004202EAB5
:10018000C352DBB200F5000000F0B3B8400000F14C
:10019000807000EBC350A0F1807040EAD17049003C
:1001A00009E0490841EAC071A0EBC35000F5000026
:1001B000400800EBC350F0BC00F092B8614201224D
:1001C00002EB4101001BF6E7F0BC704781F00041F3
:1001D000AAE780F00040A7E780EA010210B502F02C
:1001E0000043400022D04A001FD0010E01EB1261F3
:1001F000C0F35600C2F3560240F4000042F400027D
:10020000A0FB022000047F39140400D0401C50EAF7
:10021000124001D44000491EC2B20C0604EBD010BB
:10022000401C4008802A02D003E0002010BD20F0CE
:100230000100002900DA0020184310BD30B480EA24
:10024000010202F0004530F0004221F0004013D0DE
:1002500090B1C30DD40DC2F31601C0F31600E41A19
:1002600041F4000140F400027D34914201D3641C4A
:1002700000E04900002C02DA30BC002070474FF447
:1002800000000023914201D3891A034340084FEA3A
:100290004101F7D151B1914202D14FF0004105E047
:1002A00002D24FF0010101E06FF0010103EBC450F5
:1002B000284430BC00F014B820F00040C10DC0F359
:1002C000160040F400007F2901DA002070479629CB
:1002D00003DCC1F19601C8407047963988407047E9
:1002E0000029A8BF7047401C490008BF20F001004A
:1002F000704710B4B0FA80FC00FA0CF050EA010428
:1003000004BF10BC704749B1CCF1200421FA04F4B9
:1003100011FA0CF118BF012121430843A3EB0C0192
:10032000CB1D4FEA00614FEA102042BF002010BCF5
:10033000704700EBC35010440029A4BF10BC7047A5
:10034000401C490008BF20F0010010BC70470000AD
:10035000064C074D06E0E06840F0010394E8070012
:1003600098471034AC42F6D3FFF7C4FEFC110008E6
:100370001C12000870B58C1810F8015B15F007030B
:1003800001D110F8013B2A1106D110F8012B03E02E
:1003900010F8016B01F8016B5B1EF9D12B0705D436
:1003A0000023521E0DD401F8013BFAE710F8013B7F
:1003B000CB1A921C03E013F8015B01F8015B521E9B
:1003C000F9D5A142D8D3002070BDFEE770470000E8
:1003D00010B54FF40054204600F01EF800280CD051
:1003E0000649012006A288700146092000F050F954
:1003F0002046BDE8104000F009B810BDD80100202B
:100400005363616E53746174757300000149086031
:100410007047000014040140064A0146002012689B
:10042000044B0A4014331B680B4202D0002A00D050
:100430000120704700040140F0B5CA78002502F0A1
:100440000F03D20601D58A7813430A784FF00F0EB6
:1004500012F0FF0F4FF001021CD004680F8802FA5F
:1004600005F63740B74211D14FEA850C0EFA0CF76A
:1004700024EA070703FA0CF43C43CF78282F02D074
:10048000482F02D002E0466100E006616D1C082D95
:10049000E4D304600C88FF2C1ED944685FF000068A
:1004A00006F1080702FA07F50F882F40AF420FD177
:1004B0004FEA860C0EFA0CF7BC4303FA0CF73C43E8
:1004C000CF78282F00D14561CF78482F00D1056122
:1004D000761C082EE4D34460F0BD02460020D268AA
:1004E0000A4200D0012070474161704701617047A6
:1004F0000AB10161704741617047FEE710B5094CD0
:1005000001212046FFF7E9FF00284FF001012046B6
:1005100003D0BDE81040FFF7E7BFBDE81040FFF78C
:10052000E5BF000000080140FEE7704702490843AC
:1005300002490860704700000000FA050CED00E079
:100540002DE9F047144E002407464FF080084FF481
:100550000079B51528FA04F23A4049463046FFF7CB
:10056000C7FF012229463046FFF7C2FF0022294675
:100570003046FFF7BDFF641CE4B2082CEAD3012229
:1005800029463046FFF7B4FF29463046BDE8F0471C
:100590000022FFF7ADBF0000000C014070B5012242
:1005A0000B4D540221462846FFF7A2FF01221602F6
:1005B00031462846FFF79CFF002221462846FFF7D8
:1005C00097FF31462846BDE870400022FFF790BFF4
:1005D000000C014070B50A4D4FF400740022214612
:1005E0002846FFF785FF012211022846FFF780FF0A
:1005F00021462846BDE870400122FFF779BF000080
:10060000000C014010B50C4640F0B00000F053F86B
:10061000102040EA141000F04EF804F00F00BDE87E
:10062000104000F048B800002DE9F0410746CE0028
:100630004000083E801E15464FF0FF38F1B2C0B2B0
:10064000FFF7E0FF1148002400EB05152819A0F57D
:10065000805090F8000E00F03FF8641CE4B2082CC3
:10066000F4D308EB4700F1B2C0B2FFF7CBFF002490
:100670002819A0F5805090F8080E00F02DF8641CA1
:10068000E4B2082CF4D3BDE8F08100000C0C0008A3
:100690002DE9F04115460E460746002406E03019C4
:1006A000C1B23846FFF7C0FF641CE4B22A5D002ADD
:1006B000F5D1BDE8F08110B50446FFF76FFF782053
:1006C000FFF73EFF0020FFF73BFF2046FFF738FF14
:1006D000BDE81040FFF77EBF10B50446FFF75EFF90
:1006E0007820FFF72DFF4020FFF72AFF2046FFF775
:1006F00027FFBDE81040FFF76DBF7047044A00298F
:10070000D16901D0014300E08143D161704700000D
:1007100000100240044A0029916901D0014300E021
:100720008143916170470000001002407047000053
:1007300030B5012189B00846FFF7E0FF0121042010
:10074000FFF7E8FF18208DF81F000220ADF81C000D
:1007500003208DF81E0007A91848FFF76DFE4FF023
:100760008045284600F0F3F80024ADF8164044F622
:100770001F60ADF81400ADF812404720ADF810002E
:100780008DF8184004A9284600F032F9684600F0B8
:1007900023F96020ADF800000120ADF80200ADF8AB
:1007A0000840ADF806406946284600F0D5F801211A
:1007B000284600F0B6F809B030BD0000000801403E
:1007C0000A4910B5884200DD0846FFF737FD0849A1
:1007D000FFF702FD0749FFF7A7FCFFF76DFD81B2A8
:1007E000BDE810404FF0804000F000B900003443F5
:1007F0000000FA440000FA430CB50021264801919C
:100800000091026842F4803202604FF4A0630268F3
:1008100002F400320092019A521C0192009A12B91D
:10082000019A9A42F3D10268920333D501210091D3
:100830001A490A6842F010020A600A6822F00302AC
:100840000A600A6842F002020A6041684160416839
:100850004160416841F480614160416821F47C114C
:100860004160416841F4E8114160016841F08071E4
:10087000016001688901FCD5416821F003014160F4
:10088000416841F0020141604168C1F381010229E0
:10089000FAD10CBD00910CBD0010024000200240B6
:1008A000704700000F4810B5016841F00101016078
:1008B00041680D4A1140416001680C4A11400160D5
:1008C000016821F480210160416821F4FE0141604A
:1008D0004FF41F018160FFF78FFF05494FF0006063
:1008E000086010BD001002400000FFF8FFFFF6FE98
:1008F00008ED00E010B5084C0121204600F01BF87F
:10090000012807D10121204600F008F8BDE8104079
:10091000FFF7F4BD10BD0000002C0140C943018267
:1009200070470029018802D041F0010101E021F067
:1009300001010180704702460020138A92890B4210
:1009400002EA010202D0002A00D00120704701898A
:1009500021F007010181704770B5028C22F010026E
:100960000284028C8488038B0D8823F4E6464FF6BC
:10097000FF7303EA052535430E8922F0200203EABE
:10098000061616434A8803EA02123243104EB0425A
:1009900002D0104EB04215D122F080064A8924F4CC
:1009A000406403EA0212324322F040068A8803EAD6
:1009B000021232438E8903EA86062643CC8903EA73
:1009C0008404344384800583C9880187028470BD10
:1009D000002C0140003401400021018041808180D1
:1009E000C180018141818181C18170470187704748
:1009F00030B502881B4B1C4C98420DD0A0420BD046
:100A0000B0F1804F08D0194DA84205D0184DA8422A
:100A100002D0184DA84203D122F070054A882A431B
:100A2000154DA84206D0154DA84203D022F44075BA
:100A3000CA882A4302808A8882850A880285984269
:100A40000AD0A04208D00E4A904205D00D4A9042EA
:100A500002D00D4A904201D1097A0186012181829A
:100A600030BD0000002C0140003401400004004073
:100A700000080040000C004000100040001400403E
:100A800000400140004401400048014070B50F4C57
:100A900040F225552946204600F076F8012813D16A
:100AA000204600F090F80A490A4B08700A490A8863
:100AB0009854521C0A800949012008702946204692
:100AC000BDE8704000F05AB870BD00000038014029
:100AD00000000020940200200800002006000020F2
:100AE00070B5104D40F225542146284600F04CF8D0
:100AF00088B1284600F067F80B4BC0B21A7811068F
:100B000009D4142A04D209498854521C1A7002E0EC
:100B100042F08000187021462846BDE8704000F081
:100B20002DB8000000440040D801002094040020AB
:100B300070B5104D40F225542146284600F024F8A7
:100B400090B1284600F03FF80B4BC0B25A7811061E
:100B50000AD4062A05D203F108018854521C5A709F
:100B600002E042F08000587021462846BDE87040FF
:100B700000F004B800480040D80100200A0A012112
:100B80009140C9430180704730B501F01F02012434
:100B90000025C1F3421304FA02F2012B0FD0022BFD
:100BA0000FD0838A4FEA11210088134204FA01F41E
:100BB00000EA040001D000B10125284630BD838938
:100BC000F0E7038AEEE78088C0F308007047FEE78D
:100BD00002E008C8121F08C1002AFAD17047704706
:100BE000002001E001C1121F002AFBD17047000064
:100BF0004FF4A060FFF79AFCFFF79AFD024C2046E5
:100C0000FFF7DEFDFBE700000000B442000000003B
:100C1000000000000000000000000000000000F8DC
:100C200000000000000000333000000000100C063F
:100C3000100C0600000000000000000040C07840DA
:100C4000C0784000043F04043F040400007088FCA6
:100C500008300000001820FF211E0000F008F000FE
:100C6000E018000000211C031E211E0000F008886F
:100C7000700000001E2123241927211010160E00D9
:100C8000000000000000000000000000000000E084
:100C90001804020000000007182040000002041899
:100CA000E00000000040201807000000404080F0F5
:100CB000804040000202010F01020200000000F02B
:100CC000000000000101011F0101010000000000FF
:100CD0000000000080B07000000000000000000074
:100CE00000000000000101010101010100000000FD
:100CF0000000000000303000000000000000000094
:100D000080601804006018060100000000E0100870
:100D10000810E000000F102020100F00001010F845
:100D2000000000000020203F202000000070080884
:100D30000888700000302824222130000030088804
:100D4000884830000018202020110E000000C0202C
:100D500010F8000000070424243F240000F808884D
:100D6000880808000019212020110E0000E01088DA
:100D700088180000000F112020110E00003808080C
:100D8000C83808000000003F00000000007088081C
:100D900008887000001C222121221C0000E010089D
:100DA0000810E0000000312222110F00000000C0F6
:100DB000C000000000000030300000000000008093
:100DC0000000000000008060000000000000804083
:100DD000201008000001020408102000404040409C
:100DE00040404000040404040404040000081020EF
:100DF0004080000000201008040201000070480834
:100E00000808F0000000003036010000C030C8289B
:100E1000E810E0000718272423140B000000C03856
:100E2000E0000000203C23020227382008F88888D0
:100E300088700000203F202020110E00C0300808DC
:100E400008083800071820202010080008F80808B3
:100E50000810E000203F202020100F0008F88888AC
:100E6000E8081000203F20202320180008F8888878
:100E7000E8081000203F200003000000C0300808F0
:100E80000838000007182020221E020008F8080079
:100E90000008F808203F210101213F20000808F840
:100EA000080800000020203F202000000000080863
:100EB000F8080800C08080807F00000008F888C023
:100EC00028180800203F20012638200008F80800D4
:100ED00000000000203F20202020300008F8F8000B
:100EE000F8F80800203F003F003F200008F830C01D
:100EF0000008F808203F200007183F00E01008080D
:100F00000810E0000F10202020100F0008F808083B
:100F10000808F000203F210101010000E01008084E
:100F20000810E0000F18242438504F0008F8888873
:100F300088887000203F2000030C30200070880853
:100F4000080838000038202121221C00180808F861
:100F5000080818000000203F2000000008F80800E2
:100F60000008F808001F202020201F0008788800B3
:100F700000C83808000007380E010000F80800F823
:100F80000008F800033C0700073C030008186880CD
:100F90008068180820302C03032C30200838C80043
:100FA000C83808000000203F200000001008080892
:100FB000C83808002038262120201800000000FE34
:100FC000020202000000007F40404000000C30C0E0
:100FD00000000000000000010638C000000202020C
:100FE000FE000000004040407F00000000000402BE
:100FF00002020400000000000000000000000000E9
:1010000000000000808080808080808000020204D8
:1010100000000000000000000000000000008080D0
:10102000808000000019242222223F2008F800803E
:1010300080000000003F112020110E000000008001
:1010400080800000000E1120202011000000008090
:101050008088F800000E112020103F2000008080C2
:1010600080800000001F222222221300008080F0D6
:10107000888888180020203F202000000000808001
:1010800080808000006B94949493600008F8008046
:1010900080800000203F210000203F2000809898A1
:1010A000000000000020203F202000000000008001
:1010B0009898000000C08080807F000008F8000041
:1010C00080808000203F24022D302000000808F896
:1010D000000000000020203F202000008080808051
:1010E00080808000203F20003F20003F80800080E3
:1010F00080800000203F210000203F2000008080F1
:1011000080800000001F202020201F0080800080A1
:101110008000000080FFA12020110E000000008050
:1011200080808000000E112020A0FF808080800041
:101130008080800020203F2120000100000080806E
:10114000808080000033242424241900008080E063
:10115000808000000000001F202000008080000030
:1011600000808000001F202020103F208080800011
:101170000080808000010E30080601008080008021
:10118000008080800F300C030C300F000080800046
:10119000808080000020312E0E3120008080800071
:1011A0000080808080818E70180601000080808021
:1011B000808080000021302C2221300000000000BF
:1011C000807C020200000000003F40400000000060
:1011D000FF00000000000000FF0000000002027C91
:1011E000800000000040403F0000000000060101B8
:1011F0000202040400000000000000001C120008AD
:10120000000000209402000074030008F41300089A
:101210009402002014060000E00B000831533C3C0F
:10122000280D41542B524553544F52450D0A0D5829
:101230000943574D4F44453D310E68204950534EA8
:1012400054504346473D312C382C226E7470312E59
:10125000616C6979756E2E636F6D2234580C4A414A
:10126000503D223232222C223101591B28094D5186
:1012700054545553455242180A302C312C224E55A5
:101280004C4C27181465737038323636266B30791B
:1012900067747866506263511618446465656132FC
:1012A00062653934653534396238623938343165CC
:1012B00039393536376530633662303463303861FA
:1012C00064323335336330373339653234633466EF
:1012D0006664356438323562333264222C30029AC7
:1012E000227C1809434C49454E5449447D9A226C4E
:1012F0005A2E80A83F7C7365637572656D6F646557
:101300003D325C2C7369676E6D6574686F643D680F
:101310006D61637368613235365C2C74696D657319
:1013200074616D703D313731323134333236393199
:1013300031377C682C4F4E4E64181A696F742D300B
:10134000367A3030656463713173746F37752E6D22
:101350007174742E1988196875622E616C697975BB
:101360006E63732E636F6D222C313838332C314607
:101370002C535542459E2F7379732FAE5A2FAE18BA
:10138000182F7468696E672F736572766963652FAD
:1013900070726F7065727479111A744C1947F11C70
:1013A000EF01FF01120126073C0301018A491015D4
:1013B000020404029A50101901116A4C10130333ED
:1013C0007A370C120D7A110C12306A340C23083162
:1013D00012048A16651303016A050C1B04022179A5
:1013E0002A1A047C7DFFFF020C6F320C1914793A23
:0413F000121D322177
:04000005080000ED02
:00000001FF
