:020000040800F2
:10000000700D002005010008610A00084F03000878
:100010005D080008F3010008D71100080000000087
:10002000000000000000000000000000150E0008A5
:10003000F501000800000000510D00084110000803
:100040001F0100081F0100081F0100081F01000810
:100050001F0100081F0100081F0100081F01000800
:100060001F0100081F0100081F0100081F010008F0
:100070001F0100081F0100081F0100081F010008E0
:100080001F0100081F0100081F0100081F010008D0
:100090001F0100081F0100081F0100081F010008C0
:1000A0001F0100081F0100081F0100081F010008B0
:1000B0001F0100081F0100081F0100081F010008A0
:1000C0001F0100081F0100081F0100081F01000890
:1000D0001F01000895100008E910000839110008F8
:1000E0002D0200081F0100081F010008DFF810D0D2
:1000F00000F042F800480047A5120008AFF3008066
:10010000700D00200648804706480047FEE7FEE7DE
:10011000FEE7FEE7FEE7FEE7FEE7FEE7FEE7FEE7B7
:1001200045100008ED000008D2B201E000F8012BF4
:10013000491EFBD270470022F6E710B513460A4667
:1001400004461946FFF7F0FF204610BD421C10F888
:10015000011B0029FBD1801A704710B5002200E076
:10016000521C835C8C5CA34201D1002BF8D1D8B225
:10017000E1B2401A10BD0000064C074D06E0E068F1
:1001800040F0010394E8070098471034AC42F6D3DE
:10019000FFF7B0FF782001089820010870B58C188F
:1001A00010F8015B15F0070301D110F8013B2A118B
:1001B00006D110F8012B03E010F8016B01F8016B78
:1001C0005B1EF9D12B0705D40023521E0DD401F874
:1001D000013BFAE710F8013BCB1A921C03E013F83D
:1001E000015B01F8015B521EF9D5A142D8D3002072
:1001F00070BDFEE7704700B502464FF47A7302E027
:10020000184600F003F8521EFAD200BD00EBC00001
:10021000C1004FF0E02041610021816105210161B1
:100220000169C903FCD504210161704710B54FF481
:100230000054204600F01EF800280CD0064901208A
:1002400006A288700146092000F0BEFC2046BDE8E9
:10025000104000F009B810BDD80100205363616E52
:1002600053746174757300000149086070470000A1
:1002700014040140064A014600201268044B0A405B
:1002800014331B680B4202D0002A00D001207047B3
:1002900000040140F0B5CA78002502F00F03D20631
:1002A00001D58A7813430A784FF00F0E12F0FF0F32
:1002B0004FF001021CD004680F8802FA05F637409F
:1002C000B74211D14FEA850C0EFA0CF724EA070762
:1002D00003FA0CF43C43CF78282F02D0482F02D0E9
:1002E00002E0466100E006616D1C082DE4D3046065
:1002F0000C88FF2C1ED944685FF0000606F1080741
:1003000002FA07F50F882F40AF420FD14FEA860C53
:100310000EFA0CF7BC4303FA0CF73C43CF78282FB6
:1003200000D14561CF78482F00D10561761C082E99
:10033000E4D34460F0BD0246002092680A4200D037
:10034000012070470AB10161704741617047FEE7C3
:1003500002460020938A128B43EA024323F07F4235
:10036000914300D1012070470029018802D041F05B
:10037000010101E021F0010101807047F8B5012180
:10038000480500F0F3FC0121082000F0EFFC4020BC
:10039000ADF800001C240B4E8DF8034003258DF8AA
:1003A000025069463046FFF775FF8020ADF8000027
:1003B0008DF803408DF8025069463046FFF76AFF1A
:1003C000F8BD0000000C01400029018802D041F472
:1003D000807101E021F4807101807047002901885B
:1003E00002D041F4007101E021F4007101807047F6
:1003F0000CB50246002000920A0F21F07F410192C5
:1004000002D0009A143202E0009A090C18320092CD
:1004100012680A4200D001200CBD000070B50446ED
:10042000808886B00D4620F03F06684600F0AAFCA2
:1004300027490298B0FBF1F189B20E43A6802288C9
:1004400022F001022280234B2A689A421CD85200D3
:10045000B0FBF2F080B2042800D20420491C2184B1
:10046000A083208840F00100208021884FF6F530DD
:100470000140A8886A89104308432080A8892989F7
:100480000843208106B070BDEB88A3F53F46FF3ED0
:100490000BD002EBC20303EB0212B0FBF2F080B20E
:1004A00040F48040020506D007E002EB4202B0FBB8
:1004B000F2F080B2F6E740F001004FF4967251433B
:1004C0004FF47A72B1FBF2F140F40040C6E700004D
:1004D00040420F00A086010012B141F0010101E08D
:1004E00001F0FE0101827047018270472DE9FC474F
:1004F000002634465A4800F0A9FF5AA30F221E21B5
:10050000574801F00FF911271E224A23114654487B
:10051000009700F0E3FF524801F04AF9B0464FF06F
:10052000200940F2DC5A00BF00F024F90028FBD07B
:10053000062C32D84F4901AB2D220855CDF8048046
:100540008DF8040004EB4401212000EB81052946CD
:10055000434801F0DFF8424801F02AF94FF44870AF
:10056000FFF749FE00213E4801F02BF90C200090D6
:1005700029460A2321223A4800F08EFF01213848FB
:1005800001F01FF929463CA32D22354801F0C2F89D
:10059000641CE4B2324801F00BF93648C01DFFF785
:1005A000D5FDA042C0D13349C81DFFF7D6FD0028B4
:1005B0003CD0761CF6B22A4800F048FF2F49202391
:1005C000CDE9009105223021254801F0B3F82CA394
:1005D00037221E21224801F0A5F8214801F0E8F851
:1005E0005046FFF708FE1E4800F030FF28A30F22F8
:1005F0001E211B4801F096F81E224A231146184876
:10060000009700F06BFF164801F0D2F8194900245A
:100610000C39022EC1F80C80A1F8108081F81280EC
:1006200082D3BDE8FC470E4800F010BF0C4800F034
:100630000DFF124920238031CDE9009105223021A0
:10064000074801F077F816A337221E21044801F06D
:1006500069F8034801F0ACF85046FFF7CCFDE0E73D
:10066000C8020020E8BE93E585A5E5AF86E7A08136
:10067000000000009D0200202A0000006E2C0008EF
:10068000E9AA8CE8AF81E5A4B1E8B4A500000000B8
:10069000E9878DE696B0E8BE93E585A500000000E9
:1006A000E9AA8CE8AF81E68890E58A9F0000000007
:1006B00070B5244D002402212846FFF73CFE012896
:1006C00009D11420FFF797FD02212846FFF733FEDA
:1006D0000128F6D001244FF4006631462846FFF782
:1006E0002AFE012809D11420FFF785FD314628464E
:1006F000FFF721FE0128F6D0022420212846FFF72B
:100700001AFE012809D11420FFF775FD2021284683
:10071000FFF711FE0128F6D003244FF4807631460E
:100720002846FFF708FE012809D11420FFF763FDD2
:1007300031462846FFF7FFFD0128F6D00424204665
:1007400070BD0000000C014008B50121082000F038
:100750000DFB28208DF8030040F62210ADF80000B4
:1007600003208DF8020069460148FFF793FD08BD9C
:10077000000C01402DE9F041374F00242246202192
:100780003846FFF7DFFD6420FFF740FD01222021FE
:100790003846FFF7D7FD0A20FFF738FD002664082A
:1007A000002240213846FFF7CDFD20213846FFF7D3
:1007B000C2FD08B144F40044012240213846FFF74D
:1007C000C1FD761CF6B2102EE9D3012C23D0022CE9
:1007D00023D0042C23D0082C23D0102C23D0202C61
:1007E00023D0402C23D0802C23D0B4F5807F22D07E
:1007F000B4F5007F21D0B4F5806F20D0B4F5006F40
:100800001FD0B4F5805F1ED0B4F5005F1DD0B4F5E5
:10081000804F1CD01CE031251AE0322518E033252A
:1008200016E0342514E0352512E0362510E0372592
:100830000EE038250CE039250AE0302508E02A25AD
:1008400006E0232504E0412502E0422500E043259F
:100850002846BDE8F081000000080140FEE70000E6
:100860002DE9FC5F00263446FFF722FF684F03287E
:10087000F8720BD0012801D002287CD101203870F9
:10088000BDE8FC5F2021801E00F0B6BC614800F08E
:10089000DDFD61A30F221E215E4800F043FF4FF0F3
:1008A00011081E224A2311465A48CDF8008000F054
:1008B00015FE584800F07CFF4FF000094FF0200A69
:1008C00040F2DC5BFFF756FF0028FBD0062C33D844
:1008D0004F4901AB0C312D220855CDF804908DF80D
:1008E000040004EB4401212000EB8105294649481E
:1008F00000F010FF474800F05BFF4FF44870FFF72F
:100900007AFC0021434800F05CFF0C20009029464F
:100910000A2321223F4800F0BFFD01213D4800F09D
:1009200050FF294640A32D223A4800F0F3FE641CF4
:10093000E4B2384800F03CFF35481330FFF706FCBE
:10094000A042BFD132490C31C81DFFF706FCE0B30D
:10095000761CF6B22F4800F079FD34492023CDE90A
:1009600000A1052230212B4800F0E4FE372230A3FD
:100970001E21284800E048E000F0D4FE254800F0A1
:1009800017FF5846FFF737FC224800F05FFD2CA305
:100990000F221E211F4800F0C5FE1E224A231146C9
:1009A0001C48CDF8008000F099FD1A4800F000FFC7
:1009B000C7F80C90A7F81090002487F81290032E27
:1009C00080D3BDE8FC5F134800E001E000F03EBDCD
:1009D000104800F03BFD154920238031CDE900A1EE
:1009E000052230210B4800F0A5FE19A337221E2155
:1009F000084800F097FE074800F0DAFE5846FFF777
:100A0000FAFBBDE8FC5F00F015B9BDE8FC9F0000F3
:100A100091020020C8020020E8BE93E585A5E5AF5D
:100A200086E7A081000000002A0000006E2C00086C
:100A3000E9AA8CE8AF81E5A4B1E8B4A50000000004
:100A4000E9878DE696B0E8BE93E585A50000000035
:100A5000E9AA8CE8AF81E68890E58A9F0000000053
:100A600070470000024908430249086070470000CF
:100A70000000FA050CED00E02DE9F047144E0024CB
:100A800007464FF080084FF40079B51528FA04F2B4
:100A90003A4049463046FFF755FC01222946304688
:100AA000FFF750FC002229463046FFF74BFC641C40
:100AB000E4B2082CEAD3012229463046FFF742FC73
:100AC00029463046BDE8F0470022FFF73BBC000056
:100AD000000C014070B501220B4D540221462846FE
:100AE000FFF730FC0122160231462846FFF72AFCA8
:100AF000002221462846FFF725FC31462846BDE85E
:100B000070400022FFF71EBC000C014070B50A4D7A
:100B10004FF40074002221462846FFF713FC0122FF
:100B200011022846FFF70EFC21462846BDE870401A
:100B30000122FFF707BC0000000C014010B50C4675
:100B400040F0B00000F053F8102040EA141000F01C
:100B50004EF804F00F00BDE8104000F048B8000067
:100B60002DE9F0410746CE004000083E801E1546A4
:100B70004FF0FF38F1B2C0B2FFF7E0FF1148002498
:100B800000EB05152819A0F5805090F8000E00F034
:100B90003FF8641CE4B2082CF4D308EB4700F1B230
:100BA000C0B2FFF7CBFF00242819A0F5805090F8C1
:100BB000080E00F02DF8641CE4B2082CF4D3BDE854
:100BC000F0810000DE2400082DE9F04115460E46B4
:100BD0000746002406E03019C1B23846FFF7C0FFCF
:100BE000641CE4B22A5D002AF5D1BDE8F08110B59D
:100BF0000446FFF76FFF7820FFF73EFF0020FFF766
:100C00003BFF2046FFF738FFBDE81040FFF77EBFEF
:100C100010B50446FFF75EFF7820FFF72DFF402058
:100C2000FFF72AFF2046FFF727FFBDE81040FFF738
:100C30006DBF00002DE9FC5F3F4FDFF8F8B04FF0CB
:100C4000110A0025A7F1130800243C4800F0FEFB20
:100C50003BA30F221E21394800F064FD1E224A23C7
:100C600011463648CDF800A000F038FC1021CDE93F
:100C7000001B0B4634220321304800F05BFD2F4857
:100C800000F096FD40464FF0210940F8135F858043
:100C9000857100BFFFF76EFD060011D03E5500952F
:100CA00004EB44018DF8006009EB81016B462D22B5
:100CB000224800F02FFD641CE4B2204800F078FDCB
:100CC000062CE7D33D55232E1DD0062CBCD100BFEA
:100CD000FFF7EEFC0328FBD10D20009014233222F5
:100CE0000121164800F0FAFB144800F061FD40F2C3
:100CF000DC50FFF780FA114800F0A8FB012188F8CA
:100D00000010BDE8FC9F00210C4800F05AFD0C20AB
:100D10002122009048231146084800F0BDFB012124
:100D2000064800F04EFD404640F8135F858085710F
:100D30008AE700004E2C0008A4020020C802002010
:100D4000E8BE93E585A5E5AF86E7A0810000000039
:100D500070470000044A0029D16901D0014300E036
:100D60008143D1617047000000100240044A00290D
:100D7000916901D0014300E0814391617047000017
:100D80000010024030B51F494A6812F00C031E4A99
:100D900003D0042B01D0082B21D002604A680F2316
:100DA0001A4C03EA1212A35C0268DA4042604B68F4
:100DB000072505EA1323E35C22FA03F383604B68FB
:100DC00005EAD323E35CDA40C2604968032303EAFF
:100DD0009131231F595CB2FBF1F1016130BD4A68CA
:100DE0004B6802F470124FF0020413F4803F04EBDE
:100DF000924202D04B689B0301D5054B00E0024BA9
:100E00005A43CAE70010024000127A00AF020020E5
:100E100000093D00704700000CB5002126480191F3
:100E20000091026842F4803202604FF4A0630268CD
:100E300002F400320092019A521C0192009A12B9F7
:100E4000019A9A42F3D10268920333D501210091AD
:100E50001A490A6842F010020A600A6822F0030286
:100E60000A600A6842F002020A6041684160416813
:100E70004160416841F480614160416821F47C1126
:100E80004160416841F4E8114160016841F08071BE
:100E9000016001688901FCD5416821F003014160CE
:100EA000416841F0020141604168C1F381010229BA
:100EB000FAD10CBD00910CBD001002400020024090
:100EC0001CB54FF0FF374C4C5FF04005FFF7F0FBCF
:100ED000E072012804D0022808D0032816D017E0B9
:100EE000207808B1401E0DE0012003E020780228A0
:100EF00007D0401C207020214FEA070000F07CF949
:100F000006E00020207020210120F7E7FFF7EEFA2D
:100F10002078A8B1012825D00228D7D1374800F081
:100F200095FA37484023CDE900500022202133486C
:100F300000F000FC314800F03BFC00F0C3F9C5E7CD
:100F40002E4800F083FA2F484023CDE900500022BC
:100F500020212A4800F0EEFB284800F029FCFFF78A
:100F60007FFCB3E728A316221921244800F0DAFBFE
:100F7000202626483346CDE90060324600211F482E
:100F800000F0D8FB22A3162273211C4800F0CAFBF4
:100F90001E4820238038CDE900601A46602117489A
:100FA00000F0C8FB154800F003FC60780E21401CDF
:100FB000B0FBF1F201FB12006070402300222021FF
:100FC0000E48009500F068FA12486178402300EB63
:100FD0000130CDE9005000222021084800F0AAFB92
:100FE000064800F0E5FB0121044800F0EAFB0A2076
:100FF000FFF701F96AE7000091020020C802002013
:101000006E2F00086E2D000825000000CE2B000872
:101010002E430000EE31000810B50121064800F013
:10102000EBFB0021044800F0E4FBBDE8104003495D
:10103000014800F0CEBB0000C8020020EE110108FC
:10104000704700000F4810B5016841F001010160D0
:1010500041680D4A1140416001680C4A114001602D
:10106000016821F480210160416821F4FE014160A2
:101070004FF41F018160FFF7CFFE05494FF000607C
:10108000086010BD001002400000FFF8FFFFF6FEF0
:1010900008ED00E070B50F4C40F22555294620467A
:1010A00000F076F8012813D1204600F090F80A49A4
:1010B0000A4B08700A490A889854521C0A80094948
:1010C0000120087029462046BDE8704000F05AB85B
:1010D00070BD000000380140000000205C030020CB
:1010E000080000200600002070B5104D40F2255485
:1010F0002146284600F04CF888B1284600F067F8F1
:101100000B4BC0B21A78110609D4142A04D209492B
:101110008854521C1A7002E042F080001870214678
:101120002846BDE8704000F02DB8000000440040A3
:10113000D80100205C05002070B5104D40F2255408
:101140002146284600F024F890B1284600F03FF8E8
:101150000B4BC0B25A7811060AD4062A05D203F105
:1011600008018854521C5A7002E042F08000587006
:1011700021462846BDE8704000F004B80048004011
:10118000D80100200A0A01219140C943018070471B
:1011900030B501F01F0201240025C1F3421304FA07
:1011A00002F2012B0FD0022B0FD0838A4FEA1121BC
:1011B0000088134204FA01F400EA040001D000B1EF
:1011C0000125284630BD8389F0E7038AEEE7808851
:1011D000C0F308007047FEE702E008C8121F08C10C
:1011E000002AFAD170477047002001E001C1121FA8
:1011F000002AFBD1704700002DE9FC470E4605464A
:10120000002439E0234800F021F923494FF0200958
:10121000CDE90091A1B24B4610221E4800F08AFA97
:101220004FF0400804F12007B9B2434600221948A4
:10123000CDF8008000F030F919491848402349786A
:10124000002200EB0130CDE90080B9B2114800F076
:1012500071FA124904F160008039CDE9009181B240
:10126000202310220B4800F065FA0A4800F0A0FA8B
:1012700005EB4500204444B2002D02DDB442C1DB41
:1012800003E002DA70428442BCDCBDE8FC4701485E
:1012900000F0DCB8C8020020CE2A0008EE310008B9
:1012A000910200204FF4A060FFF7DCFBFFF74CFA3F
:1012B000FFF764F800F0D4F8FFF7AEFE0620FFF762
:1012C000FFFDFBE72DE9FC41FFF7F2F94F4C01254B
:1012D0000328E0720AD0012801D002286FD12570BE
:1012E000BDE8FC4120210120FFF786BF484F4FF0A9
:1012F0004E081026FFF7DCF9E072464800F0A6F829
:1013000045A30F220321434800F00CFA46A31E22F6
:101310000321404800F006FA47A32D2203213D484F
:1013200000F000FA1023342203213A48CDE9006787
:1013300000F000FA35490122891D081F01F0BAF8B2
:1013400032490122C91D081F01F0B4F82F490222B9
:101350000831081F01F0AEF82C4901220931081F9D
:1013600001F0A8F8607900902379E278A178294803
:1013700000F0B4F8274800F01BFAE07A012802D008
:10138000022807D00CE094F90A0008B1401E06E0DC
:10139000032004E094F90A0003280BD0401CA0723B
:1013A00094F90A0040B101280AD002280ED003287F
:1013B0001ED111E00020F2E7A571E57102E022E004
:1013C000A571E67184F80880667211E0A5711F208E
:1013D000E07172202072F7E7A5713220E0712A20B7
:1013E00020720D206072FFF763F9E072032808D0C5
:1013F000207801287FF47EAFBDE8FC41054800F06D
:1014000025B82570F8E7BDE8FC81000091020020B6
:101410004E2C0008C8020020E6B7BBE58AA0E68C87
:1014200087E7BAB900000000E588A0E999A4E68C36
:1014300087E7BAB900000000E588A0E999A4E5852E
:10144000A8E983A8E68C87E7BAB9000001680A7C9E
:1014500090F83810406B5143C900FEF76CBE000095
:1014600010B5094B094A0A490A4800F001FA09482F
:1014700000F06DFD0021074800F079FDBDE8104047
:101480000448FFF7E3BF0000171D00081120000803
:10149000141F0108C80200202DE9F8438146089C6A
:1014A0001E46101980B20090881983B215468846EE
:1014B000484600F065F900280ED00027002C0BD01C
:1014C00033462A4641464846009700F083F86D1C93
:1014D000641EADB2A4B2F1E7BDE8F8832DE9F84F80
:1014E00083460A9E9A46901980B201EB0A04009046
:1014F00015460F46A3B2584600F042F900282FD0F7
:101500004FF0000953462A4639465846CDF8009018
:1015100000F060F8022E23D3B61E360405F1010553
:10152000360CADB214D04FF0010833462A46394686
:101530005846CDF8008000F04DF8641EA1B2334645
:101540002A465846CDF8008000F044F8A81985B224
:1015500053462A4639465846CDF8009000F03AF8EE
:10156000BDE8F88F2DE9F041044690F870001F4661
:1015700015460E4630B1012809D002280CD00328A8
:1015800015D10FE0E16D20468847284408E0E16D61
:1015900020468847301A09E0E16D20468847281A1E
:1015A00085B204E0E16D20468847304486B2284683
:1015B000A4F86460A4F8660039460025204600F0CF
:1015C0004DFB010003D0204600F078FA85B2284692
:1015D000BDE8F0813FB581B0044690F88C000899D1
:1015E00000283AD0BDF81000002836D0012811D9C3
:1015F000022902D0032907D00CE0BDF80820101AF8
:10160000401CADF8080005E0BDF80C20101A401C85
:10161000ADF80C0011F0010521D0B4F84810BDF868
:101620000800814219D8B4F84A10814215D9B4F89B
:101630004E30B4F84C2004A90DF10C0000F0B0F9C4
:1016400000280AD00095206BBDF81030BDF80C20A2
:101650008568BDF808102046A84705B030BDB4F82D
:101660004C10BDF80C008142F7D8B4F84E108142FE
:10167000F3D9B4F84A30B4F8482004A902A8DDE749
:101680002DE9FF4F81B090F89270DDF838901D463B
:10169000884606469FB10020834603984146401C79
:1016A00080B2009008EB050083B23046039A00F048
:1016B00067F800282BD001244FF0000A23E0012016
:1016C000EAE700BF99F80000204202D086F8927045
:1016D00004E096F8910048B986F892B00123CDF85D
:1016E00000A041463046039AFFF774FF08F101005D
:1016F0001FFA80F8600010F0FF0402D1012409F104
:1017000001096D1EADB2002DDCD186F8927005B0D6
:10171000BDE8F08F30B4024C446030BC00F06DB9CD
:10172000D51F000830B4024C446030BC00F065B9ED
:10173000252400082DE9F84F8246DDE90A57D81D17
:10174000C0F3CC08501980B21C460090081983B22F
:1017500016468946504600F013F800280ED00BE0DC
:1017600023463246494650460097FFF789FF761CCC
:101770006D1E4744B6B2ADB2002DF1D1BDE8F88F71
:1017800070B50D461E460446B0F84E10B0F84C0039
:10179000049B00F0E1FA002809D0B4F84A10B4F82C
:1017A000480033462A46BDE8704000F0D5BA70BD07
:1017B00010B5044600F05FFB2046BDE8104000F085
:1017C000CEBB80F89210032902D3012180F8921039
:1017D000704710B50446806D884209D004F174004A
:1017E000A16500F013FB2046BDE8104000F05CB896
:1017F00010BD80F87010704780F86D1070470000C1
:101800000149C16570470000711A00080021A0F865
:101810005010A0F854104FF6FF71A0F85210A0F825
:101820005610016B4968084770B5044600250498B6
:10183000A565E362616384F8382084F8395084F840
:101840006D5084F8915084F88D50012184F89210E5
:1018500084F8931020630168204688472046FFF7EC
:10186000D5FF2046FFF7CCFF84F8705070BD000014
:101870007CB50C46009313460546084A084900F01B
:101880007EFB01A800F0BCFA0146064B00949DF8CF
:1018900004202846FFF7C8FF7CBD0000B5210008E2
:1018A000DD220008711D000810B5816D00291AD0D5
:1018B00090F9813080F88E3090F9822080F88F2066
:1018C00090F88D1000290ED001290DD090F97E409E
:1018D00090F980100C449C4201DD80F88E408A42D1
:1018E00001DD80F88F1010BD90F983108B4201DA72
:1018F00080F88E1090F98410F1E72BB1012B05D000
:10190000022B06D0104402E0084400E0801A80B2A6
:101910007047401AFBE72BB1012B05D0022B06D0F4
:10192000401A02E0104400E0084480B27047801A78
:10193000FBE738B50446B0F856000090B4F85230D2
:10194000B4F85420B4F850102046FFF719FF18B32C
:10195000012084F88C00B4F84810B4F8500081429B
:1019600001D2A4F84800B4F84A10B4F852008142F9
:1019700001D9A4F84A00B4F84C10B4F854008142DC
:1019800001D2A4F84C00B4F84E10B4F856008142CD
:1019900001D9A4F84E0038BD002084F88C0038BD71
:1019A00030B504880D882544ADB2AC4205D99C42BF
:1019B00002D25D1EADB200E014469C4201D29542B7
:1019C00001D8002030BD944200D214469D4200D977
:1019D0001D460480281B0880012030BD38B5C58F06
:1019E000049C0094521BC46A92B2A04738BD38B51B
:1019F000049C0094FFF7F2FF38BD2DE9F0471C4628
:101A000091468846064600F009FD00254FF6FF770F
:101A100072682178304690470346B84225D0641C4E
:101A2000A3F57F40FE38F3D04A4641463046FFF7E3
:101A300099FD96F8701031B1012907D0022908D01C
:101A400003290FD10AE008EB000104E009EB0001D3
:101A500006E0A8EB00011FFA81F803E0A9EB000102
:101A60001FFA81F9284485B2D2E72846BDE8F087FD
:101A70000020704710B50C4600F006F80122641EE5
:101A8000A240801A40B210BD30B50568047B2A78A8
:101A9000E2406318DBB2082B09D36D1C05602D787A
:101AA000C4F10804A5401543083BEAB2DBB20124A7
:101AB0008C40641E14400373204630BD2DE9F8436A
:101AC000054600F1600400F00CF915F96B6F204633
:101AD000E97BFFF7CFFF8146297C2046FFF7CAFF4D
:101AE0000746697C20466B3DFFF7C4FF804694F9AA
:101AF0000A00002857DDF019404247B2237CA08835
:101B00003A464946FFF7F9FEA080237C3A46E08832
:101B10004946FFF700FFE080A188277C02460B467C
:101B200037B1012F0AD0022F40D0032F0FD146E04A
:101B300094F90A7030443B449BB207E0891B491C6E
:101B400094F90A705B1C89B29BB2384480B2009051
:101B50002846FFF715FE30B30020207284F80900F4
:101B600095F876102046FFF78FFF814695F877109D
:101B70002046FFF789FF074600224946284600F025
:101B800027F801223946284600F022F80121204694
:101B9000FFF77AFF0028EFD194F90900B042DFDBAC
:101BA000A07B85F892004046BDE8F88394F90A705E
:101BB0005B1CC91B491C89B29BB2921B04E094F9BF
:101BC0000A7033449BB2D21B521C92B2401CBDE738
:101BD0002DE9F74F84B00D46049C94F8687094F892
:101BE00069806034A07AC01BC6B20196B54200D2AB
:101BF00001954FFA88F279B2A088B4F806B0237C38
:101C000092468946FFF779FE0290237C5246494668
:101C10005846FFF780FE0246069808B1A17B02E015
:101C2000607B50B9E17B049880F89210207C009092
:101C3000DDE901310498FFF7CDFCB54207D3A81BBD
:101C4000C5B208F10100002700F0FF08CAE77819C3
:101C5000207284F8098007B0BDE8F08F70B50D469A
:101C60000146806D1730FF2D10D8612D02D3B1F8D9
:101C7000881003E0412D02D3B1F886100844417862
:101C800019B30278AA42F9D1801C70BDB1F88A104C
:101C90000C1826460021304600F019F804440221B1
:101CA000304600F014F8361DA842F3D34FF6FF7209
:101CB000207802EA00216078084306D0A84201D1CA
:101CC000E01C70BDA0780444F2E7002070BD084419
:101CD0004FF6FF720178407802EA0121084480B291
:101CE000704730B5054600F160040166002020739E
:101CF00015F8781F2046FFF7C7FEA07269782046C6
:101D0000FFF7C2FEE072A87EA07310B10020E0735E
:101D100030BD0120FBE74D2919D00CDC2B2916D052
:101D200004DC292913D02A290ED110E02D290ED048
:101D30004C2909D10BE0002250290AD0512908D0A2
:101D4000522906D0532904D0012180F82710012000
:101D5000704780F82720FAE78A4205D2834201D8EB
:101D60009A4203D9012070478342F9D80020704776
:101D7000F0B502F007060124B440002590F892E087
:101D8000E7B2DDF814C02C46BEF1010F01D83D4684
:101D900000D03C46076822F00702BCF1000F3F7CF0
:101DA00007FB02F7BAB2476B3A44114409D10878ED
:101DB0005B1E284360401B0401F8010B1B0CF6D18D
:101DC000F0BD0A78761C2A436240A3F101030A7031
:101DD00016F007069BB206D06A06150E6206140EB0
:101DE000002BEED1F0BD428F114490F89220012AD1
:101DF00003D800BF4FF00105F2D04FF00104EFE728
:101E000008210170004870477005002070B5054634
:101E100008782870487868708878A870C878E87062
:101E2000087928714879687188790C46A871E07939
:101E3000E871207A2872607A6872A07AA872E07AD3
:101E4000E872207B2873607B6873A07BA873E07BBB
:101E5000E873207C287411212046FFF738FF688240
:101E600013212046FFF733FFA88215212046FFF7F4
:101E70002EFFE88270BD2DE9F843064690F83870D1
:101E800090F83950006800244FF6FF7890F81190D0
:101E9000316830462A460B7C716B04FB03FC1FFA49
:101EA0008CFC08EACC0C61440091002100F040F861
:101EB000641C6D1CE4B2EDB2BC4201D24D45E7D3C7
:101EC000BDE8F883F0B590F838204FF6FF75036849
:101ED00005EAC2018187197C05EAC101418790F8B2
:101EE000394005EAC401C1875E7CA718B74201D911
:101EF000321B92B205EAC20220F8401F1144418011
:101F0000998A8180D98AC180F0BDFFF7DBBF0021AB
:101F1000A0F84810B0F84410A0F84A10B0F84010EB
:101F2000A0F84C10B0F84210A0F84E10FFF701BD19
:101F30001CB58DF805108DF80620049C8DF8043032
:101F40000094012284686B460F21A0471CBD30B469
:101F500084680023A44630BC1A460A21604730B486
:101F600084680023A44630BC1A461021604730B470
:101F700084680023A4460A4630BC0B2160472DE943
:101F8000F04115460E460446069F00F009F86761C9
:101F9000A660C4E903532046BDE8F04100F012B842
:101FA000002140F8081B064A026042608260C2605D
:101FB000C17681770161FF21017780F82010704799
:101FC000E123000830B484680023A44630BC1A46DC
:101FD00009216047080001D00A2801D14FF6FF709F
:101FE000704730B404690023A44630BC1A46192156
:101FF000604713B50122046901AB1721A0471CBD3E
:1020000030B404690023A44630BC1A461821604746
:102010002DE9FF41354C1D46164618293ED004DCFB
:1020200014291CD0172904D114E0192957D02029CC
:1020300059D0002004B0BDE8F08100BF15F8011BA5
:102040002046FEF751FA39462046FEF781F900286E
:10205000F9D000E0264F761EF6B2EFD243E0012120
:102060004805FEF777FE0020ADF804004BF6FF7040
:10207000ADF806001020ADF808008001ADF80A00A8
:102080000001ADF80C001B48009069462046FEF7A1
:10209000C5F901212046FEF767F924E04FF4003529
:1020A00029462046FEF7A4F90028F9D1012120464F
:1020B000FEF78AF9104D20462946FEF749F9002817
:1020C000F9D0002278212046FEF706FA084DAD1E11
:1020D00029462046FEF73CF90028F9D003E001210B
:1020E0002046FEF77BF90120A4E7000000540040E1
:1020F00084000700400D03000100030030B4C468F1
:102100000023A44630BC1A461921604730B4C46885
:102110000023A4460A4630BC1621604730B4C46888
:102120000023A4460A4630BC1521604730B4C46879
:102130001346A4460A4630BC17216047F8B50C4642
:102140004FEA000514F8011B182924D00EDC1529CC
:1021500019D0162917D0172923D120788DF800001F
:102160006A4601212846FFF7E1FF0AE0192912D04B
:10217000FE2916D122788DF800202921284600F06A
:1021800031F9641CDEE722788DF80020EE68002328
:102190002846B047F5E70023EE681A462846B047C0
:1021A000D0E7F8BD30B4C4680023A44630BC1A465A
:1021B000182160472DE9F041DFF8B080144606464B
:1021C000A1F11402002798F800001D46062A4AD201
:1021D000DFE802F02F03161B3E4310B13046FFF735
:1021E00000FF3046FFF70CFF00213046FFF701FFEC
:1021F00021463046FFF7FDFE012088F8000029E067
:1022000021463046FFF7F5FE24E050B13046FFF797
:10221000E8FE06E01821304600F0EAF8183CE4B287
:102220001835182C2A46F5D82146304600F0E0F83B
:102230000EE096F82400FF2802D1782086F82400CA
:1022400037692B4622463046BC46BDE8F041604720
:1022500088F800700120BDE8F0810028F8D03046F1
:10226000FFF7BFFEF4E70020F5E70000BF02002003
:1022700070B50023456904461A462821A847002363
:10228000E5681A4614212046A84701224B21204622
:1022900000F0A8F8206829210279204600F0A2F871
:1022A00000224B21204600F09DF820682921027968
:1022B000204600F097F801224B21204600F092F8CA
:1022C0002068292142792046BDE8704000F08AB894
:1022D0000160897C80F822107047000070B50C46C0
:1022E000054600F019F888B9092C0BD00A2C01D04A
:1022F000002070BD2846FFF7BBFF05492846FFF7C1
:102300001DFF03E003492846FFF7E2FF012070BDEF
:10231000461F0108482001082DE9F0411E461446D9
:1023200005460B2908D00D290ED00E291ED00F29E5
:1023300027D00020BDE8F0811AB12849FFF7FEFE42
:102340004AE02649491FF9E74AB124490C31FFF711
:10235000F5FE286890F8130085F822003CE01F493C
:10236000491DFFF7EBFE2868807CF5E7FFF71AFFB1
:1023700081212846FFF7D2FE21462846FFF7C6FEF8
:1023800027E0FFF70FFF707995F8221001EBC000EE
:10239000C7B240212846FFF7C1FE102040EA1711BE
:1023A0002846FFF7BBFE07F00F012846FFF7AEFEF9
:1023B000B07940F0B0012846FFF7A8FE30793268C6
:1023C000C006010E2846FFF7B1FE641E14F0FF049C
:1023D000F4D12846FFF792FE0120ABE7251F010844
:1023E0000020704730B444690023A44630BC6047E5
:1023F0002DE9F04115460E460446FFF701FE402147
:102400002046FFF7F6FD27692B4632461721204666
:10241000B8472046BDE8F041FFF7E3BD002180F852
:102420002610704730B54FF6FF72A9B30A293FD086
:1024300090F82630541E7BB15B1E13F0FF0380F82A
:102440002630058C01F03F0102EA851242EA0102C2
:1024500002842DD0204630BDFC2905D3052280F80A
:10246000262001F001011FE0F82905D3042280F89D
:10247000262001F0030117E0F02905D3032280F89C
:10248000262001F007010FE0E02906D3022280F8A0
:10249000262001F00F0107E00AE0C02906D301223F
:1024A00080F8262001F01F010184D3E7084630BDE3
:1024B000104630BD10B503780C78A34207D21A44F9
:1024C000D2B2027009788A4200D9017010BDFDD9DC
:1024D0009A1AD2B2027009788A42F6D310BD00006F
:1024E00000000000000000000000000000000000EC
:1024F00000F8000000000000003330000000001071
:102500000C06100C0600000000000000000040C097
:102510007840C0784000043F04043F040400007089
:1025200088FC08300000001820FF211E0000F00881
:10253000F000E018000000211C031E211E0000F026
:102540000888700000001E2123241927211010166E
:102550000E0000000000000000000000000000006D
:1025600000E01804020000000007182040000002EC
:102570000418E00000000040201807000000404060
:1025800080F0804040000202010F010202000000C2
:1025900000F0000000000101011F01010100000026
:1025A00000000000000080B070000000000000008B
:1025B0000000000000000001010101010101000014
:1025C00000000000000000303000000000000000AB
:1025D000000080601804006018060100000000E0A0
:1025E00010080810E000000F102020100F0000104D
:1025F00010F8000000000020203F202000000070A4
:10260000080808887000003028242221300000309B
:102610000888884830000018202020110E00000093
:10262000C02010F8000000070424243F240000F814
:102630000888880808000019212020110E0000E0F9
:10264000108888180000000F112020110E0000389B
:102650000808C83808000000003F000000000070B3
:10266000880808887000001C222121221C0000E03C
:1026700010080810E0000000312222110F000000B5
:1026800000C0C0000000000000303000000000006A
:1026900000800000000000008060000000000000DA
:1026A0008040201008000001020408102000404073
:1026B00040404040400004040404040404000008B6
:1026C000102040800000002010080402010000706B
:1026D00048080808F0000000003036010000C03053
:1026E000C828E810E0000718272423140B00000076
:1026F000C038E0000000203C23020227382008F800
:10270000888888700000203F202020110E00C030F3
:10271000080808083800071820202010080008F8CA
:1027200008080810E000203F202020100F0008F8C3
:102730008888E8081000203F20202320180008F88F
:102740008888E8081000203F200003000000C03007
:1027500008080838000007182020221E020008F888
:1027600008000008F808203F210101213F2000084F
:1027700008F8080800000020203F2020000000008A
:102780000808F8080800C08080807F00000008F872
:1027900088C028180800203F20012638200008F8AB
:1027A000080000000000203F20202020300008F812
:1027B000F800F8F80800203F003F003F200008F82C
:1027C00030C00008F808203F200007183F00E01044
:1027D00008080810E0000F10202020100F0008F853
:1027E00008080808F000203F210101010000E01066
:1027F00008080810E0000F18242438504F0008F88B
:10280000888888887000203F2000030C30200070EA
:102810008808080838000038202121221C001808E8
:1028200008F8080818000000203F2000000008F801
:1028300008000008F808001F202020201F0008784A
:10284000880000C83808000007380E010000F808AA
:1028500000F80008F800033C0700073C03000818D4
:1028600068808068180820302C03032C302008383A
:10287000C800C83808000000203F200000001008F1
:102880000808C83808002038262120201800000039
:1028900000FE020202000000007F40404000000CE9
:1028A00030C000000000000000010638C000000237
:1028B0000202FE000000004040407F0000000000D7
:1028C00004020202040000000000000000000000FA
:1028D00000000000000080808080808080800002F6
:1028E00002040000000000000000000000000000E2
:1028F0008080808000000019242222223F2008F8D6
:10290000008080000000003F112020110E00000018
:10291000008080800000000E1120202011000000A7
:1029200000808088F800000E112020103F20000059
:10293000808080800000001F22222222130000805D
:1029400080F0888888180020203F202000000000A8
:10295000808080808000006B94949493600008F8DD
:10296000008080800000203F210000203F20008068
:102970009898000000000020203F20200000000068
:1029800000809898000000C08080807F000008F8D8
:10299000000080808000203F24022D3020000008AD
:1029A00008F8000000000020203F20200000808068
:1029B000808080808000203F20003F20003F80807A
:1029C000008080800000203F210000203F20000088
:1029D000808080800000001F202020201F00808039
:1029E00000808000000080FFA12020110E00000068
:1029F000008080808000000E112020A0FF80808059
:102A000080008080800020203F2120000100000005
:102A100080808080800000332424242419000080DA
:102A200080E0808000000000001F202000008080E7
:102A3000000000808000001F202020103F208080A8
:102A400080000080808000010E3008060100808038
:102A50000080008080800F300C030C300F0000805D
:102A60008000808080000020312E0E312000808088
:102A700080000080808080818E70180601000080B8
:102A80008080808080000021302C222130000000D6
:102A90000000807C020200000000003F4040000077
:102AA0000000FF00000000000000FF000000000226
:102AB000027C800000000040403F00000000000653
:102AC000010102020404000000000000000000C038
:102AD0000300004003000040030000407F0000406E
:102AE0007F0000400300004003000040030000405E
:102AF00003000040030000400300004003000040CA
:102B000003000040030000600F0000783E00001C3E
:102B100070000006C0000003800100038001000176
:102B20000003800100038001000380010003808115
:102B3000170380C11C01004384010083C601000605
:102B4000C300000C70000078380000F01F00000087
:102B5000000000C0030000E0070000F00F00007854
:102B60001E0000381C0000381C0000381C0000301B
:102B70000C0000F00C0000F00D0000F00C0000F064
:102B80000D0000300C0000F00D0000F00C0000F013
:102B90000D0000F00C0000300C0000381C00003C60
:102BA0003C00001E7E00000E7E00000E7800000E2D
:102BB0007C00000E7F00009E7F0000FC3F0000F8BC
:102BC0001F0000F00F0000000000000000000000E7
:102BD00000000000000000380000007C0000007EC3
:102BE000000000EF000000C7010080C30300C083A5
:102BF000C700E001E701E000E603F000F003700029
:102C0000780778003C0F38001C0E38000E1C1C00A2
:102C10000E1CDC000638DC013638DC013738DC01FC
:102C20007738DC01F639DC03EE3DB80F1E1E787FE5
:102C3000FC0F707EF807E001C700C0EF070080FFBF
:102C4000030000FF01000000000000000000000081
:102C5000C001E001B8018C0F061C0E31B86FF0798D
:102C6000C061806000400000000000000000000023
:102C7000000000FC3F0000FFFF00801FF801C007BC
:102C8000E003E00180077000000E3800001CBC303B
:102C90008C3DDC3BDC3B9E3FFC790E1FF8700E1F29
:102CA000F870863FFC61C63BDC63C6318C618600F0
:102CB00000600600006006C003600EF81F700EFC86
:102CC0003F701E3E7C781C0E70383C06603C38001D
:102CD000001C7000000EE0018007C007E003801FA9
:102CE000F80100FFFF0000FC3F000000000000FCB6
:102CF0003F0000FFFF00801FF801C003C003E00099
:102D000000077000000E3800001C1C0000380E0088
:102D100000700E000070070000E0070EF8E0071FCB
:102D2000FCE1031FDCC1030FCCC1030400C003009E
:102D300000C0030060C0030070C0070070E007001F
:102D400070E0070C38E00E3C3C700EF81F701CF071
:102D50000F383800001C7000000EE0000007C003B0
:102D6000C003801FF80100FFFF0000FC3F000000CF
:102D700000F007000000000000F007000000000065
:102D800000300600000000000030060000000000D7
:102D900000300600000000000030060000000000C7
:102DA0000030FE3F00000000003006300000000050
:102DB0000030FE3F00000000003006000000000070
:102DC0000030060000000000003006000000000097
:102DD0000030060000000000003006000000000087
:102DE0000030060000000000003006000000000077
:102DF0000030060000000000003006000000000067
:102E00000030060000000000003006000000000056
:102E10000030060000000000003006000000000046
:102E20000030060000000000003006000000000036
:102E30000030060000000000003006000000000026
:102E40000030060000000000003006000000000016
:102E500000301E0000000000003CFE0000000000EA
:102E6000003FF803000000008007800F0000000012
:102E7000E001001E00000000F0000038000000002B
:102E800038000070000000001C0000E0000000009E
:102E90001C000EE0000000000E0038C00100000021
:102EA0000700608001000000070080800300000030
:102EB0000300000103000000030000030300008082
:102EC00003000006070000800100000606000080E5
:102ED00001000006060000800100000406000080DA
:102EE00001000004060000800100000006000080D0
:102EF00001800F000600008003C018030600008058
:102F00000360A003070000000320A00303000000EB
:102F1000072020000300000007202080030000009D
:102F200006603080010000000EC018C001000000E3
:102F30001C800FE00000000038000070000000005E
:102F40007000003800000000E000001C00000000DD
:102F5000C003000F00000000801FC0070000000039
:102F600000FEFF010000000000F87F0000000000EC
:102F70000000000000000000000000000000000051
:102F80000000000000000000000000000000000041
:102F9000000000000000000000C00700000000006A
:102FA00000C007000000000010E007000000000063
:102FB0003CE00738000000007EE007FC0000000055
:102FC000FEF00FFE00000000FEFFFF7F000000008B
:102FD000FCFFFF7F00000000FCFFFF3F000000003F
:102FE000FC3FFC3F00000000FC03C03F0000000667
:102FF000FE00007F0000001E3F0000FC700000FF8C
:103000001F0000F8FF0000FF070000E0FF0000FFC6
:10301000078003E0FF0100FE038E73C0FF0000FC89
:1030200001FE7F807F0000F801FE7F803F0000F8F6
:10303000003C7C001F000078E00FF0071E000078C5
:10304000E007E0071E000078E003C0071E00003C18
:10305000C00180033C00E03FC0018003FC03E03F6F
:10306000F0010003FC07E03FF001000FFC07E03F28
:10307000F001000FFC07E03FC001000FFC07803F9C
:10308000C0018003FC07003CC00180033C000078C5
:10309000E003C0071E000078E007E0071E0000788C
:1030A000E01FF0071E0000F800FE7F041F0000FC78
:1030B00000FE7F001F0000FE01FE7F803F0000FF3A
:1030C00001CF71807F0080FF03C001C0FF0000FFBF
:1030D000070000E0FF0000FF0F0000F0FF00000EFF
:1030E0001F0000F8780000007E00007E60000000F5
:1030F000FC01803F00000000FC07E03F00000000F2
:10310000FCFFFF3F00000000FEFFFF3F000000004B
:10311000FEFFFF7F000000007FF00F7F0000000037
:103120003FE0077E000000001CE0073C00000000BC
:1031300000E007080000000000E0070000000000B9
:1031400000E003000000000000000000000000009C
:10315000000000000000000000000000000000006F
:10316000000000000000000000000000000000005F
:10317000000000000000000000000000000000E06F
:103180000700002004000027E400803DBC01C010BF
:103190000803C0000003800000018001800180E17D
:1031A0008701F0300C0F10100808101008081010DC
:1031B000080810100808F0300C0F80E0870180012B
:1031C000800180000003C0000002C0000003803DB9
:1031D000BC010027E4000020040000E0070000001C
:1031E00000000000000000000000000000000000DF
:1031F00000000000000000000000000000000000CF
:1032000000000000000000000000000200000000BC
:1032100000FF000300000000800003040000000025
:1032200000000C000000000000001800000000007A
:10323000803F300000000000E0E06100000000007E
:10324000F8F04300000000003CFC87000000000094
:103250000EFE0F000000000007FE1F00000000002F
:1032600001FF1F100000008001FF3F1000000080E0
:1032700080FF3F00000000C080FF7F000000004092
:1032800080FF7F000000004080FF7F0000000040C2
:1032900080FF7F000000004080FF7F0000000040B2
:1032A00080FF7F000000004000FF7F000000004022
:1032B00000FF7F00040000C000FE7F0004000080CB
:1032C00000FE3F000000008001FC3F000000000005
:1032D00001F0FF000000000003C01B01000000001F
:1032E00006000803000200000C000405000C0000AA
:1032F0001803030A00040000E0C7013400080000BE
:10330000803F00280000000000100048000000007E
:10331000009000080000000002100078000000008B
:103320000410C1200100000004102121020000004F
:103330000810217102000000100062490000000026
:103340001020C280006000002020068000000000E5
:1033500060C0058000000000404068880020000038
:1033600080401890006000008081167001400000CD
:10337000000121300280000001026038010000805D
:103380000406C0C400000000040400630000000044
:1033900002080032000000000018000E00000000CB
:1033A00000001000000400000000200000040000E5
:1033B00000002000000000000000400000000000AD
:1033C000000000800000000000000000010000007C
:1033D00000000000010000000000000000000000EC
:1033E000000000000000000000800000000000005D
:1033F00000000000000000000000000000000000CD
:1034000000000000000000000000000000000000BC
:1034100000000000000000000000000000000000AC
:10342000000000000000000000000000000000009C
:1042100000000000000000000000C00000000000DE
:104220000000C000000000000000000000000000CE
:10423000807F00000000000060C04100000000001E
:1042400018004300000000000CF887000000000088
:104250000EFE8FC1000000000EFF1FC10000000015
:1042600087FF1F2200000080C3FF3F060000008080
:10427000C3FF3F0400000080E1FF7F08000000C092
:10428000E0FF7F1800000040E0FF7F1000000040CA
:10429000E0FF7F2000000040E0FF7F2000000040A2
:1042A000E0FF7F4000000040E0FF7F80040000400E
:1042B000E0FF7F8004000080E0FF7F0000000080BE
:1042C000C0FF3F0000000080C1FF7F000000000031
:1042D00081FF9F000000000003FF1F03000000009B
:1042E00006FC8F04000000000C60040900000000C0
:1042F0001800031200000000E0C0012400010000CB
:10430000803F0068000100000008005C0000000021
:104310000008001200000000008800710000000288
:104320000088003200000000008800240000000027
:10433000001039300000000000104948040000005F
:104340000010484008000000002033401800000220
:1043500000E00400000000000040440000000000F5
:10436000004028880000000000C11CD801000000A7
:1043700000811330020000000002603801000000DC
:10438000000680A40000000000040063000000009C
:1043900000080030000000000018001A4000000073
:1043A00000100004000000000020000000000000D9
:1043B000006000000000000000400000000000005D
:1043C000C08000000000000000810000000000002C
:1043D00000000100000000000000000002000000DA
:1043E00000000002040000000000000400000000C3
:1043F00000000000000000000000000000000000BD
:1044000000000000000000000000000000000000AC
:10441000000000000000000000000000000000009C
:10442000000000000000000000000000000000008C
:1052000000002000000000000000900000000000EE
:105210000000E0000000000000000010000000009E
:10522000000000000000000000000000000000007E
:10523000807F000000000000F0FF0100000000007F
:10524000D8710300040000000C00040000000000FE
:105250000600080000000000037F100000000000AE
:10526000C1FF310000000080E1FF23000000008842
:10527000F0FF2700000000C8F0FF4F000000004CC6
:10528000F8FF4F0000000044F8FF5F0001000044F9
:10529000FCFF5F0000000044FCFF5F0000000044D2
:1052A000FCFF5F0000000044FCFF5F004000004482
:1052B000FCFF5F0040000088FCFF7F0000000088CA
:1052C000F8FF7F0000080098F9FFBF010000001000
:1052D000F1FF1F0200000020F3FF1F0C0000006020
:1052E000E6FF8F9800000040CCFF07B3000000806D
:1052F00018FF03660100008061F0006402000000F6
:10530000813F009802000000020800100400000025
:10531000020800960C000000044800E908000000A4
:10532000084800491000000E0840006730000012D5
:105330000090187020000012009024984000000C8B
:105340000010258000400000002021000200000025
:1053500000E01A80060000000040448004000000C5
:1053600000403C8C09000000008013C81A000000B7
:10537000000021300200000000004C38030000044F
:10538000000088EF0100000000001062040000002F
:1053900000003032080000000000201A0800000061
:1053A00000000004000000000000000000000000F9
:1053B00000000000000000000000000000000000ED
:1053C000000000000000000040000000000000009D
:1053D000000000000000000080000000000000004D
:1053E00000000000000000000000000000000000BD
:1053F00000000000000000000000000000000000AD
:10540000000000000000000000000000000000009C
:10541000000000000000000000000000000000008C
:1061F0000000C000000000000000000000000000DF
:10620000000000000000000000000000000000008E
:10621000000000000000000000000000000000007E
:10622000000000000000000000000000000000006E
:10623000807F000600000000F0DF01090000000080
:10624000D811030A000000000C0004040100000043
:106250000600080003000000030C1000000000000E
:10626000817F300000000080E1FF200000000080FE
:10627000F0FF2300400000C0F8FF43000000004092
:10628000FCFF470000000040FCFF4700000000400A
:10629000FCFF4F0000000040FEFF4F0000000044E4
:1062A000FEFF4F0000000044FEFF4F0000000044CE
:1062B000FEFF4F00000000C8FEFF4F0000000088F6
:1062C000FCFF6F0010000098FCFFA7010000001009
:1062D000FDFF370200000020FBFF130C00000060F0
:1062E000F6FF0F1800040040FCFF8731000000801B
:1062F000F8FF036200000080E1FF00E400000000FE
:10630000813F00980200000002080018050000000C
:10631000020000170D000000044000A50800000066
:106320000850806810000000085000653000000030
:10633000109008722000000000A01C98400000008F
:1063400000202180C0000000002023800000000009
:1063500000C01E80000000C00040448004000020F7
:1063600001803C8C09000020010013C80A0000C015
:10637000000020301200010000004038030002003D
:10638000000080EF0100000000000062000000003B
:1063900000003032000000000000201A1800000049
:1063A0000000400410000000000040000000000059
:1063B00000000000000000000000000000000000DD
:1063C00000000000000000000000000000000000CD
:1063D00000000000000000000000000000000000BD
:1063E00000000800000000000000000000000000A5
:1063F000000000000000000000000000000000009D
:10640000000000000000000000000000000000008C
:10641000000000000000000000000000000000007C
:10642000000000000000000000000000000000006C
:1072100000FF0000000000008000030000000000EC
:1072200000000C000000000000001800000000003A
:10723000807F301000000000E0C3613000000000DB
:10724000F8014300000000003C0084000000000042
:107250001E000800000000000300100000000000F5
:107260000100300000000080C10320000000008009
:10727000F01F2000000000C0FC3F408001000040E3
:10728000FE7F404002000040FEFF40000200004040
:10729000FFFF4180410000C0FFFF4100400000C0EF
:1072A000FFFF4100000000C0FFFF4300000000C0DE
:1072B000FFFF730000000080FFFF730000100080DC
:1072C000FFFF630000000080FFFFE30000000000FC
:1072D000FFFF310300000000FFFF11040000000069
:1072E000FEFF090800000000FCFFC43000000000A1
:1072F000F8FF836100000000E0FF01620000000071
:10730000803F0094000400000010000C0104000005
:107310000010008800000000042080D10000000060
:107320000860402310000000086040223000000088
:1073300010C0405220000000208080494000000022
:1073400020400780C000000040400980800000000D
:10735000C0800280000000008080448000000000A7
:1073600000013D8201000000000312440200000001
:107370000002203812000000000440182100000024
:107380000000809F0000000000000062000000007C
:1073900000000012000000000000000C00000000CF
:1073A00030004000100000010000C000200000027A
:1073B000400000000000000020000000000000006D
:1073C00000000000000000000000000000000000BD
:1073D00000000000000000000000000000000000AD
:1073E000000000000000000000000000000000009D
:1073F000000000000000000000000000000000008D
:10820000000000040000000000000000000000006A
:1082100000FC00000000000000000300000000005F
:1082200000000C000000000000001800000000002A
:10823000807F300000000000E0C06100040000000A
:1082400078004300000000003C00840000000000B3
:108250000E0088010000000007001001000000006F
:1082600003003002000000800100200603000080AF
:10827000E0012000030000C0FC0F400000000040AF
:10828000FE1F400000000040FF3F4000000000C013
:10829000FF7F4000000000C0FF7F4000000000C0E2
:1082A000FFFF6000000000C0FFFF6000100000C082
:1082B000FFFF700028000080FFFF610020000080A9
:1082C000FFFF210038000080FFFF6100000C00006C
:1082D000FFFFB00100000000FFFF100200000000DF
:1082E000FEFF080C00000000FC7F041800000000E6
:1082F000F87FC32000000000E0FF016100000000E3
:10830000803F0092000000000010008C0000000080
:108310000010008800000000002000C800000000DD
:108320000060C0700000000000602031000000000C
:1083300000C00051200000000080A0494000000063
:108340000040C384C000000040400780800000005F
:10835000C080048000010000808044000000000014
:1083600000013D82010000000003124602000000EF
:108370000002303C120000000004601C21000000DC
:10838000000C809C200000000008006340000000FA
:1083900000100012000000000000000C00000000AF
:1083A00000000000000000000000000020000000AD
:1083B000000080000000000000000000000000003D
:1083C00000000000000000000000000000000000AD
:1083D000000000000000000000000000000000009D
:1083E000000000000000004000000000000000004D
:1083F000000000000000000000000000000000007D
:10840000000000000000000000000000000000006C
:10841000000000000000000000000000000000005C
:10842000000000000000000000000000000000004C
:10923000807F00000000000060C06180000000002E
:1092400018004300030000000C00848001000000AF
:109250000E0088010200000007001001000000005D
:109260000300300200000088030020060000008890
:1092700001002004000000C4000040080000004479
:1092800000004008000100C47F004010000000C43E
:10929000FF016020000000C4FF036020000000C444
:1092A000FF076040000000C4FF0F6080000000C4A2
:1092B000FF0F4080C000008CFF1F40004000008076
:1092C000FF1FE00000000080FF1F6003000000009F
:1092D000FF1F300200000000FF1FD004000000004C
:1092E000FE1F080900000000FC1F040E0000000023
:1092F000F81F031800064000E0DF311000080000EE
:10930000803F403000090000001080480006000047
:109310000020004B0000000000200046000000007C
:109320000060002400000000004000380000000041
:1093300000C078300000000000C048480000000075
:10934000008049840000000000803182000000009D
:109350000000038000000000000006000000000084
:1093600000001E8101020000000018C3020400007A
:1093700000002036020400000000601C0300000012
:10938000000C808D01000000000800720000000049
:1093900000100012800000000030000C800000006F
:1093A000002000000001000000400000000000005C
:1093B00000400000000000000080000000000000ED
:1093C000000000000000000000000002000000009B
:1093D000000000000000000000000000000000008D
:1093E000000000000000000000000000000000007D
:1093F000000000000000000000000000000000006D
:10940000000000000000000000000000000000005C
:10A21000000000030000000000000000000000003B
:10A22000000000000000000000000000000000002E
:10A23000807F00000000000060C0010000000000FE
:10A2400018000300000000000C00040800000000DB
:10A2500006000800000000000300160020000000B7
:10A260000100340000000080010028000000008090
:10A27000030038040000008001007008000000C0E6
:10A28000010070080000004000004010000000C005
:10A2900007004020000000C01F004020000000C058
:10A2A0003F004040800000C07F004080000300C0AD
:10A2B000FF00408000010080FF0140010102008892
:10A2C000FF01600202000088FF0320040200001862
:10A2D000FF03100804000010FE0310080C000030FB
:10A2E000FE07281008000020FC0744201000004052
:10A2F000F8078B40000000C0E0C7914000000083D9
:10A30000807F208100008004012060820000000422
:10A3100001004486000000030240846400800000C5
:10A32000044008390000000004401811000000003B
:10A330000880D0320000000018803C32000000008D
:10A3400010003324000000002000436200000030B1
:10A35000600092410000004040000C4000000000FE
:10A36000000038C001000040000060E00200000072
:10A370000000C030030000000000001B01080000C6
:10A3800000000086001800000000004400000000EB
:10A390000000003400000000000000080000C000C1
:10A3A0000000000000002001000000000003200168
:10A3B000000000000000C00000800000000000005D
:10A3C000000001000000000000000100000000008B
:10A3D000000002000000000000000000000000007B
:10A3E000000000000000000000000000000000006D
:10A3F000000000000000000000000000000000005D
:10A40000000000000000000000000000000000004C
:10A41000000000000000000000000000000000003C
:10B2100000FF00100000000080000320000000007C
:10B2200000000C00000000000000180000000000FA
:10B23000C07F30000000000060C06100000000001E
:10B2400018000320000000000C0004200000000093
:10B2500006000800000000000300160000000000C7
:10B2600001002C0000000080010028000000008088
:10B27000010078000000008001004000000000C0D4
:10B2800001004080000000C00000400000020040BB
:10B29000000040000000004000004000000000C02E
:10B2A00000004000000000C00300400000000080DB
:10B2B0000F004000000000801F00400000000080E0
:10B2C0003F002000000000003F00E00100000000FF
:10B2D0007F007003000000007E00100200000000EC
:10B2E000FE00080400300000FC0004080008000014
:10B2F000F000031000000000E0C103302000000057
:10B30000003F06204000000000200C4040000000EC
:10B3100000400C808000000000C018C00001000048
:10B3200000C03060000100000480713000020000A5
:10B330000880E118000400301080E2270004004873
:10B34000100093280000004020008F4800000020DB
:10B3500060008E400000000040008C5000000000A3
:10B360008000785000000000800120F00300000001
:10B370000001C070020000000002801901000000FE
:10B3800000060086000000000504004200000000E6
:10B3900000080032000000000418001C010000003A
:10B3A000000000000200000000000000000000009B
:10B3B0000000000000000000000000000000000C81
:10B3C0000000000000000012000000000000001259
:10B3D000000000000000000C000000000000000061
:10B3E000000000000000000000000000000000005D
:10B3F000000000000000000000000000000000004D
:10B40000000000000000000000000000000000003C
:10B41000000000000000000000000000000000002C
:10C210000080000000000000000063180000000023
:10C2200000000C18000000000000180000000000D2
:10C23000C07F30000000000060C06100000000000E
:10C2400018004300000000000CC084000C00000037
:10C2500002008B0102000000030016011400000020
:10C2600007003C0208000080030020060000008058
:10C2700003002004000000C000004108000000404E
:10C280000000400800001040000040000C0020406A
:10C29000000040000C004040000040000000004052
:10C2A000000040000000004000004000000000408E
:10C2B00000004000000000C00000400000000080BE
:10C2C00000006000000000800100A00120000000CC
:10C2D00001003002000000000300480C00000000D4
:10C2E00006008618000000000C00833100000000EA
:10C2F0001880006300000000E0600066000000009D
:10C30000803F009E000000000028001C010000008B
:10C310000028009800000000004800F00000000025
:10C3200000C800400000000000800068000000001D
:10C3300000900176000000000010039B0000000048
:10C340000010838000080000002067800010000CAF
:10C3500000E03E800010000000404480002000000B
:10C3600080403C8C01000000808113C83200000036
:10C3700000012030220000000402403803000000C9
:10C380000A0680ED010000001204006200000000B7
:10C3900000080032000000000008001A0000000041
:10C3A0000010000400000000002000000000000059
:10C3B0000020800004000000004000010800000090
:10C3C0000080000218000400008000020000080045
:10C3D000000001000000000000000300000000C099
:10C3E000000002000000002001000000000000002A
:10C3F000000000000000000000000000000000003D
:10C40000000000000000000000000000000000002C
:10C41000000000000000000000000000000000001C
:10C42000000000000000000000000000000000000C
:10D20000000000000000000000000001000000001D
:10D21000000080010000000000000002000000008B
:10D2200000000000000000000000000000000000FE
:10D23000C07F000000000000709841000000000066
:10D2400018304200000000000C00860000000000C2
:10D2500006000E010000000003001C090000000091
:10D2600001003C1A0600008001003C060600008018
:10D27000000078040000008000007808000000C072
:10D280000000700800000040000060100000004036
:10D2900000004020000100400000402080000040CD
:10D2A00000004040000100C00100408000020080FA
:10D2B000010040800000008003004000000000806A
:10D2C00003006000000000000700200000000000D4
:10D2D0000700700000010000020090010003000040
:10D2E00006000802000000000C002C0400000000F2
:10D2F0003000430800000000E0C09118000000006A
:10D30000807FA010000000000030203100000000ED
:10D3100000104049000C00000010404600000000D2
:10D320000010804600000000002080440000000043
:10D3300000200069020000000040003102000000EF
:10D34000004000410000000000808040000000001C
:10D350000080C040000000000000B1400000000854
:10D3600000001BC100000000000026C601000000F4
:10D370000000403802000000000080194100000059
:10D380000006008F41000000000400D28000000071
:10D3900000080032000000000118000C000000002E
:10D3A000001000000000000000200000000000004D
:10D3B0000020000000000000004000000800000005
:10D3C0000080000008000000008200021000000041
:10D3D000000001040000000000C003000000000085
:10D3E00000200300000000000020050000000000F5
:10D3F000000000000000000000000000000000002D
:10D40000000000000000000000000000000000001C
:10D41000000000000000000000000000000000000C
:10D4200000000000000000000000000000000000FC
:10E21000000000000000000000006000000000009E
:10E2200000000000000000000000000000000000EE
:10E23000803F00000000000060EE010000000000D0
:10E2400018EA0300000000000CE0072000000000B6
:10E2500006E00F600000000003E01F600000000007
:10E2600001E01F800000008801E03F0000000088FE
:10E2700000E03F000000008400E07F000000004458
:10E2800000E07F000000004400C07F000000004468
:10E2900000C07F200000004400807F200000004478
:10E2A00000007F400200004400007E8086000044A1
:10E2B00000007880800100CC000060000100008038
:10E2C0000300200002000080030020000200000084
:10E2D00005003000040000000B0070000C0020005E
:10E2E0001600C800080040000C00040110000000E7
:10E2F0001800030230000000E0C00104200000000C
:10E30000807F220840000000004C620CC00000002A
:10E310000082441200004000008284100040E000AF
:10E320000002091300004000000411130000000067
:10E330000008D2120000000100082424000000019F
:10E340000010242404000000001048260C000000E7
:10E350000020884308000000006008400000000022
:10E3600000407E40000000000080E3C0000000008C
:10E370000000C031010000000000801F010000000B
:10E3800000000086000000000000004600000000C1
:10E3900000000031000000000000000E000100003D
:10E3A000000000000000000000000000000000006D
:10E3B000000000000000000000000000000000005D
:10E3C00000000000000000000080000000000000CD
:10E3D0000000010020000000000003080000000011
:10E3E000000002080000000000000400000000001F
:10E3F000000000000000000000000000000000001D
:10E40000000000000000000000000000000000000C
:10E4100000000000000000000000000000000000FC
:10E4200000000000000000000000000000000000EC
:10F1F00000000000000000000000100000000000FF
:10F2000000001000000000000000000000000000EE
:10F2100000000000000000000000000000000000EE
:10F2200000000000000000000000000000000000DE
:10F23000803F000000000000E0E701000000000047
:10F2400098E10300000000000CF00704000000003B
:10F2500006F00F040000000003F81F00000000008B
:10F2600001F81F000000008001F83F00000000804E
:10F2700000F83F000000008000F87F00020000401E
:10F2800000F87F000C00004000F87F0006000044FA
:10F2900000F07F000800004400F07F000000004400
:10F2A00000E07F000000004400C07F000000004438
:10F2B00000807F000000008400007F0001000088C3
:10F2C0000000380002000088010020000200001841
:10F2D00001003000040000100300700068000030DE
:10F2E0001600C800681800206C00040110000040DF
:10F2F000F8000302300000C0E0C0010420000080DC
:10F30000803F000840000000011C0010C000000306
:10F31000006408168000000400C2082100010004F7
:10F3200000849028000300030084212500020000CF
:10F3300000086322000400000018632000000000A1
:10F34000001096200000000000200C0000000000CB
:10F3500000200C4108000000004098401000000010
:10F3600000C04C4020000000018013C0000000904D
:10F37000030060300100000001008019010000005E
:10F380000000008E000000000000004400000000AB
:10F39000000000340000010000000018000002001E
:10F3A000000000000000000000000000000000005D
:10F3B000000000000000000000000000000000004D
:10F3C000000000000000000000000000000000003D
:10F3D000000000002000000000000000000000000D
:10F3E0000000001800000000000004000000000001
:10F3F000000000000000000000000000000000000D
:10F4000000000000000000000000000000000000FC
:10F4100000000000000000000000000000000000EC
:10F4200000000000000000000000000000000000DC
:020000040801F1
:1001F00000004000000000000000A000000000001F
:1002000000000000000000000000000000000000EE
:1002100000FF00000000000080000300000000005C
:1002200000000C00000000000000180000000000AA
:10023000803F300000000000E0E3610000000000AB
:10024000F8F00306000000003CF80706000000007C
:1002500002FC0F000000000003FC1F000000000073
:1002600001FE1F000000008001FE3F000000008032
:1002700000FE3F00000000C000FE7F0000000040C4
:1002800000FE7F000000004000FE7F0000000040F4
:1002900000FE7F800000004000FE7F8001000040E3
:1002A00000FC7F000000004000FC7F0000000040D8
:1002B00000F87F00000000C000F07F000000008018
:1002C00000E03F000000008001803F0000010000CE
:1002D0000100700080010000030090000000000099
:1002E00006008801000000000C000403000000402C
:1002F000D801030E000000C0E0C3011C0000008014
:10030000803F0038000000000110002800000000BD
:10031000010002580000000002008271000000008D
:1003200004004222000800000420422200080000CD
:1003300008204472000000001020845100040000D6
:10034000104004800008000020400E8000100000D3
:1003500060C08981001000E04080788800200000A3
:1003600081801C900040000080011370010000C0DB
:100370000001203002000000000060380100000091
:100380000000C0C4000000000000002300010008BD
:1003900000000832000100000000080E000200000A
:1003A000000010000000000000000000000000003D
:1003B0000000000000000000000400C00000000079
:1003C000000E00800000000000040000000000009B
:1003D000000000000000000000000000000000011C
:1003E000000000000000000200000000000000000B
:1003F00000000000000000000000000000000000FD
:1004000000000000000000000000000000000000EC
:1004100000000000000000000000000000000000DC
:1004200000000000000000000000000000000000CC
:1011E0000000000000000000000000000000960069
:1011F000030204050405060F1000FE0BFE0DFF019F
:10120000B203BB056720060030A2002108B116A278
:10121000384402220A4632A3AA4449D4042310B611
:1012200012A2AA442DC312F5322C512F002417E626
:10123000D2A1CB86244AA444CA5631C9122991921C
:101240006408D3082516B710A2C992A6A4949412D4
:1012500031A925A5A4292925B5042615B810A2521F
:10126000A3300AA3705596524B1469A56451002708
:10127000084232A3501205280CE4F6A18B6A51D61D
:10128000631616290DE4F2A1086B61D65316D5003A
:101290002A108750A28BB32851867052122DCE008F
:1012A0002B0C7752A28B6BC390C535002C0842D211
:1012B000A15012052D0616B2A2382E072212A2182E
:1012C000022F0FD6F2A10DD3621AA6C5344C5300DB
:1012D000300EB612A2D2A224F46312651200310AB3
:1012E000B514A28AC6FE3408320EB612A21992D0E4
:1012F000580D3B0E43003311B612A219926C4CC329
:101300004C8E45311912003412B712A24C8D491679
:1013100065512D1A86300E0701350FB612A238A47A
:10132000D521CAE254D4A2093610B612A2D2A22400
:10133000AD2C9A684CB26801370EB612A2386449D7
:1013400016A661DA1B003812B612A21992D0984480
:10135000991625A1311912003910B612A299B2249A
:10136000745396B4126512003A098216A218726478
:10137000083B0791D6A148073C09B612A20D7BEEA7
:10138000013D094692A2B8A3C3003E09B612A28845
:101390007BEC153F0FB612A2199250DCC26A1D13E6
:1013A00025004015B710A2DA4A89A5A254948A52A2
:1013B00051BA4C613424004114B810A2CB811C50A6
:1013C000933449A370C81AA33099064215B710A2E6
:1013D00018B4521665D19095C2244CC2244B06090C
:1013E0004310B710A21A943009E5EE409864D9046E
:1013F0004416B710A218B452988449988449988426
:10140000499864C920014515B710A238854994450B
:10141000D990455994C561120E43024612B710A2E5
:101420003885499445D990455994C5D5114712B787
:1014300010A21AA22CCA92B86D08A32CCAB20948ED
:1014400016B810A29896300AA3300AA3610AA330F6
:101450000AA3309906490BB512A218A4B03F0D0299
:101460004A0DD7D0A11AC4B87FCAA221034B13B723
:1014700010A258962CAA25E19884511665A52C39FE
:101480004C0CB710A258E37E4CC261104D16B71039
:10149000A25816932229922229D21225A5A4945447
:1014A00094444E17B810A2D0162DD2A224AA442DCF
:1014B0005125AA449994295B024F0DB710A2DA2A4C
:1014C000A95F932C9B005011B710A23885499884CE
:1014D00049A60C52DC3A02510EC7F0A1DA2AA95FE4
:1014E000A424D276405213B810A2B885511865D200
:1014F000A0456114661D934D530EB612A21946B352
:101500002AC7A2382C00540CB710A23848B5B85FCF
:1015100027005517B810A29896300AA3300AA330B6
:101520000AA3300AA34C1B22005614B810A29896A6
:1015300030CA1AA3300A933489E51C08015718B73A
:1015400010A2509229899252524A4A4BA468499853
:1015500084499844005811B810A29896308BC22440
:10156000768DB2C6641A5910B710A258962CCA2AA2
:101570006192C65D27005A12B710A21986304ECB71
:10158000699C8649380C09005B0AE4F6A118B4FE90
:10159000B7215C0EE6D2A188D3725A4EE3B49C0602
:1015A0005D0AE4F2A118B2FEB7415E082474A351AB
:1015B000A2005F0718D0A1380860072372A3D002E9
:1015C000610E7612A299B250526A49160D0262114A
:1015D000A710A2905B34A99884499864D110016344
:1015E0000C7612A29A32B5AA450B006412A712A279
:1015F000944B8312266112266192498B00650E7608
:1016000012A21992501C06354C8604660DA612A231
:10161000D3A2DAA0A5DD0605671196D2A119B624DA
:101620008BA6784842311912006814A810A2D08104
:101630001CC88164D3A2300AA3300A9369690BB530
:1016400012A2D17474EC69106A0CD5D2A1B3A36351
:101650008FDAA0006B0FA710A2909B96284BC23187
:10166000CA2A076C0AB512A28AC6FE34086D0E7922
:1016700010A250944C51A2FE2F8B016E107810A234
:1016800050362D0AA3300AA33099066F0D7612A2A8
:1016900019922C091D932101701297D0A15034A9E1
:1016A0009884499864D190A52300711197D2A152D2
:1016B000A24809933009A32C1BE274720C7710A284
:1016C0005826A9DC384800730C7612A2194679888E
:1016D000C56101740D9612A24AB3414B3B650A00E5
:1016E00075107810A2D0A4300AA3300AA34C5B0472
:1016F000760F7710A258962CCA2A6192C6190077E5
:10170000117810A25094A94B9428513246611401CB
:10171000780E7612A258942813B5248B126579118D
:1017200098D0A19896308BC22895E51C4855007A30
:101730000C7612A238646135CC86217B0CE4F8A1CA
:1017400052B29EC2ACA3007C0701D9A1F8217D0C46
:10175000E4F0A110B31EA3AC8B047E0A3672A30979
:1017600013254C007F060030A20000000004FFFF9C
:1017700021031DCD12C24A43255294444AC51C0878
:101780007320CCD11CCDD11CAED6814102300109D1
:101790003414C2D0B6004E000C3DB4C20773747846
:1017A00088004E0913DDF4C1C7A4E1CEBF88C39001
:1017B000F3EBF010014E2D1DFCD4C1CDC11C8CC328
:1017C00074781053311553311D1ED21CCCC11CCC62
:1017D000C1184E8C0FBD14C2C7B2E1CEFF0F1F223D
:1017E000004E9422EDD4C1C7A4E18EE4680EE668F1
:1017F000180E7720CC813007C21C08E3344E934189
:101800001994084EFD28FED2C18772204B72204BDE
:10181000E2AC9A85A554527260C991301BD4304A0B
:10182000C328CDAA59358AD624870051651DDD14F9
:10183000C2CB611DCD511DD4411D8B72A88E843940
:1018400010AA7198234A8E09516824FDD4C1CDD1C4
:101850001C4C7248CA91302EE6C0A00C430EE568BD
:10186000960E430EE5688E5606659000516D20EE8B
:10187000F2C1CD093A9CC33951190E3A90A3618E39
:10188000A4712CE6889643752CC9610051FA22ECAC
:10189000F4C1CDC11CC8C2280BA32C8CB230CAC263
:1018A0006CB868A9988AA9988A693224C30052063C
:1018B00025FDD4C1077244CA912C47C2B898235160
:1018C0008E24D230E8409803598E643910C669716D
:1018D0008C5300522032FED2C18793E66899922839
:1018E000694AA2A4298992A6244A9A926818945215
:1018F000D29444495312254D49943426911426918B
:1019000022ED489800529F27FED2C187723887A4E3
:1019100074087320CD6AC39846611A85B53089B2C0
:1019200068C82A719803699C0D691C0152A029EDB1
:10193000F2C1CBD11CCDD128C9926119B428C9A25A
:101940002CC9A22CC9A22CC9A22CC9A2B6248B32A4
:10195000298906312B535524FDD4C1477220CC91DF
:10196000280EB36C5086AC980D87AC9815B3E18EF9
:10197000A4C3430EE4688EE60053D126FED2C1CD47
:10198000B12853A350AB43592C0D87B83C0C399068
:10199000647196C4E19CC669A285DAA80309005463
:1019A0000C23ECF4C1C8B1E141C7744091064D0A63
:1019B000236998A43092C2481A261DD3311D187489
:1019C0002801593121FCD4C1D5B11C8972200BA347
:1019D000E114C6610EA6C3739223518E64719AE915
:1019E000C08E055E7422FDD4C1CAD11CCCA168385A
:1019F00044698EE6409865C3B10E84E132DC911CE7
:101A0000CDD11C8D015EA625FED2C1CE09399086AE
:101A1000CAB00C593189A261D08AB5B0368CD930A0
:101A200096D2548DD5505A752001621027FED2C12E
:101A3000077238D2A12C8742693884690E4425295F
:101A4000996AA55A2909B34C8C3429891373B6CAEB
:101A500001630729FED2C18B722C0AD32853874415
:101A60009D74A81A4AC310E948A264C31265612D87
:101A7000AC0D631626C592382C00636E2DFED2C1C4
:101A8000CAD22C1B86AC9A25D5E83064A5382945E6
:101A9000966490A62C4CA22CCAA244D99228CC922F
:101AA000288CB63047860563A526FED2C14A73202E
:101AB000AE4359920CDB16A571244543228AE9985E
:101AC0002AD13068ADE11C4FA3A4453A0065362BFE
:101AD000FED2C1CB7424CBA12C56A2748A86A9A4B1
:101AE00045955A548BB2284CB2444C3225CD815482
:101AF0000E1335D2B6244700657027FDD4C10B4BB9
:101B0000499426598E340ED3202583D43285A530AE
:101B1000AA448A966451988E695489444DCD0165D2
:101B2000E51BEAF6C1C891E11DD1111DD191E11D5E
:101B3000D1111DD1111D19DE210065F624EEF2C16F
:101B4000C77238AB66839A6CC930656956C9B241B1
:101B5000AA956AD5AC9A0D6A9603498E6A00661FEB
:101B600027FED2C1CA9170388439120E873047C21D
:101B70001C09876B1686C3B10EA4993A0C3996C31B
:101B8000A932288304670821FBD2C18BB361D0E25C
:101B90002CCEE26C18B4388BB361D0E22C8E72205C
:101BA000CA81241E720C671F2BFED2C1AA63510E7C
:101BB0004495645086298B6AA5211BA45A69C84A9A
:101BC000B55245199244294691124699BA463B9C12
:101BD000006B6524FED2C107723887B26A36C459D9
:101BE0000E65A1A21C722887B2B0562C85B118E7E9
:101BF000A08E0C39046DFB27EDF2C1C9A12C1BD4BA
:101C00002C47B270889421D2A234AA8449944961A5
:101C1000B825C52C8992525B250755006E292AFEEE
:101C2000D2C1C9D2301A8634492B695419864C4A1C
:101C3000C368587338C981281A4E95A84BD425EA31
:101C400012455A9298006E7F2DFED2C1C9722C1A8D
:101C5000064D89C3244EA2641824298EA461082B42
:101C6000625489862C29D592B64A22A6495AC9C2FD
:101C700025590079D229FED2C187D4314DD21CC852
:101C8000926AD2140D519245522D5AA2965A9444FA
:101C9000691295AB3910E648A4433B027A0D28FD42
:101CA000D2C187C4314A6A4994854A986451324402
:101CB000CA348591524C5A86A5164AD9B015B362DA
:101CC00056DA8A017B4927FDD4C14752B59684CAAA
:101CD0003428512D8DB2301976281D8664D0B14438
:101CE000190EA99803610E0D3918027EB929FED28A
